:100000000C94B60A0C94487E0C941D7E0C94F27DE0
:100010000C94C77D0C949C7D0C94717D0C94467D52
:100020000C941B7D0C94E70A0C94E70A0C94E70AE5
:100030000C94E70A0C94E70A0C94E70A0C94E70A7C
:100040000C94E70A0C94E70A0C94E70A0C94E70A6C
:100050000C94E70A0C94E70A0C94E70A0C94F69DBA
:100060000C94E70A0C944A7F0C94207F0C94E70AC6
:100070000C94E70A0C94E70A0C94E70A0C94E70A3C
:100080000C94E70A0C94E70A0C94E70A0C94E70A2C
:100090000C94E70A0C94E70A0C94E70A0C942B6979
:1000A0000C94E70A0C94E70A0C94E70A0C94E70A0C
:1000B0000C94E70A0C94E70A0C94E70A0C94E70AFC
:1000C0000C94E70A0C94E70A0C94E70A0C94E70AEC
:1000D0000C94E70A0C94E70A0C94E70A0C94E70ADC
:1000E0000C94E70A81A7A2A7A2A7A2A7A2A7A2A7EA
:1000F000A2A76DA7A2A7A2A7A2A7A2A7A2A773A71C
:1001000018A720A728A73BA743A751A75FA761A7C8
:1001100065A7A2A7A2A7A2A7A2A7A2A7A2A7A2A7D4
:100120008BA793A75B22652227224F224C221E22F7
:1001300015220C22989B9B9B8A9B8E9B949BD29B07
:100140009F9BA39BA99BAD9BB19BB79BBB9BBF9B5D
:10015000D29BC59BC99BCD9B072C7AA5BA6CC59039
:10016000DA3B9365FC8BBC53F810FD3C5692834DF3
:10017000BD879D3AB63DCBC9BF5BBE73DA0FC93FA1
:1001800005A84CCDB2D44EB93836A9020C50B9915D
:100190008688083CA6AAAA2ABE000000803F066402
:1001A000EC1B3C04BC163E3BE5B93CC93C37C29E47
:1001B0005A3D660498083EEA69AAAA3E00000080FB
:1001C0003F07634236B79BD8A71A39685618AEBAAC
:1001D000AB558C1D3CB7CC5763BD6DEDFD753EF640
:1001E000177231BF000000803F08000000BE92245B
:1001F00049123EABAAAA2ABECDCCCC4C3E00000090
:1002000080BEABAAAAAA3E00000000BF000000808A
:100210003F0000000000084178D3BB4387D1133D65
:10022000190E3CC3BD4282AD2B3E68EC8276BED92E
:100230008FE1A93E4C80EFFFBE01C4FF7F3F00006D
:10024000000000000C949C530C94A2A70C9420690D
:100250000C946DA70C94A39B0C94B0310C94FD9955
:100260000C94851B0C94194E0C949C8F0C941F6954
:100270000C94C0680C94E34B0C94856C0C94EC6467
:100280000C9448400C94951A0C9493640C947364E9
:100290000C9461A70C943A660C94BE7A0C941522C7
:1002A0000C9424690C9418A70C94C0500C94861CD0
:1002B0000C944A550C9496560C9495230C94063045
:1002C0000C94B38D0C9427220C94A4680C943E21BA
:1002D0000C94AB340C94B79B0C94949B0C9420A777
:1002E0000C94686B0C9428A70C9470220C94A99B16
:1002F0000C94BF9B0C948BA70C9471500C944134BC
:100300000C94989B0C94A5410C9484250C947D9995
:100310000C949C4B0C9410510C94251F0C94037B53
:100320000C942F0B0C940E1D0C94D3200C9498322B
:100330000C9495680C943A1E0C941E220C944C5705
:100340000C947F300C9494680C9465220C9464880F
:100350000C94D7980C9448560C9422BA0C94C73E2F
:100360000C94CD9B0C9429990C94707A0C94125790
:100370000C94231B0C942B1A0C945C4D0C9473A7B7
:100380000C94B9210C94AD9B0C947E6B0C94DA33D5
:100390000C943BA70C9475910C9474570C94AA7A06
:1003A0000C94AE420C94A5400C9427690C9474975D
:1003B0000C940C220C9401320C9458990C94843FA8
:1003C0000C94436C0C9417330C94476B0C9451A70A
:1003D0000C949F350C949F9B0C9429250C949B9B0B
:1003E0000C94A57B0C94FC230C94D5520C947C4F5C
:1003F0000C94784E0C94C0560C944C220C94B19BE7
:100400000C94CC7A0C94CF990C944F220C942C0B16
:100410000C945FA70C945F1D0C9489360C94AD99D5
:100420000C94B8680C9481A70C94353F0C940D651E
:100430000C94F31C0C9441710C949B7A0C948E9B3D
:100440000C949FB30C9485330C94C9220C94BB9BE1
:100450000C948E610C948A9B0C943E520C9493A73E
:100460000C94F24F0C946F560C9492640C9472643A
:100470000C9465A70C944D180C946F7A0C94DC1AAC
:100480000C9487640C940F4B0C944A7B0C94C59B82
:100490000C947F6B0C9468400C94C5660C94C99BBB
:1004A0000C94FD980C94F0680C94B1980C94876BA4
:1004B0000C94E9560C9443A70C945B220C94201DD9
:1004C0000C94D29B0C9419320C9437710C946442A6
:1004D0000C94F6412C252C002C252C526F6C6C753D
:1004E00070323A002C6C75782C526F6C6C757031D0
:1004F0003A2C002C6D6D2C002C252C5261696E3A23
:100500002C002C432C48523A2C002C252C002C2556
:100510002C526F6C6C7570323A002C6C75782C52C2
:100520006F6C6C7570313A2C002C6D6D2C002C2585
:100530002C5261696E3A2C002C432C48523A2C0004
:1005400043454C4C2C4745542C00300025002020BE
:1005500020202020202020200025002020202020D6
:1005600020202020202000286D6F726E696E672980
:1005700000287072656E69676874290044415900EB
:100580004E49474854006D6F726E696E6700707215
:10059000656E69676874007105670580057C058E66
:1005A00005670580057C057105860580057C058E3F
:1005B00005860580057C0520504552494F4453204F
:1005C0004D454E55202000202D205354415254209B
:1005D00054494D4500202D2053554E20545241433F
:1005E0004B494E4700202D2052414D50494E470067
:1005F00044494620284D4F524E494E47292020203D
:100600002020005052454E494748542020202020A9
:100610002020202020200048656174696E67005406
:10062000454D5045524154555245530020205445A4
:100630004D504552415455524553282A43292020B4
:1006400000737465707300726F746174696F6E20EB
:1006500074696D65006C6F636B206F70656E006C04
:100660006F636B20636C6F7365006C6F636B2061ED
:100670007420250077696E64007261696E005D0008
:100680004D4F44203A202020202020205B005D2078
:10069000202000202020202020205B005D20202022
:1006A00000202020202020205B002020202020204F
:1006B0002020202020202020202020202020004931
:1006C0004E444546494E4954454C59004B0C400C4C
:1006D000360C202D204D41494E204D454E552020B1
:1006E0002020202000470641062D2053455420504D
:1006F0004152414D45544552532020002D20414345
:10070000544956415445002D2044495341424C45DB
:1007100028434F4E4649524D2900790674067B0CFA
:10072000730C6B0C640C790674067B0C730C6B0CED
:100730006A065F065506202D204F56455252494401
:10074000452020202020202000202D20434C4F43F6
:100750004B204F5645525249444500202D205354BA
:100760004152542054494D4500202D2053544F50A0
:100770002054494D4500202D2054415247455428CE
:10078000252900202D205241494E204F56455252D6
:1007900049444500202D205241494E20434C4F539F
:1007A0004528252900202D204C4F434B204F5045F4
:1007B0004E286D696E2900202D204C4F434B20435D
:1007C0004C4F5345286D696E290076616C76006840
:1007D00065617465720066616E0074656D70657246
:1007E00061747572657300706572696F647300611E
:1007F000646A7573746D656E747300202D20434CAC
:100800004F434B204F5645525249444500202D201E
:1008100053544152542054494D4500202D205354E7
:100820004F502054494D4500202D205745415448F4
:10083000455220434F4E444954494F4E00202D20ED
:100840004852282529204F564552524944450020F8
:100850002D204D41582048554D494449545928258B
:10086000292000202D204C4F434B204F4E20286D37
:10087000696E29202000202D204C4F434B204F46ED
:100880004620286D696E2900D607CF07CA072D209C
:100890005459504500737461727420756E646572AA
:1008A0003A200068656174543A20202020202020DE
:1008B0000073746172742061626F76653A20006320
:1008C0006F6F6C543A20202020202020002D2053D0
:1008D000544152542054454D50284329002D20485E
:1008E0005953544552455349532843292020200049
:1008F000EF07E707DA072054454D5045524154555C
:10090000524553204D454E552020004F310048326E
:1009100032004D3234004C3234004D3233004C3210
:1009200033004D3232004C3232004B3231004C3207
:100930003100493137004931360049313500443200
:1009400032004B3234004A3234004B3233004A32E8
:1009500033004B3232004A3232004B3231004A32DD
:1009600031004731370047313600473135004432D6
:1009700032004D3138004C3138004D3137004C31A8
:1009800037004D3136004C3136004D3135004C3199
:1009900035004531370045313600453135004232AA
:1009A00032004B3138004A3138004B3137004A3180
:1009B00037004B3136004A3136004B3135004A3171
:1009C00035004331370043313600433135004B3772
:1009D00036004A3736004B3735004A3735004B373B
:1009E00033004A3733004B3732004A37320045363E
:1009F00031004B3631004A363100453630004B3637
:100A000030004A363000453539004B3539004A351B
:100A10003900453538004B3538004A353800423901
:100A2000004235350042353400423533004B353510
:100A3000004A353500453530004B3439004A3439E9
:100A400000453438004B3437004A343700453436DB
:100A5000004B3435004A343500453434004B3433D0
:100A6000004A343300423900423430004233390006
:100A7000423338004B3430004A34300042313000C9
:100A80004238004237004D33004C33004D32004CA9
:100A90003200503400636F6E6669726D0063616E80
:100AA00063656C00656E61626C65640064697361A6
:100AB000626C656400672F6D33007C48443A0067C0
:100AC0002F6D33007C48413A0025007C48523A00A3
:100AD00043004D61783A0043004D696E3A0043008F
:100AE000543A0020204F5554534944452054454D15
:100AF000502F48554D2020006B6D2F680057696EB0
:100B000064207370643A20006D6D005261696E203C
:100B10003234683A20006E6F2000796573005261AC
:100B2000696E3A2000202020574541544845522004
:100B300053544154494F4E20200020572F6D32000E
:100B4000206C757800202020524144494154494F7F
:100B50004E204441544120202000204120200052BA
:100B600032203A20002041C2A020005231203A20F9
:100B7000002020204D4F544F525320435552524590
:100B80004E542020200020544553542050524F47AB
:100B900052414D5320009D0A950A2020464143545E
:100BA0004F52592053455454494E4753202000205A
:100BB0004441592F4E494748542053455454494EB7
:100BC00047532000AC0AA40A202057454154484509
:100BD000522D53455454494E475320200020202085
:100BE0002053455420574541544845522020202049
:100BF00020005D202020005D3A5B00202020202086
:100C00005B002F002F00207C003A003A007C004F50
:100C10004646004F4E2000202020202020003E206D
:100C200000202020202020202020202020202020E4
:100C30002020202020006F76657272696465730041
:100C4000706172616D65746572730064697361626D
:100C50006C65006C6F636B204F4E006C6F636B2094
:100C60004F464600756E6C6F636B0074696D6572FC
:100C700020310074696D657220320074696D65728F
:100C800020330068756D696469747900202D204CEB
:100C90004F434B20544F2025202020202000202D82
:100CA0002044454C415920286D696E292020202080
:100CB000002D524F544154494F4E2054494D452820
:100CC0007329002D524F544154494F4E2054494DE1
:100CD00045287329002D204F50454E494E4720533B
:100CE00054455053202020002D204D494E204F5078
:100CF000454E494E472825292020002D204D41589A
:100D0000204F50454E494E47282529202000737416
:100D1000617274206F70656E3A202000636F6F6C93
:100D2000543A20202020202020002D2053544152CE
:100D300054204F50454E494E472843290066756C54
:100D40006C206F70656E3A20202000636F6F6C54CA
:100D5000200066756C6C206F70656E3A2020200054
:100D6000636F6F6C543A20202020202020002D201B
:100D700046554C4C204F50454E494E47284329205C
:100D8000002D2050415553452054494D4528732985
:100D9000202020002D204859535445524553495393
:100DA000284329202020004B0C400C360C202D20FD
:100DB0004D41494E204D454E55002D20454E414256
:100DC0004C4528434F4E4649524D29002D20444959
:100DD0005341424C4528434F4E4649524D290083CA
:100DE0000C7B0C730C6B0C5B0C530C830C7B0C732B
:100DF0000C6B0C640C202D204F5645525249444533
:100E000053202020202020002020574541544845D1
:100E1000522D41444A555354282529200020202092
:100E2000202053455420484F555220202020202078
:100E30000020202020534554204D494E5554532026
:100E40002020202000202020202020534554204412
:100E50004159202020202020002020202020534500
:100E600054204D4F4E544820202020200020202088
:100E70002020534554205945415220202020202035
:100E800000202020534554204C415449545544459A
:100E90002020202000202020534554204C4F4E4736
:100EA0004954554445202020005D2020200020206A
:100EB00020202020205B002020205345542054492E
:100EC0004D455A4F4E4520202020007C3C3E5E2B55
:100ED0003D3F2F5B5D3B2C2A225C00005EBCE26143
:100EE0003FDD83C29C7E20A3FD1F419DC3217FFC6B
:100EF000A2401E5F01E3BD3E6082DC237D9FC142B4
:100F00001CFEA0E1BF5D0380DE3C62BEE0025CDF50
:100F100081633D7C22C09E1D43A1FF4618FAA42791
:100F2000799BC584DA3866E5BB5907DB856739BA32
:100F3000E406581947A5FB7826C49A653BD987046F
:100F40005AB8E6A7F91B45C6987A24F8A6441A9918
:100F5000C7257B3A6486D85B05E7B98CD2306EED45
:100F6000B3510F4E10F2AC2F7193CD114FADF37002
:100F70002ECC92D38D6F31B2EC0E50AFF1134DCE1B
:100F800090722C6D33D18F0C52B0EE326C8ED053E8
:100F90000DEFB1F0AE4C1291CF2D73CA947628AB01
:100FA000F517490856B4EA6937D58B5709EBB536BA
:100FB000688AD495CB2977F4AA4816E9B7550B88E7
:100FC000D6346A2B7597C94A14F6A8742AC89615A0
:100FD0004BA9F7B6E80A54D7896B353A004E475407
:100FE0003A20003A005052453A20003A0044415914
:100FF0003A20003A004449463A20002F00284E4744
:1010000054290028505245290028444159290028D4
:101010004449462900202020202020202020200094
:10102000284E475429002850524529002844415948
:1010300029002844494629007C0020202020202027
:1010400020202020200020202020202020202020C0
:1010500020202020202020202000202020202020B0
:101060002020202020202020202020202000202D93
:101070002000202020202020202020202020202090
:101080002020202020004420203A20636F6E6669D3
:10109000726D2F6E657874002A23203A2061646A8D
:1010A0007573740050726573732027432720746F23
:1010B0002063616E63656C00507265737320274412
:1010C0002720746F20636F6E6669726D005D20204B
:1010D0002020002020202020205B005D2020003EDA
:1010E0005B005D202000205B00434C440053554EC4
:1010F000005D202000205B00434C440053554E000F
:101100005D2020003E5B005D202020003E5B005DF6
:101110002000205B00434C440053554E005D2020CE
:101120002000205B005D2000205B00202020204864
:10113000656174696E672020436F6F6C696E67200C
:10114000005D20202000205B005D20003E5B00430E
:101150004C440053554E005D20202000205B005D74
:101160002000205B002020202048656174696E67A4
:101170002020436F6F6C696E67005D202020002087
:101180005B005D2000205B00434C440053554E0043
:101190005D202020003E5B005D2000205B002020C1
:1011A000202048656174696E672020436F6F6C6909
:1011B0006E67005D20202000205B005D2020002065
:1011C0005B00434C440053554E005D202020005BE3
:1011D000005D2020003E5B002020202048656174D7
:1011E000696E672020436F6F6C696E6700436F6F95
:1011F0006C696E670054454D5045524154555245F7
:101200005300202054454D504552415455524553AA
:10121000282A432920200048656174696E670054BC
:10122000454D504552415455524553002020544598
:101230004D504552415455524553282A43292020A8
:1012400000436F6F6C696E670054454D50455241C5
:10125000545552455300202054454D504552415459
:1012600055524553282A432920200021212100439B
:101270002D2020200021212100430020202020209B
:10128000202020200061646A757374205432346811
:10129000006461792F6E696768742073657474697E
:1012A0006E677300776561746865722061646A7542
:1012B000737400696E73696465006F757473696433
:1012C0006500776561746865720072616469617454
:1012D000696F6E006D6F746F727300646973616221
:1012E0006C656400534854315800445331384232DD
:1012F000300064697361626C6564006275636B657C
:1013000074206D6F6465004E4F20636F6E7461636F
:1013100074004E4320636F6E7461637400A4129175
:10132000128512202054454D502041444A555354B3
:101330004D454E545320200074656D7020706172CD
:10134000616D657465727300496E63726561736582
:101350002F646563722E20616C6C00202041444A2A
:101360005553542054454D502032344820200020FD
:10137000202020434F4E464947204D454E552020C2
:1013800020202000D412CA12C212BA12B312205363
:10139000454C4543542053454E534F52200020495D
:1013A0004E534944452054454D502053454E534FCC
:1013B000522000EA12E412DB124F555453494445BF
:1013C0002054454D502053454E534F5200121307A1
:1013D00013FB12F2122020205241494E2053454E59
:1013E000534F5220202000202020414E454D4F4D8C
:1013F000455445522020200020202020204C5558C4
:10140000204D455445522020202000672F6D330089
:101410007C48443A00672F6D33007C48413A0025F0
:10142000007C48523A004300543234683A0043008A
:10143000543A00202020494E534944452054454DFC
:10144000502F48554D202000000021002400270087
:101450002A002D00300033000101000004010701C3
:101460000A0100002200250028002B002E00310078
:10147000340002010000050108010B0100002000FA
:101480002300260029002C002F003200000100005C
:1014900003010601090105050505070508080808F7
:1014A000020202020A0A08080404040401010101FC
:1014B00001010101030303030303030304070707F7
:1014C0000C0C0C0C0C0C0C0C02020202060606069C
:1014D000060606060B0B0B0B0B0B0B0B0102102069
:1014E000200808102040102040800201020108045A
:1014F00002010102040810204080804020100804EE
:101500000201800402018040201008040201080446
:10151000020101020408102040800102040810208A
:10152000408000000A0B02090C0D0E08070304019D
:1015300000000000000000000000000000000000AB
:101540000000000000000000000000000000121178
:10155000100000000000000000000000000000007B
:1015600000000000000000009FB322BA11241FBE3B
:10157000CFEFD1E2DEBFCDBF00E00CBF16E0A0E0B0
:10158000B2E0E4E9F5E801E00BBF02C007900D927C
:10159000AC36B107D9F72AE1ACE6B6E001C01D923E
:1015A000A233B207E1F71AE0C5EBDAE000E006C0CB
:1015B00021970109802FFE010E94FCBAC43BD1078C
:1015C00080E00807A9F70E94409E0C94B8C20C94D2
:1015D00000008091AF169091B016CC976CF01092ED
:1015E000B0161092AF168091AD169091AE1601967E
:1015F0009093AE168093AD168091AD169091AE1675
:10160000489734F01092AE161092AD16109226172D
:1016100080917002909171024F977CF081E090E090
:10162000909371028093700280916E0290916F028C
:10163000019690936F0280936E0280916E0290915A
:101640006F020D9744F081E090E090936F028093D9
:101650006E0210922617089580E090E008950F938F
:101660001F930E94EA9D0091A5161091A616209145
:10167000A7163091A816DC01CB01801B910BA20BA1
:10168000B30B4097A105B105A8F18091A1169091E7
:10169000A216A091A316B091A4160196A11DB11D8A
:1016A0008093A1169093A216A093A316B093A416AC
:1016B0006091A1167091A2168091A3169091A41624
:1016C0000E9469C12DEC3CEC4CEC5CE30E94CAC169
:1016D0006093C6067093C7068093C8069093C906A8
:1016E0000E94EA9D6093A5167093A6168093A71694
:1016F0009093A8161F910F9108958091B3168111B0
:1017000004C080912617882311F081E001C080E099
:101710000C94D193FF920F931F93CF93DF9300D03C
:101720001F92CDB7DEB78C0160E475E08DEC96E0DA
:101730000E94887EB8018DEC96E00E940A7F0E948C
:10174000D876FC0197FD11C08D32910591F0C097BC
:101750000A9778F0E091CD06F091CE060284F385E9
:10176000E02D8DEC96E01995EACF80E090E0DC0169
:101770004CC020E030E0A901F12CE130F105F1F09E
:10178000ED32F105C9F0CF01C0970A97B8F4AAE08D
:10179000B0E00E949EC28F01FF0F220B330BDC01D1
:1017A000CB01800F911FA21FB31F9C01AD012053DD
:1017B00031094109510902C0FF24F394E091CD069B
:1017C000F091CE060284F385E02D8DEC96E029831E
:1017D0003A834B835C8319950E94D876FC01C097AD
:1017E00029813A814B815C810A9738F2E130F10519
:1017F00021F2FF2041F088279927DC01821B930BFF
:10180000A40BB50B02C0DA01C9010F900F900F9025
:101810000F90DF91CF911F910F91FF900895AC0130
:1018200044575F4F49F09C0122553F4F241735071D
:1018300019F021513109FACF9C012D593F4F31F058
:101840004217530719F049525109FACF009731F066
:101850002817390719F021523109FACF08950F934B
:101860001F9320E030E041E2DC01A20FB31FFB0137
:10187000E20FF31F542F01900D925A95E1F72F5D5F
:101880003F4F2336310581F7DC01AD59BF4FFB01D6
:10189000ED59FF4F29E201900D922A95E1F7DC0105
:1018A000A457BF4FFB01E457FF4F21E101900D9278
:1018B0002A95E1F7DC01A356BF4FFB01E356FF4F2A
:1018C00021E101900D922A95E1F7FB01E255FF4FCE
:1018D0000081118122813381FC01E255FF4F008399
:1018E000118322833383FB01EE54FF4F2081FC01DF
:1018F000EE54FF4F2083FB01ED54FF4F0081118117
:1019000022813381FC01ED54FF4F00831183228338
:101910003383FB01E954FF4F2081FC01E954FF4F61
:101920002083FB01E854FF4F2081FC01E854FF4F66
:101930002083FB01E754FF4F2081FC01E754FF4F58
:1019400020831F910F9108950F931F93CF93DF93DF
:10195000EC018B010E942F0CFE01E654FF4FD801D1
:10196000A654BF4F8D919D910D90BC91A02D808369
:101970009183A283B383DE01A254BF4FF801E254E6
:10198000FF4F8AE001900D928A95E1F7DE01A8539E
:10199000BF4FF801E853FF4F86E001900D928A9502
:1019A000E1F7DE01A253BF4FF801E253FF4F86E09B
:1019B00001900D928A95E1F7DE01AC52BF4FF8011C
:1019C000EC52FF4F86E001900D928A95E1F7FE01FF
:1019D000E652FF4FD801A652BF4F8D919C91918343
:1019E0008083BE0164527F4FA80144525F4F80E064
:1019F00090E022E1DB01A80FB91FFA01E80FF91FFF
:101A0000322F01900D923A95E1F742968C3691056E
:101A100089F7F801E85BFE4F8081FE01E85BFE4F2D
:101A20008083F801E75BFE4F8081FE01E75BFE4F9C
:101A30008083DE01A65BBE4FF801E65BFE4F85E0CA
:101A400001900D928A95E1F7DE01A15BBE4FF8018E
:101A5000E15BFE4F85E001900D928A95E1F7F80178
:101A6000EC5AFE4F80819181FE01EC5AFE4F91832A
:101A70008083F801EA5AFE4F80819181A281B3816F
:101A8000FE01EA5AFE4F80839183A283B383F8015B
:101A9000E65AFE4F80819181A281B381FE01E65A10
:101AA000FE4F80839183A283B383F801E25AFE4FF5
:101AB00080819181A281B381FE01E25AFE4F808331
:101AC0009183A283B383F801EE59FE4F8081918107
:101AD000A281B381FE01EE59FE4F80839183A283E0
:101AE000B383F801EA59FE4F80819181FE01EA59E2
:101AF000FE4F91838083F801E859FE4F80819181E8
:101B0000FE01E859FE4F91838083F801E659FE4FAC
:101B100080819181FE01E659FE4F91838083F80117
:101B2000E459FE4F8081FE01E459FE4F8083F801A5
:101B3000E359FE4F8081FE01E359FE4F8083F80197
:101B4000E259FE4F8081FE01E259FE4F8083F80189
:101B5000E159FE4F80819181FE01E159FE4F918351
:101B60008083F801EF58FE4F80819181FE01EF588C
:101B7000FE4F91838083F801ED58FE4F8081918163
:101B8000FE01ED58FE4F91838083F801EB58FE4F24
:101B900080819181FE01EB58FE4F91838083F80193
:101BA000E958FE4F8081FE01E958FE4F8083F8011D
:101BB000E858FE4F80819181A281B381FE01E858EF
:101BC000FE4F80839183A283B383F801E458FE4FD4
:101BD00080819181A281B381FE01E458FE4F808310
:101BE0009183A283B383F801E058FE4F80819181F5
:101BF000FE01E058FE4F91838083F801EE57FE4FBF
:101C000080819181CE57DE4F99838883DF91CF9178
:101C10001F910F9108952F923F924F925F926F9272
:101C20007F928F929F92AF92BF92CF92DF92EF926C
:101C3000FF920F931F93CF93DF93CDB7DEB7C758B3
:101C4000D1400FB6F894DEBF0FBECDBFE12C84E8C3
:101C5000C82EDD24D39483E296E10E941B80E8160F
:101C600008F0B4C02091571640915816EC9C8001A2
:101C7000ED9C100D1124095E124F60E6C801CA5791
:101C8000DE4F2883C658D140C957DE4F4883C75816
:101C9000D1400E94DA2FCA57DE4F2881C658D14062
:101CA000C957DE4F4881C758D140BC01C8010E94C6
:101CB0009D2F209157164091581661E6C801CA57CA
:101CC000DE4F2883C658D140C957DE4F4883C758D6
:101CD000D1400E94DA2FCA57DE4F2881C658D14022
:101CE000C957DE4F4881C758D140BC01C8010E9486
:101CF0009D2F209157164091581662E6C801CA5789
:101D0000DE4F2883C658D140C957DE4F4883C75895
:101D1000D1400E94DA2FCA57DE4F2881C658D140E1
:101D2000C957DE4F4881C758D140BC01C8010E9445
:101D30009D2F67E17DE0CE0101960E94A40C80906A
:101D4000661690906716A0906816B0906916CE013E
:101D500083529F4F0E944D803C0163E6CE01019665
:101D60000E945783F0902517FF2029F190E0CB5A6D
:101D7000DE4F28813981C555D14028173907D0F069
:101D8000B30180E090E00E9469C19B01AC01C501F4
:101D9000B4010E942DBB9B01AC01FF24F394609120
:101DA0009C0A70919D0A80919E0A90919F0A0E94C0
:101DB000CCBC87FDF12C4F2D63E6C8010E94C62ED6
:101DC000CE0101960E94B72EE39445CFCB57DE4F4C
:101DD0001882C558D14087E296E10E941B80CB57FC
:101DE000DE4F9881C558D140981708F08FC1CB5766
:101DF000DE4F8881C558D140E82EF12C9EED9E9D86
:101E000080019F9D100D1124C8018F589D4E0E9486
:101E10001B80095F194F823009F075C081E096E19F
:101E20000E941B80B82E2091571640915816F80139
:101E3000E456F44F6F0160E6CF01CA57DE4F2883A6
:101E4000C658D140C957DE4F4883C758D1400E9479
:101E5000DA2FBC010B2DCA57DE4F2881C658D1405E
:101E6000C957DE4F4881C758D140C6010E94182F7C
:101E700081E096E10E941B80082F20915716409127
:101E8000581661E6C601CA57DE4F2883C658D140AE
:101E9000C957DE4F4883C758D1400E94DA2FBC0192
:101EA000CA57DE4F2881C658D140C957DE4F4881F6
:101EB000C758D140C6010E94182F81E096E10E94C8
:101EC0001B80082F209157164091581662E6C601D4
:101ED000CA57DE4F2883C658D140C957DE4F4883C2
:101EE000C758D1400E94DA2FBC01CA57DE4F288163
:101EF000C658D140C957DE4F4881C758D140C601A6
:101F00000E94182F62C0209157164091581604560F
:101F1000144F60E6C801CA57DE4F2883C658D14027
:101F2000C957DE4F4883C758D1400E94DA2FCA579D
:101F3000DE4F2881C658D140C957DE4F4881C75867
:101F4000D140BC01C8010E949D2F2091571640919D
:101F5000581661E6C801CA57DE4F2883C658D140DB
:101F6000C957DE4F4883C758D1400E94DA2FCA575D
:101F7000DE4F2881C658D140C957DE4F4881C75827
:101F8000D140BC01C8010E949D2F2091571640915D
:101F9000581662E6C801CA57DE4F2883C658D1409A
:101FA000C957DE4F4883C758D1400E94DA2FCA571D
:101FB000DE4F2881C658D140C957DE4F4881C758E7
:101FC000D140BC01C8010E949D2F409098095090BB
:101FD000990960909A0970909B09FEEDFE9D800121
:101FE000FF9D100D1124C8018A5F9D4E1C010E94A7
:101FF0001B808A3609F07EC0C801825F9D4E0E9418
:10200000E97FF801811104C0EC5EFD4E108272C0C0
:10201000EB5EFD4E6F01CF010E941B80982EF1E018
:102020008F17D1F1C6010E941B80823009F062C077
:102030008EED8E9D80018F9D100D1124F801E75EBD
:10204000FD4E7F01CF010E94F9809B01AC01C301CD
:10205000B2010E9464C187FD1BC0C7010E94F980C4
:102060006B017C01C8018D5D9D4E0E94F9809B0132
:10207000AC01C701B6010E942DBB9B01AC01C3019D
:10208000B2010E94CCBC87FD35C0F101168632C07A
:1020900081E0F10186872EC0F801E75EFD4E5F0109
:1020A000CF010E94F9809B01AC01C301B2010E94E3
:1020B000CCBC1816E4F0C5010E94F9804B015C010C
:1020C000C8018D5D9D4E0E94F9809B01AC01C50148
:1020D000B4010E942CBB9B01AC01C301B2010E9460
:1020E00064C118160CF49ECFF10116869BCFF10146
:1020F000968698CFCB57DE4FF881C558D140FF5F09
:10210000CB57DE4FF883C558D14065CEC957DE4F57
:102110000FB6F894DEBF0FBECDBFDF91CF911F91F8
:102120000F91FF90EF90DF90CF90BF90AF909F9076
:102130008F907F906F905F904F903F902F90089579
:10214000CF92DF92EF92FF92E8E9F6E0ACE6B6E0DC
:102150007291629152914291448355836683778351
:1021600046E0EC36F407A1F74091B6165091B71649
:102170006091B8167091B91640936C0650936D0635
:1021800060936E0670936F0620E030E060E070E0D0
:10219000CB01CD90DD90ED90FD904FEFC416D104B2
:1021A000E104F10431F06C0D7D1D8E1D9F1D2F5F2C
:1021B0003F4F46E0AC39B40761F761157105810501
:1021C000910571F0032E000C440B550B0E94BBBA15
:1021D0002093BA163093BB164093BC165093BD168D
:1021E000FF90EF90DF90CF900895CF92DF92EF9223
:1021F000FF9288E30E94919D9C01220F331F220FC2
:10220000331F3093B5162093B41623EC30E0DC0175
:102210000E940CBBE2ECF6E0AEE9B6E0F290E29090
:10222000D290C290C482D582E682F78226E0EE394F
:10223000F207A1F760939E0670939F068093A00615
:102240009093A10620E030E060E070E0CB01CD90FB
:10225000DD90ED90FD904FEFC416D104E104F10440
:1022600031F06C0D7D1D8E1D9F1D2F5F3F4F46E091
:10227000AE3FB40761F7611571058105910571F0F5
:10228000032E000C440B550B0E94BBBA2093B616CC
:102290003093B7164093B8165093B916FF90EF904D
:1022A000DF90CF9008958F929F92AF92BF92CF927E
:1022B000DF92EF92FF920E947D0B8BE296E10E94EB
:1022C0001B808130F1F480E49BE00E94CD716B01B2
:1022D0007C018090980990909909A0909A09B090FB
:1022E0009B0920E030E0A9010E9464C118163CF06F
:1022F00043E050E0C501B4010E94BB9602C01092B9
:10230000241A8091241A81110EC0B701A60188E910
:1023100099E0FF90EF90DF90CF90BF90AF909F90AB
:102320008F900C94C22BFF90EF90DF90CF90BF90D6
:10233000AF909F908F9008958F929F92AF92BF928F
:10234000CF92DF92EF92FF920E947D0B8091B316A5
:10235000893609F05AC08091B21681110CC04DEC3B
:102360005CEC60E271E48CE99AE00E94C22B81E0AF
:102370008093B21623C08091B1162DEC3CEC4CE456
:102380005DE381110BC060919C0A70919D0A809160
:102390009E0A90919F0A0E942DBB0AC060919C0AE0
:1023A00070919D0A80919E0A90919F0A0E942CBB79
:1023B000AB01BC018CE99AE00E94C22BC0909C0A40
:1023C000D0909D0AE0909E0AF0909F0A20E030E0B5
:1023D00040EF51E4C701B6010E94CCBC87FD03C0A9
:1023E00081E08093B11620E030E040E251E4C70183
:1023F000B6010E9464C118160CF473C01092B11695
:102400001092B2161092B3166CC08BE296E10E9445
:102410001B80811117C086E79BE00E94886786E7D2
:102420009BE00E94E1946B017C0180909C0A90905B
:102430009D0AA0909E0AB0909F0A20E030E04EEFE7
:1024400052EC2EC08BE296E10E941B808130B9F5E0
:1024500080E49BE00E946B716091460B7091470B8A
:10246000072E000C880B990B0E946BC12AE037EDF8
:1024700043E25CE30E94CAC120E030E040E252E463
:102480000E942CBB6B017C0180909C0A90909D0A5D
:10249000A0909E0AB0909F0A20E030E040E252EC0B
:1024A000C701B6010E9464C118163CF041E050E03B
:1024B000C501B4010E94BB9602C01092241A8091FB
:1024C000241A81110EC0B701A6018CE99AE0FF9091
:1024D000EF90DF90CF90BF90AF909F908F900C9433
:1024E000C22BFF90EF90DF90CF90BF90AF909F9066
:1024F0008F9008950E947D0B80912617893C59F595
:102500000E94777520931E0B30931F0B4093200B76
:102510005093210B6093220B7093230B8093240B19
:102520009093250B10920E1A8091AF169091B016D1
:1025300080930F1A2091AD162093101A5093111A00
:102540006093121A705D7093131A02969093B016EE
:102550008093AF161DC08A3CE9F410920E1A809148
:10256000AF1680930F1A8091AD168093101A809148
:102570007002909171028093111A20916E02209343
:10258000121A1092131A019690937102809370029E
:102590000C94E90A0E94777520931E0B30931F0B51
:1025A0004093200B5093210B6093220B7093230BCD
:1025B0008093240B9093250B705D7093131A609396
:1025C000121A5093111A2093101A30930F1A409335
:1025D0000E1A089589E30E94919DBC01990F880B02
:1025E000990B0E946BC12EE036E348ED5DE30E943B
:1025F000CAC1609321177093221780932317909379
:1026000024170895FC01808191810C9488C20F9356
:102610001F93CF93DF931F92CDB7DEB78C016983F1
:102620000E9402136981681729F0F8018081918165
:102630000E9490C2C8010F90DF91CF911F910F911E
:1026400008950F931F93CF93DF93EC010E94EA9DAF
:10265000088119812A813B81601B710B820B930BCE
:10266000DF91CF911F910F910895CF92DF92EF925A
:10267000FF9287E396E10E941B80813049F483E05A
:102680000E94FC9C892B79F481E0809325175AC025
:1026900087E396E10E941B80811108C083E00E94BD
:1026A000FC9C019789F7109225174CC087E396E1AF
:1026B0000E941B80823009F045C088EC98E00E949F
:1026C000211361367A4E81059105E0F1C090C6066E
:1026D000D090C706E090C806F090C9062DEC3CECFF
:1026E0004CEC5DE36091A9167091AA168091AB162F
:1026F0009091AC160E942DBB9B01AC01C701B601A5
:102700000E94CCBC181624F481E08093251702C0E7
:10271000109225178091C6069091C706A091C80611
:10272000B091C9068093A9169093AA16A093AB16F0
:10273000B093AC1688EC98E0FF90EF90DF90CF90CC
:102740000C941A94FF90EF90DF90CF900895CF9360
:10275000DF93EC010E94EA9D688379838A839B83DF
:10276000DF91CF9108950F931F93CF93DF93EC01E7
:102770008B010E942F0CDE01A654BF4FF801E654D6
:10278000FF4F8AE001900D928A95E1F7DE01AC538C
:10279000BF4FF801EC53FF4F8AE001900D928A95EC
:1027A000E1F7FE01E253FF4FD801A253BF4F8D91D5
:1027B0009D910D90BC91A02D80839183A283B383C2
:1027C0003496D801AE52BF4F8D919C9191838083F6
:1027D000DE01AC52BF4FF801EC52FF4F85E0019093
:1027E0000D928A95E1F7F801E752FF4F8081FE01D3
:1027F000E752FF4F8083F801E652FF4F80819181BD
:10280000FE01E652FF4F91838083F801E452FF4FAF
:1028100080819181C452DF4F99838883DF91CF916A
:102820001F910F9108956F927F928F929F92AF9216
:10283000BF92CF92DF92EF92FF920F931F93CF93AD
:10284000DF93EC014B015A01122F602F822F0E945F
:1028500097936BE575E080E998E00E94887EC70158
:1028600086529F4F0E94E97F882309F4B8C0602FE9
:10287000812F0E94979367018CEAC81A8EEFD80ABD
:10288000F601808191818F3F910511F4BE010BC04B
:102890003701F6EB6F1AFEEF7F0AC3010E94F18643
:1028A000882331F0B40180E998E00E947A7E37C035
:1028B000470181EB881A8EEF980AC4010E94F186C5
:1028C000882311F0B501EFCFC3010E94F186811179
:1028D00007C0F701E259FE4F8081811107C03EC059
:1028E000C4010E94F186811139C0F3CF80919C060A
:1028F00081116FC0BE0180E998E00E947A7EF601E6
:102900004081518160E070E02AE080E998E00E9417
:10291000C17E69E575E080E998E00E94887EC70184
:102920000E94C282882339F0602F88E0810F0E94C4
:10293000979364E03CC060E6C7010E948D868111D8
:102940001FC061E6C7010E948D86811119C062E631
:10295000C7010E948D86811113C019C0BE0180E994
:1029600098E00E947A7EF6014081518160E070E03B
:102970002AE080E998E00E94C17E6CE475E0CBCF4C
:10298000602F88E0810F0E94979361E010C063E69A
:10299000C7010E942A86882311F180912517882378
:1029A000F1F0602F88E0810F0E94979363E080E947
:1029B00098E0DF91CF911F910F91FF90EF90DF9002
:1029C000CF90BF90AF909F908F907F906F900C941E
:1029D0008764813009F0A3CF6EE475E09CCFDF916E
:1029E000CF911F910F91FF90EF90DF90CF90BF900C
:1029F000AF909F908F907F906F900895EF92FF928D
:102A00000F93CF93DF93CDB7DEB7C659D1400FB642
:102A1000F894DEBF0FBECDBF81E792E10E941B801C
:102A2000811109C063EA71E1CE0101960E94B313DE
:102A300064E075E01DC081E792E10E941B80813057
:102A400049F463EA71E1CE0101960E94B31368E094
:102A500075E00EC081E792E10E941B808230F9F49C
:102A600063EA71E1CE0101960E94B3136CE075E058
:102A7000CE018B579E4F0E94067DAE014F5F5F4F88
:102A800060E0CE018B579E4F0E94B448CE018B5719
:102A90009E4F0E94A67CCE0101960E940F0C89EFEA
:102AA00090E10E94E97F811143C08FE493E10E948D
:102AB0001B80811109C061E872E1CE0101960E947C
:102AC000B31360E175E01DC08FE493E10E941B80A9
:102AD000813049F461E872E1CE0101960E94B3139E
:102AE00064E175E00EC08FE493E10E941B808230A8
:102AF000F9F461E872E1CE0101960E94B31368E136
:102B000075E0CE018B579E4F0E94067DAE014F5F50
:102B10005F4F67E0CE018B579E4F0E94B448CE01B5
:102B20008B579E4F0E94A67CCE0101960E940F0CEF
:102B300089EF90E10E94E97F811143C08DE294E129
:102B40000E941B80811109C06FE573E1CE010196DF
:102B50000E94B3136CE175E01DC08DE294E10E9408
:102B60001B80813049F46FE573E1CE0101960E942C
:102B7000B31360E275E00EC08DE294E10E941B8009
:102B80008230F9F46FE573E1CE0101960E94B31330
:102B900064E275E0CE018B579E4F0E94067DAE0128
:102BA0004F5F5F4F6EE0CE018B579E4F0E94B4483F
:102BB000CE018B579E4F0E94A67CCE0101960E94AB
:102BC0000F0C67E17DE0CE0101960E94A40C6EE23D
:102BD00075E0CE018F569E4F0E94067D67E375E03B
:102BE000CE0185579E4F0E94067D68E275E0CE01BA
:102BF0008B579E4F0E94067DCE0101967C0102E01C
:102C000020E0AE014F565E4FBE0165577E4F8C5798
:102C10009E4F0E941314CE018B579E4F0E94A67C9C
:102C2000CE0185579E4F0E94A67CCE018F569E4FA7
:102C30000E94A67CC7010E94B72E6BE97EE0C70107
:102C40000E94A40C6DE275E0CE018F569E4F0E944B
:102C5000067D66E375E0CE0185579E4F0E94067D96
:102C60006FE375E0CE018B579E4F0E94067DC70132
:102C700029E0AE014F565E4FBE0165577E4F8C571F
:102C80009E4F0E941314CE018B579E4F0E94A67C2C
:102C9000CE0185579E4F0E94A67CCE018F569E4F37
:102CA0000E94A67CC7010E94B72E83E593E10E9493
:102CB000E97F81113FC081E394E10E94E97F8111A6
:102CC00039C06FE170E1C7010E94A40C6DE275E0AC
:102CD000CE018F569E4F0E94067D66E375E0CE01C1
:102CE00085579E4F0E94067D65E475E0CE018B57A7
:102CF0009E4F0E94067DC70103E029E0AE014F56BA
:102D00005E4FBE0165577E4F8C579E4F0E94131435
:102D1000CE018B579E4F0E94A67CCE0185579E4FB9
:102D20000E94A67CCE018F569E4F0E94A67CC701B2
:102D30000E94B72ECA56DE4F0FB6F894DEBF0FBE04
:102D4000CDBFDF91CF910F91FF90EF900895CF937A
:102D5000DF932EED289FE001299FD00D1124CE0195
:102D60008F589D4E0E941B80811107C0CE018B5849
:102D70009D4E0E94E97F811101C080E0DF91CF91DB
:102D8000089580E090E00E94A71681111DC081E0A7
:102D900090E00E94A716811117C082E090E00E9487
:102DA000A716811111C081EF9DE00E94E97F81117A
:102DB0000BC085E79FE00E94E97F811105C089EF84
:102DC00090E10E94E97F811181E00895CF93DF9324
:102DD0002EED289FE001299FD00D1124CE018F58A0
:102DE0009D4E0E941B80813039F4CE018B589D4E40
:102DF0000E94E97F811101C080E0DF91CF910895A9
:102E000080E090E00E94E61681112FC081E090E002
:102E10000E94E616811129C082E090E00E94E61629
:102E2000811123C080E090E00E94A71681111DC08F
:102E300081E090E00E94A716811117C082E090E027
:102E40000E94A716811111C081EF9DE00E94E97FC9
:102E500081110BC085E79FE00E94E97F811105C0C9
:102E600089EF90E10E94E97F811181E0089580E07F
:102E700090E00E94E61681110BC081E090E00E9474
:102E8000E616811105C082E090E00E94E6168111ED
:102E900081E008950E94C116882301F10E9437172E
:102EA00081111CC060E08AE00E94979367E080E98E
:102EB00098E00E9487646091661670916716809111
:102EC0006816909169160E9410BCCB010E94519522
:102ED0006BE475E080E998E00E941E7F0E9437173E
:102EE000882309F44AC00E94C11660E0811111C014
:102EF0008AE00E94979367E080E998E00E948764E7
:102F000060916216709163168091641690916516B7
:102F100029C08AE00E9497938DEF95E10E94E97F96
:102F2000811105C067E080E998E00E9487646091A4
:102F300062167091631680916416909165160E94D6
:102F400010BCCB010E9451956DE475E080E998E0DA
:102F50000E941E7F609166167091671680916816B8
:102F6000909169160E9410BCCB010E9451956BE4B0
:102F700075E080E998E00C941E7F0895CF93DF936D
:102F8000EC016130710579F02CF4672B91F46FE45A
:102F900075E011C06230710549F06330710549F484
:102FA0006CE575E008C063E575E005C067E575E0B0
:102FB00002C066E974E0CE010E94067DCE01DF9179
:102FC000CF910895CF93DF93EC010A9730F46AE430
:102FD00075E080E998E00E94887ECE01DF91CF9174
:102FE0000C9451951092FB161092FA1688E893E112
:102FF00090934719809346190895CF93DF93EC017E
:103000008091540290915502019729F40E94D7377C
:103010000E94F2171DC00E94B5378823B9F00E94A4
:10302000D7378091FA169091FB1601979093FB1673
:103030008093FA16880F991FFC01E254F94E8081A3
:10304000918190934719809346191BC00E94D737EE
:103050002091FA163091FB16F901EE0FFF1FE25492
:10306000F94E809146199091471991838083D093AE
:103070004719C09346192F5F3F4F3093FB1620939B
:10308000FA16DF91CF9108950E94C637811103C0CF
:103090000E94B537811181E008952F923F924F929F
:1030A0005F926F927F928F929F92AF92BF92CF92D8
:1030B000DF92EF92FF920F931F93CF93DF9300D095
:1030C00000D0CDB7DEB79E838D832D8144E66FE1BE
:1030D00076E08CE296E00E946D8A0E94371781119B
:1030E00005C00E940017811130C104C00E94C116A2
:1030F0008823B9F38BE54D815E81849F8001859F94
:10310000100D1124C8018752944F0E94F9804B0181
:103110005C01C8018153944F0E94F9802B013C014E
:10312000C8018B53944F0E94F98069837A838B8303
:103130009C83C8018456944F1C01FC01C5A0D6A0F5
:10314000E7A0F0A4C8018554944F0E94F9809B0128
:10315000AC01F10161A172A183A194A18701760163
:103160000E941D8B61E080E00E94979368ED71E101
:1031700080E998E00E94887E62E083E00E94979355
:1031800065ED71E180E998E00E94887E4091281702
:103190005091291760912A1770912B1780E998E0B8
:1031A0000E94859561ED71E180E998E00E94887E3A
:1031B00062E08DE00E9497936FEC71E180E998E006
:1031C0000E94887E49815A816B817C8180E998E0E8
:1031D0000E9485956AEC71E180E998E00E94887E02
:1031E0008FEF95E10E94E97F882309F440C062E0F7
:1031F00080E00E94979366EC71E180E998E00E947C
:10320000887E63E080E00E94979362EC71E180E940
:1032100098E00E94887E63E083E00E9497936FEBC2
:1032200071E180E998E00E94887EB301A20180E903
:1032300098E00E9485956BEB71E180E998E00E942F
:10324000887E63E08CE00E94979368EB71E180E9EF
:1032500098E00E94887EB501A40180E998E00E9470
:10326000859563EB71E180E998E00E94887E0E9479
:103270000F8B9B01AC0160912817709129178091E9
:103280002A1790912B17E2E0EE2E05E00E94DA89D2
:103290000E9487470E944418882309F4C3C04091C4
:1032A00028175091291760912A1770912B178BE5D9
:1032B0002D813E81829F8001839F100D1124C801C2
:1032C0008554944F0E943C810E94E736882359F030
:1032D00024E64D815E81249FC001259F900D11241D
:1032E0008454944F85C08FEF95E10E94E97F882335
:1032F00001F120E030E040E450E460912817709143
:10330000291780912A1790912B170E942DBBAB0192
:10331000BC01C8018B53944F0E943C8124E6ED818F
:10332000FE812E9FC0012F9F900D11248354944F36
:103330005FC08DEF95E10E94E97F882391F12D8197
:103340003E8123303105ACF12CC08BE52D813E81CF
:10335000829F8001839F100D1124C8018153944FD7
:103360000E94F9804B015C01A8014456544F3A0178
:10337000FA01C5A0D6A0E7A0F0A4C8018554944FD7
:103380000E94F9808B019C01F30141A152A163A12C
:1033900074A181E08F9387E196E00E94E08B0F900B
:1033A00079CF0E94C63781110E94F21786E993E116
:1033B0001FC020E030E040E450E460912817709195
:1033C000291780912A1790912B170E942DBBAB01D2
:1033D000BC01C8018B53944F0E943C818D819E811A
:1033E0000E946C36F4E68F9FC00111248554944FDF
:1033F00026960FB6F894DEBF0FBECDBFDF91CF91FA
:103400001F910F91FF90EF90DF90CF90BF90AF9002
:103410009F908F907F906F905F904F903F902F90F4
:103420000C94FD1726960FB6F894DEBF0FBECDBFE5
:10343000DF91CF911F910F91FF90EF90DF90CF9090
:10344000BF90AF909F908F907F906F905F904F90C4
:103450003F902F90089587EB95E00E94ED8A8BEFC7
:1034600095E10E94E97F882331F089EF95E10E9480
:10347000E97F811113C08BEF95E10E94E97F8111F3
:1034800014C089EF95E10E94E97F882371F0809153
:10349000720244E050E067EA75E020C08091720259
:1034A00044E050E06FEA75E019C08BEF95E10E94AF
:1034B000E97F882369F089EF95E10E94E97F811116
:1034C00007C08091720244E050E06FE975E006C0E9
:1034D0008091720244E050E067E975E090E00E945C
:1034E00032200E9444188823F9F0809138178130E7
:1034F00059F028F0823069F0833081F008951092FD
:1035000072028FE993E10EC0809372028EE993E11B
:1035100009C08093720285EE9CE004C08093720221
:103520008DE19CE00C94FD17089583E096E00E94E5
:10353000ED8A8BEF95E10E94E97F42E050E064EC78
:103540007BE090E00E9432200E944418882399F189
:1035500080913817882319F0813021F1089560E0B7
:103560008BEF95E10E94038080EC9CE00E94A2809A
:10357000BC0185E69CE00E94CF8086EC9CE00E9426
:10358000A280BC018BE69CE00E94CF8081E69CE09B
:103590000E94BE280E94C63781110E94F21786E958
:1035A00093E107C061E08BEF95E10E94038081E821
:1035B0009CE00C94FD17089580EF95E00E94ED8A41
:1035C00089EF95E10E94E97F42E050E064EC7BE006
:1035D00090E00E9432200E944418882399F1809143
:1035E0003817882319F0813021F1089560E089EFC0
:1035F00095E10E9403808AE09CE00E94A280BC01C9
:103600008FEA9BE00E94CF8080E19CE00E94A28034
:10361000BC0185EB9BE00E94CF808BEA9BE00E947F
:10362000BE280E94C63781110E94F21786E993E1F5
:1036300007C061E089EF95E10E94038089EB9BE080
:103640000C94FD170895AF92BF92CF92DF92EF9244
:10365000FF920F931F93CF93DF9300D000D0CDB78D
:10366000DEB77C01BC01CE0101960E94BE1765EE5B
:1036700075E0CE0101960E94C38ACE0101960E9498
:10368000A67C0E94598A8BE58E9D80018F9D100D2E
:103690001124C8018D51944F6C010456144FF80148
:1036A000E55BFF4FA080B1800E944D80F801E75B91
:1036B000FF4FA501BC01808191810E9447230E9498
:1036C0004418882389F06091401970914119C6010E
:1036D0000E94788024E62E9DC0012F9D900D11241C
:1036E0008D53944F0E94FD1726960FB6F894DEBFB7
:1036F0000FBECDBFDF91CF911F910F91FF90EF9043
:10370000DF90CF90BF90AF900895AF92BF92CF92CD
:10371000DF92EF92FF920F931F93CF93DF9300D02E
:1037200000D0CDB7DEB75C01BC01CE0101960E948E
:10373000BE1765ED75E0CE0101960E94C38ACE01E9
:1037400001960E94A67C8BE58A9D80018B9D100DC1
:1037500011240555144FC8010E941B8021E030E060
:10376000813011F420E030E042E050E064EC7BE096
:10377000C9010E9432200E944418882309F4B5C070
:1037800080913817882319F0813019F00CC061E05E
:1037900007C082E0A816B10414F460E001C062E042
:1037A000C8010E943580C8010E941B8081111BC086
:1037B0002BE52A9DC0012B9D900D11248456944F1A
:1037C000FC01E35BFF4FE080F18020911E1A3091F5
:1037D0001F1AE21AF30A3296C080D18080911C1A17
:1037E00090911D1A1FC0C8010E941B802BE58230DA
:1037F000E1F42A9DC0012B9D900D11248456944F15
:10380000FC01E35BFF4FE080F1802091181A3091BA
:10381000191AE21AF30A3296C080D1808091161AE2
:103820009091171AC81AD90A0FC02A9DC0012B9D62
:10383000900D11248456944FFC01E35BFF4FE08010
:10384000F1803296C080D180A601B701C8010E94E4
:103850001C298BE58A9DF0018B9DF00D1124E05011
:10386000F44F80819181019731F489EF95E10E94B5
:10387000E97F8823E1F08BE58A9DF0018B9DF00DB7
:103880001124E050F44F80819181039731F48BEF44
:1038900095E10E94E97F8823C9F00E94C637811113
:1038A0000E94F21786E993E10E94FD171EC0C8012D
:1038B0000E941B80682F8BEA9BE00E943580A60146
:1038C000B7018BEA9BE00E941C29D5CFC8010E945A
:1038D0001B80682F81E69CE00E943580A601B7011D
:1038E00081E69CE00E941C29D8CF26960FB6F8945A
:1038F000DEBF0FBECDBFDF91CF911F910F91FF9023
:10390000EF90DF90CF90BF90AF9008950F931F93EB
:10391000CF93DF9300D000D0CDB7DEB78C01BC01D0
:10392000CE0101960E94BE1767EC75E0CE010196AC
:103930000E94C38ACE0101960E94A67C0E94598AE9
:103940002BE5209FC001219F900D11248456944F98
:10395000FC01E15BFF4F6081718132978081918131
:103960000E9498490E944418882391F10130110562
:1039700019F489EF95E105C00330110531F48BEF9F
:1039800095E10E94E97F8823A9F02BE5209FC001E3
:10399000219F900D11248555944F0E94F33624E603
:1039A000209FC001219F900D11248154944F0E94AB
:1039B000FD170EC09801215031094BE5429FC0010F
:1039C000439F900D11248555944F0E94F336DDCF0F
:1039D00026960FB6F894DEBF0FBECDBFDF91CF9114
:1039E0001F910F910895CF93DF9324E831E0829FD8
:1039F000E001839FD00D929FD00D112440E062E33F
:103A0000CE01895E924F0E94C62EC753D24F1882B4
:103A100088E893E1DF91CF910C94FD1780E998E05D
:103A20000E94326660E080E00E94979362E675E053
:103A300080E998E00E941E7F8BE695E00C948493C9
:103A400080E998E00E94326660E080E00E949793EF
:103A500062E675E080E998E00E941E7F8BE695E0C3
:103A60000C948493EF92FF920F931F93CF93DF9365
:103A700000D000D0CDB7DEB77C018A01CE0101961F
:103A80000E94FD7CB8016F5F7F4FCE0101960E94BE
:103A90000E7CBC01C7010E94FD7CCE0101960E94F4
:103AA000A67CC70126960FB6F894DEBF0FBECDBF29
:103AB000DF91CF911F910F91FF90EF9008957F922A
:103AC0008F929F92AF92BF92CF92DF92EF92FF922E
:103AD0000F931F93CF93DF93CDB7DEB72C970FB61D
:103AE000F894DEBF0FBECDBF8C0169E775E0CE0153
:103AF00001960E94067DA801BE016F5F7F4FCE0137
:103B000007960E94321D69E677E0CE0107960E9473
:103B1000C38ACE0107960E94A67CCE0101960E9420
:103B2000A67C0E94598AE0911E17E33028F4F0E049
:103B3000E95CFC4F908002C099249A9484E891E05B
:103B4000089F6001099FD00C189FD00C1124A12C54
:103B5000B12CE12CF12C85E8C81A8EEFD80AC601E9
:103B60008A0D9B1D8456944F0E941B80891116C09C
:103B700081E28E9D90018F9D300D112444E851E02B
:103B8000049FC001059F900D149F900D1124820F7A
:103B9000931F8E5C924F0E941B800BC08FEFE81A20
:103BA000F80A81E2A80EB11C83E0E816F104B9F628
:103BB0008FEFE82EF12CE0911E17E33028F4F0E0AF
:103BC000E95CFC4F708002C077247A94812C912CA0
:103BD000A12CB12CC601880D991D8456944F0E94CA
:103BE0001B80871116C081E28A9D90018B9D300D4C
:103BF000112444E851E0049FC001059F900D149FDB
:103C0000900D1124820F931F825D924F0E941B80A2
:103C10000BC08FEFA81AB80A81E2880E911C83E0CE
:103C2000A816B104B9F68FEFB70190E00E94984949
:103C30000E944418882351F024E6209FC001219F50
:103C4000900D1124885D9B4F0E94FD172C960FB696
:103C5000F894DEBF0FBECDBFDF91CF911F910F91C2
:103C6000FF90EF90DF90CF90BF90AF909F908F909C
:103C70007F9008957F928F929F92AF92BF92CF9242
:103C8000DF92EF92FF920F931F93CF93DF93CDB705
:103C9000DEB72C970FB6F894DEBF0FBECDBF8C01F8
:103CA00069E775E0CE0101960E94067DA801BE017C
:103CB0006F5F7F4FCE0107960E94321D6BE577E064
:103CC000CE0107960E94C38ACE0107960E94A67C69
:103CD000CE0101960E94A67C0E94598AE0911E178F
:103CE000E33028F4F0E0E95CFC4F908002C09924B6
:103CF0009A9484E891E0089F6001099FD00C189F76
:103D0000D00C1124A12CB12CE12CF12C85E8C81A7F
:103D10008EEFD80AC6018A0D9B1D8456944F0E94CF
:103D20001B80891116C081E28E9D90018F9D300D00
:103D3000112444E851E0049FC001059F900D149F99
:103D4000900D1124820F931F865D924F0E941B805D
:103D50000BC08FEFE81AF80A81E2A80EB11C83E0CD
:103D6000E816F104B9F68FEFE82EF12CE0911E175A
:103D7000E33028F4F0E0E95CFC4F708002C0772467
:103D80007A94812C912CA12CB12CC601880D991DFF
:103D90008456944F0E941B80871116C081E28A9D31
:103DA00090018B9D300D112444E851E0049FC00127
:103DB000059F900D149F900D1124820F931F8A5D13
:103DC000924F0E941B800BC08FEFA81AB80A81E2A5
:103DD000880E911C83E0A816B104B9F68FEFB701E5
:103DE00090E00E9498490E9444188823D1F0809165
:103DF00036179091371790931B1780931A1780915D
:103E000034179091351790931D1780931C1724E653
:103E1000209FC001219F900D1124895D9B4F0E941E
:103E2000FD172C960FB6F894DEBF0FBECDBFDF9105
:103E3000CF911F910F91FF90EF90DF90CF90BF90A7
:103E4000AF909F908F907F900895CF92DF92EF92E6
:103E5000FF920F931F93CF93DF93CDB7DEB72C97CD
:103E60000FB6F894DEBF0FBECDBF8C0184E891E0A1
:103E7000089F6001099FD00C189FD00C1124C60127
:103E80008F50924F7C010E94E97F69E775E088239B
:103E9000D9F1CE0101960E94067DA801BE016F5F97
:103EA0007F4FCE0107960E94321D67E077E0CE017A
:103EB00007960E94C38ACE0107960E94A67CCE0177
:103EC00001960E94A67C0E94458A0E94C6378823DC
:103ED00091F060E0C7010E940380C6018F59914FA5
:103EE0000E943287C6018A59914F0E94328788E822
:103EF00093E10E94FD170E94B5378823A1F188E85D
:103F000093E10E94FD172FC0CE0101960E94067D0D
:103F1000A801BE016F5F7F4FCE0107960E94321D40
:103F20006CEF76E0CE0107960E94C38ACE01079619
:103F30000E94A67CCE0101960E94A67C0E94458A22
:103F40000E94C6378823B9F261E0C7010E9403804E
:103F50000E94F21724E6209FC001219F900D11249A
:103F600087519C4FC6CF2C960FB6F894DEBF0FBE7C
:103F7000CDBFDF91CF911F910F91FF90EF90DF9018
:103F8000CF9008958091401990914119892B51F457
:103F900063E083E00E9497936FEB76E080E998E01E
:103FA0000C94887E08954F925F926F927F92AF92A9
:103FB000BF92CF92DF92EF92FF920F931F93CF9316
:103FC000DF9300D000D0CDB7DEB73B016A015901C5
:103FD000BC01CE0101960E94FD7CB301CE01019689
:103FE0000E94C38ACE0101960E94A67C0E94598A33
:103FF000F6014680578060847184C6010E94F98072
:104000009B01AC01F60162817381848195818301FA
:1040100072010E94F68C0E944418882371F040912E
:1040200028175091291760912A1770912B17C601F4
:104030000E943C81C5010E94FD1726960FB6F89498
:10404000DEBF0FBECDBFDF91CF911F910F91FF90CB
:10405000EF90DF90CF90BF90AF907F906F905F9088
:104060004F900895AF92BF92CF92DF92EF92FF925E
:104070000F931F93CF93DF931F92CDB7DEB78B01C2
:104080006A01A0903917B0903A17A80EB91E21E026
:10409000622F80E029830E9497936AEA76E080E9A4
:1040A00098E00E94887E29812F5F243089F7C6011D
:1040B00001977C01AC14BD0454F0809139179091A4
:1040C0003A17019790933A17809339175701B7FE23
:1040D0000BC08091391790913A17019690933A1737
:1040E00080933917A12CB12CA0923817AA20B1F0D7
:1040F000AA94F801EA0DF11DEA0DF11D6591749184
:104100008CEF96E10E941DC163E080E00E949793CE
:104110006CEF76E180E998E00E941E7F809138176D
:10412000282F30E02E153F05B1F08F5FF801E80F22
:10413000F11DE80FF11D659174918CEF96E10E94DD
:104140001DC161E080E00E9497936CEF76E180E909
:1041500098E00E941E7F80913817F801E80FF11D4A
:10416000E80FF11D659174918CEF96E10E941DC1DD
:1041700062E080E00E9497936BE775E080E998E049
:104180000E941E7F6CEF76E180E998E00F90DF914E
:10419000CF911F910F91FF90EF90DF90CF90BF9044
:1041A000AF900C941E7F0F931F93CF93DF93CDB7E7
:1041B000DEB72C970FB6F894DEBF0FBECDBF8C01D3
:1041C00069E775E0CE0101960E94067DA801BE0157
:1041D0006F5F7F4FCE0107960E94321D63E877E044
:1041E000CE0107960E94C38ACE0107960E94A67C44
:1041F000CE0101960E94A67C24E831E0029FC00116
:10420000039F900D129F900D112463E6895E924FDB
:104210000E942A8642E050E064EC7BE090E00E943D
:1042200032200E9444188823F1F0809138178823A7
:1042300059F08130C1F424E6209FC001219F900DE8
:104240001124845D9B4F0DC02EED209FC001219F46
:10425000900D112463E68D559E4E0E94D08588E80E
:1042600093E10E94FD172C960FB6F894DEBF0FBEA7
:10427000CDBFDF91CF911F910F910895EF92FF92E3
:104280000F931F93CF93DF93CDB7DEB72C970FB665
:10429000F894DEBF0FBECDBF7C0169E775E0CE01AB
:1042A00001960E94067DA701BE016F5F7F4FCE0180
:1042B00007960E94321D69E477E0CE0107960E94BE
:1042C000C38ACE0107960E94A67CCE0101960E9469
:1042D000A67CE0911E17E33028F4F0E0E95CFC4F87
:1042E000608101C06FEF84E891E0E89E8001E99E63
:1042F000100DF89E100D1124095E124FC8010E9486
:104300002A8642E050E064EC7BE090E00E9432209C
:104310000E944418882301F180913817882359F0AE
:104320008130D1F424E62E9DC0012F9D900D1124E3
:104330008A5D9B4F0FC0E0911E17E33028F4F0E038
:10434000E95CFC4F608101C06FEFC8010E94D0851D
:1043500088E893E10E94FD172C960FB6F894DEBF13
:104360000FBECDBFDF91CF911F910F91FF90EF90C6
:1043700008950F931F93CF93DF93CDB7DEB72C979C
:104380000FB6F894DEBF0FBECDBF8C0169E775E0B4
:10439000CE0101960E94067DA801BE016F5F7F4F8E
:1043A000CE0107960E94321D66E377E0CE010796A4
:1043B0000E94C38ACE0107960E94A67CCE01019678
:1043C0000E94A67C24E831E0029FC001039F900D6B
:1043D000129F900D1124895E924F0E94C28281111A
:1043E00038C048E050E066E277E087E090E00E9465
:1043F00032200E944418882309F467C0809138173E
:1044000090E08830910508F060C0FC018827EE56E6
:10441000FF4F8F4F0C94FCBA24E6209FC001219FD0
:10442000900D1124855E9B4F4EC024E6209FC00155
:10443000219F900D1124845E9B4F45C024E6209F50
:10444000C001219F900D1124835E9B4F3CC082E0F0
:1044500027C046E050E06AE177E085E090E00E9406
:1044600032200E944418882381F1809138178330CC
:10447000B1F028F48823F9F0823091F026C084301E
:1044800059F0853011F524E6209FC001219F900D41
:104490001124865E9B4F17C010921E1703C081E047
:1044A00080931E1724E6209FC001219F900D1124A8
:1044B0008B5D9B4F08C024E6209FC001219F900D7B
:1044C0001124855D9B4F0E94FD172C960FB6F89422
:1044D000DEBF0FBECDBFDF91CF911F910F91089529
:1044E0000F931F93CF93DF93CDB7DEB72C970FB603
:1044F000F894DEBF0FBECDBF8C0169E775E0CE0139
:1045000001960E94067DA801BE016F5F7F4FCE011C
:1045100007960E94321D69EE76E0CE0107960E9452
:10452000C38ACE0107960E94A67CCE0101960E9406
:10453000A67C42E050E065EE76E081E090E00E94EB
:1045400032200E9444188823C9F0809138178823AC
:1045500059F0813099F424E6209FC001219F900DED
:10456000112483519C4F08C024E6209FC001219F45
:10457000900D112487519C4F0E94FD172C960FB669
:10458000F894DEBF0FBECDBFDF91CF911F910F9189
:1045900008950F931F93CF93DF93CDB7DEB72C977A
:1045A0000FB6F894DEBF0FBECDBF8C0124E831E01A
:1045B000029FC001039F900D129F900D11248F50F8
:1045C000924F0E94E97F882309F44AC069E775E0A9
:1045D000CE0101960E94067DA801BE016F5F7F4F4C
:1045E000CE0107960E94321D62ED76E0CE0107965D
:1045F0000E94C38ACE0107960E94A67CCE01019636
:104600000E94A67C8091730243E050E06CEC76E05F
:1046100090E00E9432200E944418882369F1809122
:104620003817813071F0C0F0823031F58093730219
:1046300024E6209FC001219F900D11248C5D9B4F8B
:1046400019C08093730224E6209FC001219F900D22
:1046500011248C5C9B4F0EC082E08093730202C0D9
:104660000E94F21724E6209FC001219F900D112483
:104670008E5C9B4F0E94FD172C960FB6F894DEBF00
:104680000FBECDBFDF91CF911F910F910895EF9293
:104690000F93CF93DF9300D01F92CDB7DEB70E9468
:1046A000388D63E080E00E94979361EA76E080E9CC
:1046B00098E00E94887E409140195091411960E035
:1046C00070E02AE080E998E00E94C17E6CE976E023
:1046D00080E998E00E94887E0E942E8DBC01990F8F
:1046E000880B990B0E946BC19B01AC018091401912
:1046F00090914119BC0180E090E029833A834B837B
:104700005C830E9469C123E0E22E08E029813A819E
:104710004B815C810E94DA890F900F900F900F906F
:10472000DF91CF910F91EF9008950F931F93CF9347
:10473000DF93CDB7DEB72C970FB6F894DEBF0FBE70
:10474000CDBF8C0169E775E0CE0101960E94067D20
:10475000A801BE016F5F7F4FCE0107960E94321DF8
:1047600067EB77E0CE0107960E94C38ACE010796D9
:104770000E94A67CCE0101960E94A67C0E94598AC6
:1047800040EA55E060E070E080E090E00E9447235E
:104790000E94C21F0E94C6378823D9F02091401979
:1047A00030914119ACE3B0E00E94A9C2AB01BC0159
:1047B00024E831E0029FC001039F900D129F900DED
:1047C0001124895E924F0E94F42E88E893E10E94A2
:1047D000FD170E94B537882321F088E893E10E94F5
:1047E000FD172C960FB6F894DEBF0FBECDBFDF913C
:1047F000CF911F910F910895EF92FF920F931F9306
:10480000CF93DF93CDB7DEB72C970FB6F894DEBF0A
:104810000FBECDBF7C0169E775E0CE0101960E9415
:10482000067DA701BE016F5F7F4FCE0107960E94F4
:10483000321D65EA77E0CE0107960E94C38ACE0159
:1048400007960E94A67CCE0101960E94A67C0E943B
:10485000598A40EA55E060E070E080E090E00E9414
:1048600047230E94C21F0E94C637882309F442C012
:104870002091401930914119ACE3B0E00E94A9C2E7
:104880006115710581059105D9F024E831E0E29EBA
:10489000A001E39E500DF29E500D11249A01245662
:1048A000344FF901E35DFD4FA1E0A08331966083B1
:1048B000718382839383CA018B53924F0E941A940F
:1048C00084E891E0E89E8001E99E100DF89E100DAD
:1048D0001124095E124F24E640E062E3C8010E9401
:1048E000268441E062E3C8010E94C62E88E893E175
:1048F0000E94FD170E94B537882321F088E893E1D4
:104900000E94FD172C960FB6F894DEBF0FBECDBFE8
:10491000DF91CF911F910F91FF90EF900895CF926B
:10492000DF92EF92FF920F931F93CF93DF9300D00C
:1049300000D0CDB7DEB76B018A017901BC01CE0191
:1049400001960E94FD7CB601CE0101960E94C38AA9
:10495000CE0101960E94A67C0E94598AF801C4806B
:10496000D580C8010E944D80A601BC01F80182815A
:1049700093810E9447230E944418882351F060913C
:10498000401970914119C8010E947880C7010E94A6
:10499000FD1726960FB6F894DEBF0FBECDBFDF9190
:1049A000CF911F910F91FF90EF90DF90CF900895DE
:1049B000EF920F93CF93DF9300D01F92CDB7DEB766
:1049C00050E070E090E00E94388D63E080E00E944B
:1049D000979363E976E080E998E00E94887E4091B1
:1049E00040195091411960E070E02AE080E998E0B8
:1049F0000E94C17E6EE876E080E998E00E94887EA1
:104A00000E942E8DBC01990F880B990B0E946BC1DF
:104A10009B01AC018091401990914119BC0180E04B
:104A200090E029833A834B835C830E9469C123E031
:104A3000E22E08E029813A814B815C810E94DA896B
:104A40000F900F900F900F90DF91CF910F91EF90FB
:104A50000895EF92FF920F931F93CF93DF93CDB7FB
:104A6000DEB72C970FB6F894DEBF0FBECDBF7C012A
:104A700069E775E0CE0101960E94067DA701BE019F
:104A80006F5F7F4FCE0107960E94321D64E977E089
:104A9000CE0107960E94C38ACE0107960E94A67C8B
:104AA000CE0101960E94A67C84E891E0E89E8001F8
:104AB000E99E100DF89E100D1124095E124F63E659
:104AC000C8010E94578344E6682F80E00E94D824E2
:104AD0000E944418882359F02091401942E063E66F
:104AE000C8010E94268488E893E10E94FD172C9655
:104AF0000FB6F894DEBF0FBECDBFDF91CF911F91EF
:104B00000F91FF90EF9008958F929F92AF92CF9266
:104B1000EF920F931F93CF93DF93CDB7DEB72C9710
:104B20000FB6F894DEBF0FBECDBF8C0169E775E00C
:104B3000CE0101960E94067DA801BE016F5F7F4FE6
:104B4000CE0107960E94321D66E777E0CE010796F8
:104B50000E94C38ACE0107960E94A67CCE010196D0
:104B60000E94A67CE0911E17E33028F4F0E0E95C97
:104B7000FC4F608101C06FEF24E831E0029FC0016B
:104B8000039F900D129F900D11249C01295E324FBE
:104B90004901C9010E94578344E6682F80E00E94C2
:104BA000D8240E9444188823E9F0A0904019C090AE
:104BB0003417E090361700911C1720911A17E091D6
:104BC0001E1743E04E0FE33028F4F0E0E95CFC4FA1
:104BD000608101C06FEFC4010E94C28488E893E144
:104BE0000E94FD172C960FB6F894DEBF0FBECDBF06
:104BF000DF91CF911F910F91EF90CF90AF909F9049
:104C00008F9008952F923F924F925F926F927F9272
:104C10008F929F92AF92BF92CF92DF92EF92FF92CC
:104C20000F931F93CF93DF93CDB7DEB73C014B01BA
:104C3000CA01B901A8019701860175012E883F8834
:104C4000488C598C0E941D8B61E080E00E949793F4
:104C5000B30180E998E00E94887EB201A10180E959
:104C600098E00E9485956BE475E080E998E00E94E9
:104C70001E7F62E080E00E949793B40180E998E093
:104C80000E94887E209128173091291740912A1779
:104C900050912B17C201B1010E942DBBAB01BC0189
:104CA00080E998E00E9485956BE475E080E998E0E2
:104CB0000E941E7F63E080E00E94979360E876E0A8
:104CC00080E998E00E94887E20E030E0A9016091B0
:104CD00028177091291780912A1790912B170E94FD
:104CE000CCBC87FD06C06DE775E080E998E00E94C6
:104CF0001E7F409128175091291760912A177091B3
:104D00002B1780E998E00E9485956EE776E080E9B0
:104D100098E00E94887E0E940F8B9B01AC016091FD
:104D200028177091291780912A1790912B17E3E08B
:104D3000EE2E0EE00E94DA89DF91CF911F910F9144
:104D4000FF90EF90DF90CF90BF90AF909F908F90AB
:104D50007F906F905F904F903F902F900C9487477B
:104D60006F927F928F929F92AF92BF92CF92DF927B
:104D7000EF92FF920F931F93CF93DF93EC018C017F
:104D80000C5A1E4FF801E080F1806C01FAEBCF0E57
:104D9000D11CC6010E941B809E0142E1849F200D10
:104DA000311D1124C90184529F4F0E944D80E81685
:104DB000F90640F0C6010E941B80FE01E159FE4F3A
:104DC00090E0C6C1F801A080B1807E01FCEDEF0E3D
:104DD000F11CC7010E944D80A816B90631F4FE01EE
:104DE000E159FE4F1182108231C0F801A080B180DC
:104DF000C7010E944D808A159B0508F085C1F80106
:104E0000E080F180CE0182519F4F0E944D808E152F
:104E10009F0508F098C178C1F80160807180AF2CBF
:104E2000B12CEA9CC001EB9C900D112484529F4F41
:104E30008C0F9D1F0E944D806816790608F06EC188
:104E4000F394C6010E941B80F81630F38E010159BD
:104E50001E4FF801E080F180C6010E941B8090E0A7
:104E60009E012F583E4F5901E816F90609F49BC0E0
:104E7000F8012081318142E1F42EF29EC001F39EBF
:104E8000900D112484529F4F8C0F9D1F0E944D80C6
:104E90004C01F801208131812F5F3F4FF29EC0010C
:104EA000F39E900D112484529F4F8C0F9D1F0E94E2
:104EB0004D80F801208131818816990619F02F5F05
:104EC0003F4F24C0F29EC001F39E900D11248452E6
:104ED0009F4F8C0F9D1F0E944D804C01F801208137
:104EE00031812E5F3F4FF29EC001F39E900D112441
:104EF00084529F4F8C0F9D1F0E944D80F80120818E
:104F000031818816990631F02E5F3F4FF5013183CC
:104F1000208350C0F29EC001F39E900D1124845254
:104F20009F4F8C0F9D1F0E944D804C01F8012081E6
:104F300031812D5F3F4FF29EC001F39E900D1124F1
:104F400084529F4F8C0F9D1F0E944D80F80120813D
:104F500031818816990619F02D5F3F4FD7CFF29E09
:104F6000C001F39E900D112484529F4F8C0F9D1F02
:104F70000E944D804C01F801808191810496F89E39
:104F80009001F99E300D1124C90184529F4F8C0F5E
:104F90009D1F0E944D808816990629F0F801808196
:104FA0009181049604C0C6010E941B8090E0F50127
:104FB00091838083F80120813181CE018D589E4FED
:104FC0006C012115310509F49BC092E1F92EF29E86
:104FD000C001F39E900D112484529F4F8C0F9D1F92
:104FE0000E944D805C01F801808191810197F89EBB
:104FF0009001F99E300D1124C90184529F4F8C0FEE
:105000009D1F0E944D80F80120813181A816B906AC
:1050100019F02150310949C0F29EC001F39E900D54
:10502000112484529F4F8C0F9D1F0E944D805C0164
:10503000F801808191810297F89E9001F99E300DD0
:105040001124C90184529F4F8C0F9D1F0E944D80D7
:10505000F80120813181A816B90619F022503109D2
:1050600024C0F29EC001F39E900D112484529F4FE4
:105070008C0F9D1F0E944D805C01F8018081918101
:105080000397F89E9001F99E300D1124C9018452B6
:105090009F4F8C0F9D1F0E944D80F8012081318110
:1050A000A816B90631F023503109F6013183208367
:1050B00056C0F29EC001F39E900D112484529F4F62
:1050C0008C0F9D1F0E944D805C01F80180819181B1
:1050D0000497F89E9001F99E300D1124C901845265
:1050E0009F4F8C0F9D1F0E944D80A816B90641F05E
:1050F000F801808191810497F601918380832FC00C
:10510000F601118210822BC0FF24F39482E1E82E75
:105110004E01F1E98F1AFEEF9F0A93CEF8016080ED
:10512000718095012F5F3F4FE29EC001E39E900D7D
:10513000112484529F4F8C0F9D1F0E944D80681632
:10514000790648F07DCE81E090E0FE01E159FE4F06
:10515000918380837BCEF401B182A08271CEDF91F6
:10516000CF911F910F91FF90EF90DF90CF90BF9064
:10517000AF909F908F907F906F900895EF92FF92E5
:105180000F931F93CF93DF93EC010E941B8081113B
:105190000CC080911C1A90911D1A8E010E5B1F4F3E
:1051A00020911E1A30911F1A22C0CE010E941B802E
:1051B000813069F4CE0104960E94A2809FAF8EAF29
:1051C000CE010A960E94A280C05CDF4F2CC0CE01A7
:1051D0000E941B80823049F58091161A9091171A0F
:1051E0008E010E5B1F4F2091181A3091191AF80189
:1051F0003183208393838283CE010A960E94A2800A
:105200007C01CE0104960E94A280BC01A701C801C6
:105210000E94AD7FF801808191819FAF8EAFC05C0D
:10522000DF4F8281938199838883DF91CF911F9192
:105230000F91FF90EF900895CF92DF92EF92FF923F
:105240000F931F93CF93DF93EC017B016A010E94C0
:105250001B80882371F0CE010E941B80823049F0B0
:105260001F821E8287E190E0998788871D861C86B1
:105270000CC089EE9FEF9F838E8387E190E0998732
:10528000888785EC9FEF9D878C878BE390E09F87D5
:105290008E87CE010E941B80811109C080911C1A4B
:1052A00090911D1A20911E1A30911F1A1AC0CE011A
:1052B0000E941B80813041F4FFAEEEAEFE01E05C47
:1052C000FF4FD182C08224C0CE010E941B80823059
:1052D000F9F48091161A9091171A2091181A3091AA
:1052E000191A8E010E5B1F4FF801318320839383BF
:1052F0008283A601B701C8010E94AD7FF8018081B9
:1053000091819FAF8EAF8281938132979183808309
:10531000B701CE0104960E94CF80B601CE010A9655
:10532000DF91CF911F910F91FF90EF90DF90CF9081
:105330000C94CF80DF92EF92FF920F931F93CF9345
:10534000DF93CDB7DEB768970FB6F894DEBF0FBE18
:10535000CDBF8C01FC01808191819A838983CE012C
:1053600001960E940213D82EBE01695E7F4FF8019C
:10537000848195810E94AF81BE016B5E7F4FF801F1
:10538000828593850E94AF81BE01635F7F4FF801E4
:10539000808991890E947B81BE01675F7F4FF80100
:1053A000828D938D0E947B81BE016B5F7F4FF801E0
:1053B00084A195A10E947B81BE016F5F7F4FF801A0
:1053C00086A597A50E947B81F801E0ACF1ACFA8A32
:1053D000E98ACE0141960E9402138B8BFFEFEF1AF0
:1053E000FF0AFA8AE98ACE0141960E9402138C8B49
:1053F0006D2DC8010E9435804D895E896F89788D39
:10540000C8010E941C2949855A856B857C85C80185
:105410004A960E943C8149815A816B817C81C801F6
:105420008E960E943C814D855E856F857889C80186
:1054300040960E943C814D815E816F817885C801D4
:1054400084960E943C816B897C89C801C8960E9421
:10545000788068960FB6F894DEBF0FBECDBFDF919F
:10546000CF911F910F91FF90EF90DF9008952F92B1
:105470003F924F925F926F927F928F929F92AF92E4
:10548000BF92CF92DF92EF92FF920F931F93CF9331
:10549000DF93CDB7DEB72A970FB6F894DEBF0FBE05
:1054A000CDBF4C011A012701380188A199A1AAA1F9
:1054B000BBA189839A83AB83BC838CA19DA1AEA140
:1054C000BFA18D839E83AF83B88708A519A5C401AA
:1054D00029873A870E94358029853A85A901B1013B
:1054E000C4010E941C29B601A501C4014A960E946C
:1054F0003C814D815E816F817885C4018E960E94CA
:105500003C81B301A201C40140960E943C814981C3
:105510005A816B817C81C40184960E943C81B801D0
:10552000C401C8962A960FB6F894DEBF0FBECDBF51
:10553000DF91CF911F910F91FF90EF90DF90CF906F
:10554000BF90AF909F908F907F906F905F904F90A3
:105550003F902F900C947880CF92DF92EF92FF9241
:105560000F931F93CF93DF93EC016A017B018C01B2
:10557000075E1F4FC8010E942113683E73408105DA
:105580009105B8F0FE017496B291A2919291829128
:1055900084839583A683B783EC17FD07A9F7C88298
:1055A000D982EA82FB82988D9F5F988FC8010E9402
:1055B0001A946D96CE010E942113683873418105BB
:1055C000910558F0CE01DF91CF911F910F91FF907F
:1055D000EF90DF90CF900C941A94DF91CF911F91B0
:1055E0000F91FF90EF90DF90CF900895EF92FF9290
:1055F0000F931F93CF93DF93EC017C0189E1E80EB9
:10560000F11CC7010E94A7138E01035E1F4FC80142
:105610000E94A713188219821A821B821C821D8283
:105620001E821F82188619861A861B861C861D8676
:105630001E861F86188A198A1A8A1B8AC7010E9429
:105640001A94C8010E941A94188EDF91CF911F916D
:105650000F91FF90EF9008954F925F926F927F921B
:105660008F929F92AF92BF92CF92DF92EF92FF9272
:105670000F931F934A015B016801790129E23CE520
:105680004DE851E4C701B6010E94CAC12B013C019B
:1056900020E030E843E753E4C701B6010E942DBB88
:1056A0009B01AC01C301B2010E949EBB9B01AC01F6
:1056B0006DE478EF8DE290E40E94D1BC21E835E9F9
:1056C00043EC50E40E94CAC1A50194010E94CAC1E2
:1056D0002EEA36EB4AE050E40E94CAC14B015C015D
:1056E00023E333E948E853E4C701B6010E942DBB28
:1056F0009B01AC01C501B4010E949EBB1F910F919B
:10570000FF90EF90DF90CF90BF90AF909F908F90E1
:105710007F906F905F904F9008958F929F92AF927D
:10572000BF92CF92DF92EF92FF920F931F93CF938E
:10573000DF93EC016A017B018A019B0140E050E0AC
:1057400068EC72E40E942C2B4B015C01488159816A
:105750006A817B8197018601CE010E942C2B9B01DF
:10576000AC01C501B4010E942CBBDF91CF911F9108
:105770000F91FF90EF90DF90CF90BF90AF909F90F0
:105780008F9008952F923F924F925F926F927F92E7
:105790008F929F92AF92BF92CF92DF92EF92FF9241
:1057A0000F931F93CF93DF93EC01488359836A8350
:1057B0007B831C012EE7220E311CC1010E942113A4
:1057C000603C77428940910508F488C0FE01E858A2
:1057D000FF4F7E0124E6E20EF11CB291A29192915C
:1057E000829184839583A683B783EE15FF05A9F77D
:1057F00088819981AA81BB81F70180839183A283EB
:10580000B3836E01FCE7CF0ED11CF601808191813C
:10581000019691838083069709F04BC000E010E069
:10582000812C912C5401F70141905190619071901D
:105830007F0120E030E04FE753E4C301B2010E9452
:1058400064C1882351F0A3019201C501B4010E94F3
:105850002DBB4B015C010F5F1F4FEC14FD0419F7CA
:105860000115110569F0B801110F880B990B0E9401
:105870006BC19B01AC01C501B4010E949EBB03C07A
:1058800060E070E0CB01FE01E45AFF4F008111811E
:105890002281338104831583268337833497EC1761
:1058A000FD07A1F76483758386839783F6011182D0
:1058B0001082C101DF91CF911F910F91FF90EF9066
:1058C000DF90CF90BF90AF909F908F907F906F9020
:1058D0005F904F903F902F900C941A94DF91CF914E
:1058E0001F910F91FF90EF90DF90CF90BF90AF90FE
:1058F0009F908F907F906F905F904F903F902F90F0
:105900000895CF92DF92EF92FF920F931F93CF9360
:10591000DF93EC018C0102581F4FC8010E94A713AE
:10592000FE013496CE018C599F4FC12CD12C2FE70C
:10593000E22E23E4F22E40E050E06FE773E4C192E0
:10594000D192E192F192E817F907A9F740835183C8
:1059500062837383FE01E859FF4F40835183628362
:105960007383349640835183628373833496408378
:10597000518362837383349640835183628373833C
:1059800034964083518362837383C8010E941A94C2
:10599000C458DF4F19821882DF91CF911F910F9168
:1059A000FF90EF90DF90CF900895CF93DF93EC01BD
:1059B000865B9E4F0E94F186811106C0CE01815BFD
:1059C0009E4F0E94F186811181E0DF91CF91089571
:1059D0000F931F93CF93DF93C0E0D0E08C01065468
:1059E0001F4FC8010E941B80282F30E02F5F3F4FC0
:1059F000C217D30710F42196F4CFDF91CF911F91F6
:105A00000F9108958F929F92AF92CF92DF92EF9273
:105A1000FF920F931F93CF93DF9300D01F92CDB7C8
:105A2000DEB74C0186549F4F29833A834B835C83B6
:105A30000E94358029813A814B815C81BA01A9019C
:105A4000C40182549F4F0E943C81B801C401885315
:105A50009F4F0E947880B701C40182539F4F0E94DC
:105A60007880B601C4018C529F4F0E9478806A2DC5
:105A7000C40186529F4F0F900F900F900F90DF91AF
:105A8000CF911F910F91FF90EF90DF90CF90AF904B
:105A90009F908F900C9403800F931F93CF93DF936D
:105AA000EC01FB0184819581892BD1F0008111816A
:105AB0006FE974E0C8010E94FEC0892B31F48FEFBA
:105AC000FE01E359FE4F80830BC06CE874E0C8010F
:105AD0000E94FEC0892B21F4FE01E259FE4F108284
