:100000000C94D20D0C940E8F0C94E38E0C94B88E3D
:100010000C948D8E0C94628E0C94378E0C940C8EF6
:100020000C94E18D0C94030E0C94030E0C94030EAF
:100030000C94030E0C94030E0C94030E0C94030EFC
:100040000C94030E0C94030E0C94030E0C94030EEC
:100050000C94030E0C94030E0C94030E0C94B6BA7D
:100060000C94030E0C94F0900C94C6900C94030E18
:100070000C94030E0C94030E0C94030E0C94030EBC
:100080000C94030E0C94030E0C94030E0C94030EAC
:100090000C94030E0C94030E0C94030E0C942D94EC
:1000A0000C94030E0C94030E0C94030E0C94030E8C
:1000B0000C94030E0C94030E0C94030E0C94030E7C
:1000C0000C94030E0C94030E0C94030E0C94030E6C
:1000D0000C94030E0C94030E0C94030E0C94030E5C
:1000E0000C94030EEDC30AC40AC40AC40AC40AC4A9
:1000F0000AC4D4C30AC40AC40AC40AC40AC4DCC3F6
:1001000043C354C365C37AC385C396C3A7C3B8C3E7
:10011000C9C30AC40AC40AC40AC40AC40AC40AC4B1
:1001200004C4F9C304C404C42EA931A920A924A974
:100130002AA968A935A939A93FA943A947A94DA961
:1001400051A955A968A95BA95FA963A951B049B094
:1001500043B03DB037B031B02BB0072C7AA5BA6CA4
:10016000C590DA3B9365FC8BBC53F810FD3C56926E
:10017000834DBD879D3AB63DCBC9BF5BBE73DA0FD9
:10018000C93F05A84CCDB2D44EB93836A9020C509F
:10019000B9918688083CA6AAAA2ABE000000803F22
:1001A0000664EC1B3C04BC163E3BE5B93CC93C373D
:1001B000C29E5A3D660498083EEA69AAAA3E00001B
:1001C00000803F07634236B79BD8A71A3968561894
:1001D000AEBAAB558C1D3CB7CC5763BD6DEDFD750C
:1001E0003EF6177231BF000000803F08000000BEDD
:1001F000922449123EABAAAA2ABECDCCCC4C3E00DA
:10020000000080BEABAAAAAA3E00000000BF00000A
:1002100000803F0000000000084178D3BB4387D135
:10022000133D190E3CC3BD4282AD2B3E68EC827675
:10023000BED98FE1A93E4C80EFFFBE01C4FF7F3FD6
:100240000000000000000C943F750C940D780C9495
:10025000158A0C944B7B0C94C6950C9420A90C9495
:1002600054C30C9455A90C94EDC30C942C920C948B
:10027000509D0C9494520C945F8B0C94E82C0C942D
:10028000789D0C943F490C94A1910C94FDAE0C9474
:10029000EE7A0C946D510C9431B00C9450920C94F5
:1002A000F9C30C94B8A10C94A54F0C940DB00C9408
:1002B0003D300C940C8C0C9458B00C9435A90C94D3
:1002C000092F0C940E340C9436730C94B8C30C9410
:1002D000AFA60C942EA90C9451A90C948B4D0C94A0
:1002E000EDA00C94EF7B0C94249E0C9436910C940E
:1002F0008D660C94B29C0C94A7C30C94F1D10C9411
:1003000086760C9439A90C9451640C94CC790C9495
:10031000D4720C9455330C9453920C9405B20C94F3
:1003200054A20C9428190C9492770C9406330C94D4
:1003300071A10C948D620C94F9930C9467430C9406
:1003400043A90C943FA90C94F44A0C940AC40C944D
:100350009E7C0C947E700C94EB8B0C94C39E0C943E
:100360008F2E0C9463A90C94CC910C94AF300C9408
:1003700052AF0C94A0350C94A92F0C9437B00C9468
:1003800075430C9431A90C9496C30C94508A0C9428
:1003900028350C9458320C94322E0C94583F0C94FF
:1003A000480E0C9487490C94268C0C94A0910C94C4
:1003B000A98A0C94ED410C940F320C9465750C9441
:1003C000594B0C94FA2B0C9403940C949D630C944D
:1003D000D84E0C94BA330C9468A90C94FE9D0C94DE
:1003E00043C30C948D720C94CAB30C94D2AF0C948A
:1003F00024A90C945D600C946D910C944B0E0C949C
:10040000DCC30C9457920C9496A50C94E12D0C949B
:100410001B760C948D300C942FA10C947AC30C9401
:1004200051B00C944B8B0C94ADAF0C9474410C9464
:10043000168A0C9430650C945FA90C94C4910C94AA
:1004400047A90C94AE750C942B660C94244C0C9418
:100450005DAD0C944B710C9465960C94A6320C9483
:10046000CA340C9499610C9428700C94D5D70C94D0
:100470008F4A0C945BA90C94F08A0C9488710C94AC
:10048000469E0C94D6490C94D24B0C943DB00C94DF
:10049000454E0C94728A0C9420410C94902A0C9432
:1004A0006C340C947EAF0C942B920C9485C30C94FA
:1004B000D2B10C9484A00C94D4C30C9404C40C94B6
:1004C000648A0C94257D0C94B0910C946A8B0C94E6
:1004D00066420C94E84D0C944DA90C94E4760C946F
:1004E00057910C949E880C94B43F0C942BB00C94B0
:1004F00042A20C94C2310C944A610C94C9C30C946E
:10050000A2730C9427710C9443B00C94B1420C94D8
:1005100065C30C9486B50C9464350C944C310C94E2
:10052000AA780C9429AF0C9434920C942B4F0C9411
:100530002AA90C94418A0C94003F0C949C2C0C9496
:10054000814C0C94DA9B0C94304A0C94344D0C94EE
:1005500049B00C949F9D0C9438770C94C69D0C94D4
:1005600001610C94FC910C94019D6572726F722074
:100570006372656174696E672066696C65004D6FB2
:100580006E74686C79207265636F72642066696C42
:100590006520657869737473004372656174696E70
:1005A00067206D6F6E74686C79207265636F72641A
:1005B0002066696C65006572726F72206372656196
:1005C00074696E672066696C65004461696C7920A6
:1005D0007265636F72642066696C65206578697303
:1005E0007473004372656174696E67206461696C3D
:1005F00079207265636F72642066696C650043617F
:100600007264206661696C65642C206F72206E6F65
:10061000742070726573656E7400496E69746961E7
:100620006C697A696E6720534420636172642E2E70
:100630002E00726F746174696F6E20646F776E2024
:100640003A200073746F7020636C6F73696E67007B
:10065000737461727420636C6F73696E6700726F7C
:10066000746174696F6E207570203A200073746F26
:1006700070206F70656E696E6700737461727420AC
:100680006F70656E696E6700666972737420636C63
:100690006F73696E6700666C616733006661696CD1
:1006A00075726521002020484947482054454D5027
:1006B00020414C41524D20202000204D494E2E20FB
:1006C00054454D5045524154555245284329002028
:1006D0004D41582E2054454D504552415455524598
:1006E00028432900202D2057494E44204F5645527B
:1006F0005249444500202D204D4158205350454536
:1007000044286B6D2F682900202D204F55545349E4
:1007100044452054454D50204F5600202D2052482E
:10072000282529204F5645525249444500202D2066
:100730005441524745542052482825292000202D55
:10074000204F50454E494E4728252900202D205244
:10075000482050554C5345204D4F444500202D20F6
:1007600050554C5345204F4E286D696E2900202D61
:100770002050554C5345204F4646286D696E290040
:10078000202D20434C4F5345204154284329005BE2
:1007900044495341424C45445D00202D20434C4F79
:1007A000534520415428416D702900202D204C4F85
:1007B000434B204F50454E286D696E2900202D2057
:1007C0004C4F434B20434C4F5345286D696E2900D5
:1007D000202D204C4F434B20544F202520202020FB
:1007E0002000202D2044454C415920286D696E2958
:1007F0002020202000205B53454C462D43414C498E
:1008000042524154494F4E5DC2A0002D20524F54D8
:100810004154494F4E205550287329002D20524FE6
:10082000544154494F4E20444F574E287329002DB0
:10083000204F50454E494E47205354455053202099
:1008400020002D204D494E204F50454E494E4728FF
:1008500025292020002D204D4158204F50454E493C
:100860004E472825292020007374617274206F7010
:10087000656E3A202000636F6F6C543A2020202070
:10088000202020002D205354415254204F50454EDB
:10089000494E472843290066756C6C206F70656E61
:1008A0003A20202000636F6F6C54200066756C6CDA
:1008B000206F70656E3A20202000636F6F6C543A91
:1008C00020202020202020002D2046554C4C204F59
:1008D00050454E494E4728432920005D2020003EC8
:1008E0005B005D202000205B00434C440053554ECC
:1008F000005D202000205B00434C440053554E0017
:100900005D2020003E5B0028434C442900285355BD
:100910004E2900284D495829002F002F00207C0027
:100920003A003A00436C6F636B206F7665727269B0
:100930006465206F766572666C6F77202D206D611F
:100940006B6520736F6D6520737061636521004670
:100950006C6F6174206F76657272696465206F7662
:100960006572666C6F77202D206D616B6520736FEB
:100970006D65207370616365210076616C76006837
:1009800065617465720066616E00706572696F649E
:1009900073007365742074656D706572617475722F
:1009A000650073657474696E677300202D204C4F69
:1009B000434B204F4E20286D696E29202000202DAA
:1009C000204C4F434B204F464620286D696E29002E
:1009D00086097F097A092D205459504500737461A6
:1009E000727420756E6465723A2000686561745493
:1009F0003A2020202020202000737461727420612E
:100A0000626F76653A2000636F6F6C543A20202045
:100A100020202020002D2053544152542054454D75
:100A200050284329002D20485953544552455349D5
:100A300053284329202020004F4E2074696D6528DB
:100A400032346829203A20002D204F4E2054494D41
:100A500045286D696E2900A2098A099209A20992A6
:100A6000092054454D504552415455524553204D4F
:100A7000454E55202000005EBCE2613FDD83C29CF4
:100A80007E20A3FD1F419DC3217FFCA2401E5F016C
:100A9000E3BD3E6082DC237D9FC1421CFEA0E1BF1E
:100AA0005D0380DE3C62BEE0025CDF81633D7C2250
:100AB000C09E1D43A1FF4618FAA427799BC584DA7E
:100AC0003866E5BB5907DB856739BAE4065819472C
:100AD000A5FB7826C49A653BD987045AB8E6A7F9DE
:100AE0001B45C6987A24F8A6441A99C7257B3A6410
:100AF00086D85B05E7B98CD2306EEDB3510F4E103E
:100B0000F2AC2F7193CD114FADF3702ECC92D38DEB
:100B10006F31B2EC0E50AFF1134DCE90722C6D339D
:100B2000D18F0C52B0EE326C8ED0530DEFB1F0AECF
:100B30004C1291CF2D73CA947628ABF517490856FD
:100B4000B4EA6937D58B5709EBB536688AD495CBAB
:100B50002977F4AA4816E9B7550B88D6346A2B755D
:100B600097C94A14F6A8742AC896154BA9F7B6E88F
:100B70000A54D7896B3568756D69646973746174DB
:100B800028616972290068756D696469737461749C
:100B900028736F696C2900776561746865722D73BD
:100BA000706563696669630070756C736500756E66
:100BB0006465720061626F7665006C6F636B204FD5
:100BC0004E006C6F636B204F464600BA0BA80B7645
:100BD0000BBA0BA80B970B860B760B202D205052CF
:100BE0004F4752414D205459504500202D20535419
:100BF0004152542054494D4500202D2053544F500C
:100C00002054494D4500202D2050554C5345204D32
:100C10004F444500202D2050554C5345204F4E2821
:100C20006D696E2900202D2050554C5345204F46AC
:100C300046286D696E2900A2139E139A13202D2059
:100C400057454154484552205459504500202D20C5
:100C5000534F494C204D4F495354286B5061290044
:100C6000202D2048554D4944495459282529002014
:100C70002D20414E414C4F47285629204F56455272
:100C80002E00B40BAE0B202D205245464552454E4A
:100C9000434500202D2054415247455420285629D1
:100CA0002000C20BBA0B202D204445564943452055
:100CB000414354494F4E2000202D2048595354455C
:100CC000524553495320286D56292000202D20528B
:100CD00048282529204F5645525249444500202D89
:100CE00020544152474554205248282529200020AD
:100CF0002D2052482050554C5345204D4F4445001F
:100D0000202D2050554C5345204F4E286D696E299B
:100D100000202D2050554C5345204F4646286D69E4
:100D20006E29002C002C002C002C002C002C002CF8
:100D3000002C002C002C002C002C002C002C002C53
:100D4000002C002C002C002C003A30302C003A00F3
:100D50004572726F722077726974696E6720746F62
:100D60002066696C650030004F4646004F4E2000FB
:100D700020202020202000250020202020202020AE
:100D800020200020202020202020202000250020BE
:100D9000202020202020202000434C4F53494E4744
:100DA0002020004F50454E494E4720200020202053
:100DB000202020202020004F5645524C002020208B
:100DC000202020202020006F766572726964657390
:100DD00000706172616D65746572730070726F6727
:100DE00072616D7300616E616C6F6720696E707502
:100DF00074006F6E2D74696D650064697361626C57
:100E00006500756E6C6F636B002870726F6772613E
:100E10006D203129002870726F6772616D20322950
:100E2000002870726F6772616D2033290070726FD5
:100E30006772616D20310070726F6772616D203270
:100E40000070726F6772616D2033002D2050415524
:100E500053452054494D45287329202020002D203A
:100E6000485953544552455349532843292020207B
:100E700000FA0DF20DE50DDC0DC70DFA0DF20DE5D2
:100E80000DDC0DD10DC70D202D204D41494E204DBB
:100E9000454E55002D20454E41424C4528434F4E6E
:100EA0004649524D29002D2044495341424C452882
:100EB000434F4E4649524D2900A80B020E205B4578
:100EC000585445524E414C20434F4E54524F4C5D66
:100ED0002000A80BC20BBA0B202D204F56455252B2
:100EE0004944455320202020202000210E150E09C2
:100EF0000E410E150E090E210E370E090E210E158C
:100F00000E2D0E410E370E090E410E150E2D0E211F
:100F10000E370E2D0E410E370E2D0E202D20505265
:100F20004F4752414D5320202020202000202D20CB
:100F300050554C5345204D4F444500202D205055D1
:100F40004C5345204F4E286D696E2900202D2050AE
:100F5000554C5345204F4646286D696E2900202D7B
:100F600020454E41424C452050524F4752414D0082
:100F7000426F6F6C206F76657272696465206F7660
:100F80006572666C6F77202D206D616B6520736FC5
:100F90006D652073706163652100464646570046C3
:100FA000465700746573742072656C6179730074C0
:100FB0006573742074656D7000636F6E6669726D21
:100FC0000063616E63656C00656E61626C656400F0
:100FD00064697361626C656400672F6D33007C48DF
:100FE000443A00672F6D33007C48413A0025007C6D
:100FF00048523A0043004D61783A0043004D696E13
:101000003A004300543A0020204F55545349444578
:101010002054454D502F48554D2020006B6D2F68B2
:1010200020200057696E64207370643A20006D6D53
:101030002020005261696E203234683A20006E6FC1
:101040002000796573005261696E3A2000202020EB
:10105000574541544845522053544154494F4E201E
:10106000200020572F6D323A20004C7578203A200E
:1010700000202020524144494154494F4E204441D0
:101080005441202020002041202020005232203ACC
:1010900020002041C2A02020005231203A20002010
:1010A00020204D4F544F52532043555252454E54D9
:1010B00020202000AF0FA30F9F0F9A0F20544553FD
:1010C000542050524F4752414D532000C10FB90F89
:1010D0002020464143544F52592053455454494EC1
:1010E0004753202000204441592F4E49474854205F
:1010F00053455454494E47532000D00FC80F202069
:10110000574541544845522D53455454494E475331
:10111000202000737465707300726F746174696F5E
:101120006E2074696D650063616C696272617465DB
:101130000077696E64007261696E006F757473691F
:1011400064652074656D7000627265616B65720024
:101150006C6F636B206F70656E006C6F636B2063E8
:101160006C6F7365006C6F636B20617420250027C2
:1011700011191113112D2053455420504152414D46
:1011800045544552532020002D20454E41424C45A8
:101190002020002D2044495341424C4528434F4EC6
:1011A0004649524D290048113B1136113111202D6D
:1011B0002050524F54454354494F4E5300020E2085
:1011C0005B45585445524E414C20434F4E54524F6C
:1011D0004C5D200065115A115011202D204F5645AD
:1011E00052524944452020202020202000202D203C
:1011F000454E41424C452050524F4752414D0020F0
:101200002D2050524F4752414D20545950450020F7
:101210002D2048554D494449545928252900202D51
:101220002053544152542054494D4500202D205301
:10123000544F502054494D4500202D2054415247D1
:10124000455428252900202D2050554C5345204D2C
:101250004F444500202D2050554C5345204F4E28DB
:101260006D696E2900202D2050554C5345204F4666
:1012700046286D696E2900202D205241494E204F8D
:101280005645525249444500202D205241494E2096
:10129000434C4F5345282529002020204C4F5720F0
:1012A00054454D5020414C41524D202020007C3C63
:1012B0003E5E2B3D3F2F5B5D3B2C2A225C004300B2
:1012C0002D0043004300285353290028434C290094
:1012D00028535229003A004E47543A2000285353CD
:1012E000290028434C290028535229003A00505223
:1012F000453A2000285353290028434C29002853FD
:101300005229003A004441593A20002853532900F9
:1013100028434C290028535229003A004449463AB0
:1013200020002F00284E47542900285052452900FC
:1013300028444159290028444946290020202020DA
:1013400020202020202000284E47542900285052D9
:101350004529002844415929002844494629007C50
:1013600000202020202020202020202000566572F0
:1013700073696F6E20353A200056657273696F6E1F
:10138000203A200056657273696F6E203A2000562D
:10139000657273696F6E203A200073756E006D6917
:1013A0007800636C6F756400726174696F006175B9
:1013B000746F00AE13A813A2139E139A132020205B
:1013C0002053455420574541544845522020202061
:1013D00020002020574541544845522D41444A554C
:1013E0005354282529200020202020205345542014
:1013F000484F55522020202020200020202020531C
:101400004554204D494E5554532020202020002083
:1014100020202020205345542044415920202020C2
:101420002020002020202020534554204D4F4E5492
:101430004820202020200020202020205345542018
:1014400059454152202020202020002020205345B3
:1014500054204C415449545544452020202000201C
:101460002020534554204C4F4E4749545544452065
:10147000202020005D20202000202020202020206F
:101480005B002020205345542054494D455A4F4E6F
:10149000452020202000286D6F726E696E6729003C
:1014A000287072656E696768742900646179006EDE
:1014B00069676874006D6F726E696E67007072653F
:1014C0006E6967687400A0149614AF14AB14BD1451
:1014D0009614AF14AB14A014B514AF14AB14BD1410
:1014E000B514AF14AB1420504552494F4453204D0E
:1014F000454E55202000202D205354415254205455
:10150000494D4500202D2052414D50494E47004441
:10151000494620284D4F524E494E47292020202031
:1015200020005052454E494748542020202020207A
:1015300020202020200048656174696E67005445B2
:101540004D50455241545552455300202054454D6D
:10155000504552415455524553282A4329202000D2
:1015600070726F74656374696F6E73002020202041
:10157000202020202020202020202020202020008B
:10158000202020202020202020202020202020205B
:1015900020202000202D200020202020202020207E
:1015A0002020202020202020202020005072657341
:1015B000732027422720746F2063616E63656C007F
:1015C000507265737320274E2720746F20636F6EEF
:1015D0006669726D005B53554E5D005B434C445D24
:1015E000005D20202020002020202020205B005DA6
:1015F000002B004D4F44203A202020202020205B4B
:1016000000430043005D20202000202020202020D7
:10161000205B005D20202000202020202020205B57
:1016200000202020202020202020202020202020DA
:101630002020202020003E00494E444546494E4986
:1016400054454C590064697361626C6564206D6532
:101650006E750044495341424C45440064697361CE
:10166000626C6564206D656E750044495341424C5F
:10167000454400FA0D6015DC0DD10DC70D202D205D
:101680004D41494E204D454E552020202020200020
:10169000202D2050524F4752414D532020202020D2
:1016A000200000002100240027002A002D00300027
:1016B000330001010000040107010A0100002200BB
:1016C000250028002B002E0031003400020100000C
:1016D000050108010B01000020002300260029005D
:1016E0002C002F0032000001000003010601090157
:1016F00005050505070508080808020202020A0A8E
:1017000008080404040401010101010101010303AB
:10171000030303030303040707070C0C0C0C0C0C56
:101720000C0C0202020206060606060606060B0B53
:101730000B0B0B0B0B0B0102102020080810204094
:101740001020408002010201080402010102040885
:101750001020408080402010080402018004020113
:10176000804020100804020108040201010204085C
:1017700010204080010204081020408000000A0B65
:1017800002090C0D0E080703040100000000000010
:101790000000000000000000000000000000000049
:1017A0000000000000000000121110000000000006
:1017B0000000000000000000000000000000000029
:1017C00000005D202020005D3A5B002020202020CA
:1017D0005B0073756E20747261636B696E67006481
:1017E00061792F6E696768742073657474696E67B8
:1017F0007300776561746865722061646A757374DB
:101800000074656D706572617475726573007469DA
:101810006D652F636F6F72640073656E736F7273A3
:10182000006C6F772074656D7020616C61726D0063
:10183000686967682074656D7020616C61726D0005
:10184000746573747300666163746F727920726576
:1018500073657400696E73696465006F757473698C
:1018600064650077656174686572007261646961BE
:1018700074696F6E006D6F746F7273006469736169
:10188000626C656400534854315800445331384207
:101890003230006275636B6574206D6F6465004E55
:1018A0004F20636F6E74616374004E4320636F6EEC
:1018B0007461637400302D355620616E616C6F6702
:1018C00000737061726B66756E206B697400F2173D
:1018D000DF17D21720202054454D50205345545433
:1018E000494E47532020200074656D70207061724E
:1018F000616D657465727300496E637265617365CD
:101900002F646563722E20616C6C00202041444A74
:101910005553542054454D50203234482020004621
:101920001840183018211819180E180118202020F6
:10193000204D41494E204D454E552020202020006D
:1019400075186B1863185B1854182053454C4543A1
:10195000542053454E534F52200020494E53494482
:10196000452054454D502053454E534F5220008B37
:101970001885187C184F5554534944452054454DFB
:10198000502053454E534F5200AA189F189318D019
:101990000F2020205241494E2053454E534F522094
:1019A000202000C118B518D00F202020414E454DF1
:1019B0004F4D455445522020200020202020204C0F
:1019C0005558204D455445522020202000212121EA
:1019D000202020202000672F6D332020007C4844E9
:1019E0003A00212121202020202000672F6D332064
:1019F00020007C48413A0021212120202020200085
:101A000025007C48523A004300543132683A004382
:101A100000543234683A0021212120202000430064
:101A2000543A00202020494E534944452054454D06
:101A3000502F48554D2020005D003E5B005D20008A
:101A4000205B00434C440053554E005D00205B007A
:101A50005D2000205B002020202048656174696EB5
:101A6000672020436F6F6C696E6720005D00205B0C
:101A7000005D20003E5B00434C440053554E005D2A
:101A800000205B005D2000205B00202020204865B6
:101A90006174696E672020436F6F6C696E67005DCB
:101AA00000205B005D2000205B00434C4400535548
:101AB0004E005D003E5B005D2000205B002020208A
:101AC0002048656174696E672020436F6F6C696E92
:101AD00067005D00205B005D202000205B00434C20
:101AE000440053554E005D005B005D2020003E5BCE
:101AF000002020202048656174696E672020436FB4
:101B00006F6C696E6700436F6F6C696E6700544558
:101B10004D50455241545552455300202054454D97
:101B2000504552415455524553282A4329202000FC
:101B300048656174696E670054454D504552415483
:101B40005552455300202054454D5045524154555F
:101B5000524553282A4329202000436F6F6C696E39
:101B6000670054454D50455241545552455300204D
:101B70002054454D504552415455524553282A430F
:101B800029202000212121002500432D2020200094
:101B9000212121004300202020202020202020007F
:101BA000F1D1D5D711241FBECFEFD1E2DEBFCDBF1B
:101BB00000E00CBF15E0A0E0B2E0EAE9F0EC01E0E3
:101BC0000BBF02C007900D92AA3CB107D9F729E1DB
:101BD000AAECB5E001C01D92A737B207E1F71DE0FE
:101BE000C1EDDDE000E006C021970109802FFE0174
:101BF0000E947FD8C03DD10780E00807A9F70E9466
:101C000000BB0C943BE00C9400008091FF05909188
:101C10000006CC976CF0109200061092FF058091A0
:101C2000490290914A02019690934A028093490298
:101C30008091490290914A02489734F010924A02EA
:101C40001092490210926A188091470290914802BE
:101C50004F977CF081E090E0909348028093470298
:101C6000809145029091460201969093460280939E
:101C7000450280914502909146020D9744F081E023
:101C800090E0909346028093450210926A1808955E
:101C900080E090E008950F931F930E94F3AC0091B1
:101CA000F7051091F8052091F9053091FA05DC014E
:101CB000CB01801B910BA20BB30B4097A105B10583
:101CC000A8F18091F3059091F405A091F505B091EC
:101CD000F6050196A11DB11D8093F3059093F405BF
:101CE000A093F505B093F6056091F3057091F405A6
:101CF0008091F5059091F6050E94ECDE28EB3EE11F
:101D000045E85EE30E944DDF6093CB057093CC0500
:101D10008093CD059093CE050E94F3AC6093F705B8
:101D20007093F8058093F9059093FA051F910F9130
:101D3000089580910406811104C080916A18882357
:101D400011F081E001C080E00C94C0B7AC014956AD
:101D50005F4F49F09C0120533F4F2417350719F07E
:101D600023513109FACF9C01235A3F4F31F04217DA
:101D7000530719F04D515109FACF009731F0281748
:101D8000390719F02F513109FACF0895AF92BF9258
:101D9000CF92DF92EF92FF920F931F93CF93DF9337
:101DA000AC01415E5F4F9B01215E3F4FFC01DB01B7
:101DB0005C01CDE5AC0EB11C0D911C911197118306
:101DC00000838A010D5111097901DDE1ED1AF10855
:101DD000E701E880F980E801F982E8820E5F1F4F91
:101DE0007901DBE1ED1AF108E701E880F980E8010B
:101DF000F982E8820E5F1F4F7901D9E1ED1AF108EF
:101E0000E701E880F980E801F982E8820E5F1F4F60
:101E10007901D7E1ED1AF108E701E880F980E801DE
:101E2000F982E8820E5F1F4F7901D5E1ED1AF108C2
:101E3000E701E880F980E801F982E8821C96CD90FC
:101E4000DD90ED90FC901F97C486D586E686F786D8
:101E500089010F501109E801F8808A010F5011091A
:101E6000E801F8820F5F1F4F7901DEE0ED1AF108FB
:101E7000E701E880F980E801F982E8820E5F1F4FF0
:101E80007901DCE0ED1AF108E701E880F980E8016A
:101E9000F982E8820E5F1F4F7901DAE0ED1AF1084E
:101EA000E701E880F980E801F982E8820E5F1F4FC0
:101EB0007901D8E0ED1AF108E701E880F980E8013E
:101EC000F982E8820E5F1F4F7901D6E0ED1AF10822
:101ED000E701E880F980E801F982E8820E5F1F4F90
:101EE0007901D4E0ED1AF108E701E880F980E80112
:101EF000F982E8825D960D911C915E97168F058F91
:101F0000415E5F4F215E3F4F7F965F96EA15FB056E
:101F100009F052CFAC0146585F4F9B0126583F4F06
:101F2000DB01A35ABF4F5C01D7E9AD0EB11C0D9187
:101F30001C911197118300838A010B5111097901BA
:101F4000CBE1EC1AF108E701E880F980E801F982B9
:101F5000E8820E5F1F4F7901D9E1ED1AF108E70120
:101F6000E880F980E801F982E8820E5F1F4F79016D
:101F7000D7E1ED1AF108E701E880F980E801F9827C
:101F8000E8820E5F1F4F7901D5E1ED1AF108E701F4
:101F9000E880F980E801F982E8820E5F1F4F79013D
:101FA000D3E1ED1AF108E701E880F980E801F98250
:101FB000E8821C96CD90DD90ED90FC901F97C48632
:101FC000D586E686F78689010D501109E801F8806B
:101FD0008A010D501109E801F8820F5F1F4F790146
:101FE000DCE0ED1AF108E701E880F980E801F98208
:101FF000E8820E5F1F4F7901DAE0ED1AF108E70180
:10200000E880F980E801F982E8820E5F1F4F7901CC
:10201000D8E0ED1AF108E701E880F980E801F982DB
:10202000E8825796CD90DD90ED90FC905A97C78A44
:10203000D08EE18EF28E5B960D911C915C97148F81
:10204000038F435E5F4F235E3F4F7D965D96EA159B
:10205000FB0509F06CCF5F019B0129563F4FEB0157
:10206000C955DF4FDC01A955BF4FAC0140535F4F4D
:10207000F90100811181F501118300838D010E505A
:1020800011097E01FEE0EF1AF108F701E080F1800E
:10209000F801F182E0820E5F1F4F7E01FCE0EF1A33
:1020A000F108F701E080F180F801F182E0820E5F33
:1020B0001F4F7E01FAE0EF1AF108F701E080F1808E
:1020C000F801F182E0820E5F1F4F7E01F8E0EF1A07
:1020D000F108F701E080F180F801F182E0820E5F03
:1020E0001F4F7E01F6E0EF1AF108F701E080F18062
:1020F000F801F182E082F901C484D584E684F78492
:10210000F501C486D586E686F78618811C93F90109
:1021100001891289F501128B018BF3E1AF0EB11C1D
:102120002D5E3F4F63965396A416B50609F0A0CFD7
:10213000DB01A053BF4F2C91E5012883FB01EF5237
:10214000FF4F2081FC01EF52FF4F208312962C910C
:1021500031962083DF91CF911F910F91FF90EF90E7
:10216000DF90CF90BF90AF9008950F931F93CF93C0
:10217000DF93EC018B010E94C60EFE01ED52FF4F72
:10218000D801AD52BF4F8D919C911197918380835F
:10219000329612968D919C911197918380833296FD
:1021A00012968D919C91119791838083329612960D
:1021B0008D919C91119791838083329612968D9187
:1021C0009C91119791838083329612968D919C9168
:1021D000119791838083329612968D919C91918371
:1021E0008083BE016F517F4FA8014F515F4F80E048
:1021F00090E026E0DB01A80FB91FFA01E80FF91FF4
:10220000322F01900D923A95E1F7069684329105AE
:1022100089F7FE01EB5FFE4FD801AB5FBE4F8D919A
:102220009C91119791838083329612968D919C9107
:1022300091838083F801E75FFE4F80819181A281C5
:10224000B381FE01E75FFE4F80839183A283B38356
:10225000F801E35FFE4F8081FE01E35FFE4F808364
:10226000F801E25FFE4F80819181A281B381FE017E
:10227000E25FFE4F80839183A283B383F801EE5E19
:10228000FE4F8081FE01EE5EFE4F8083F801ED5E21
:10229000FE4F8081FE01ED5EFE4F8083DE01AC5E6D
:1022A000BE4FF801EC5EFE4F85E001900D928A95DD
:1022B000E1F7DE01A75EBE4FF801E75EFE4F85E065
:1022C00001900D928A95E1F7F801E25EFE4F808160
:1022D0009181FE01E25EFE4F91838083F801E05E12
:1022E000FE4F80819181A281B381FE01E05EFE4FAD
:1022F00080839183A283B383F801EC5DFE4F8081DC
:102300009181A281B381FE01EC5DFE4F80839183B8
:10231000A283B383F801E85DFE4F80819181A281A1
:10232000B381FE01E85DFE4F80839183A283B38376
:10233000F801E45DFE4F80819181A281B381FE01AD
:10234000E45DFE4F80839183A283B383F801E05D57
:10235000FE4F80819181FE01E05DFE4F918380837D
:10236000F801EE5CFE4F80819181FE01EE5CFE4F34
:1023700091838083F801EC5CFE4F80819181FE01A6
:10238000EC5CFE4F91838083F801EA5CFE4F808114
:10239000FE01EA5CFE4F8083F801E95CFE4F80811C
:1023A000FE01E95CFE4F8083F801E85CFE4F80810E
:1023B000FE01E85CFE4F8083F801E75CFE4F808100
:1023C0009181FE01E75CFE4F91838083F801E55C1B
:1023D000FE4F80819181FE01E55CFE4F91838083F9
:1023E000F801E35CFE4F80819181FE01E35CFE4FCA
:1023F00091838083F801E15CFE4F80819181FE0131
:10240000E15CFE4F91838083F801EF5BFE4F80819A
:10241000FE01EF5BFE4F8083F801EE5BFE4F808193
:10242000FE01EE5BFE4F8083F801ED5BFE4F808185
:10243000FE01ED5BFE4F8083F801EC5BFE4F808177
:10244000FE01EC5BFE4F8083CE018B5B9E4F9801BB
:102450002B5B3E4F4CE3F901DC0101900D924A9554
:10246000E1F7F90144AD55AD66AD77ADFC0144AF80
:1024700055AF66AF77AFF801EB57FE4F8081918182
:10248000A281B381FE01EB57FE4F80839183A2832B
:10249000B383F801E757FE4F8081FE01E757FE4FF7
:1024A0008083F801E657FE4F80819181A281B3813C
:1024B000FE01E657FE4F80839183A283B383F80128
:1024C000E257FE4F80819181A281B381FE01E257E4
:1024D000FE4F80839183A283B383F801EE56FE4FB3
:1024E00080819181FE01EE56FE4F91838083F80139
:1024F000EC56FE4F80819181CC56DE4F99838883C4
:10250000DF91CF911F910F9108950E94990E8091B4
:102510006A18893C59F50E94AF5620933F0A3093C0
:10252000400A4093410A5093420A6093430A7093D1
:10253000440A8093450A9093460A10922418809189
:10254000FF05909100068093251820914902209361
:1025500026185093271860932818705D70932918D7
:102560000296909300068093FF051DC08A3CE9F413
:10257000109224188091FF058093251880914902BC
:1025800080932618809147029091480280932718E3
:1025900020914502209328181092291801969093B3
:1025A0004802809347020C94050E0E94AF56209378
:1025B0003F0A3093400A4093410A5093420A609385
:1025C000430A7093440A8093450A9093460A705DCB
:1025D0007093291860932818509327182093261871
:1025E00030932518409324180895FC01808191812F
:1025F0000C940BE0CF93DF931F921F92CDB7DEB701
:1026000081E090E09A838983CE0101960E94F512C1
:102610008F3689F482E090E09A838983CE01019617
:102620000E94F512682F70E080E090E00E94ECDEDE
:10263000AB01BC0104C040E050E060EA71E481EF0E
:1026400099E00E946A2983E090E09A838983CE0111
:1026500001960E94F5128F3689F484E090E09A8307
:102660008983CE0101960E94F512682F70E080E008
:1026700090E00E94ECDEAB01BC0104C040E050E001
:1026800068E472E485E599E00E946A2989E995E1A8
:102690000E94C325811109C087E99AE00E9465461E
:1026A00087E99AE00E94DF570AC089E995E10E9414
:1026B000C325813021F481E69AE00E940F258BE941
:1026C00095E10E94C325811109C081E79AE00E942B
:1026D000654681E79AE00E94DF570AC08BE995E1E1
:1026E0000E94C325813021F481E59AE00E940F25E4
:1026F0008091480A843101F58091470A8531E1F4DF
:1027000081E08093500A61E084E10E942EAC61E098
:1027100085E10E942EAC8091B9008E7F8093B90034
:102720008091B9008D7F8093B9008CE08093B800D0
:1027300085E08093BC0007C01092500A61E0809150
:10274000470A0E945EAC62E083E00E945EAC8BE4CC
:102750009EE090937A028093790280916A00837F51
:10276000886080936A00ED9A62E082E00E945EAC2D
:1027700088E299E1909378028093770280916A00D1
:102780008C7F826080936A00EC9A789481EF99E064
:102790000F900F90DF91CF910C94102A0F931F93FD
:1027A000CF93DF931F92CDB7DEB78C0169830E9470
:1027B000F5126981681729F0F801808191810E94E2
:1027C00013E0C8010F90DF91CF911F910F910895F1
:1027D0002F923F924F925F927F928F929F92AF92F1
:1027E000BF92CF92DF92EF92FF920F931F93CF93FE
:1027F000DF9300D000D0CDB7DEB76B837C838D83B1
:102800009E8319012A01A8019701C201B1010E940A
:10281000E7DE181644F4A6019501C201B1010E9439
:102820004FDA87FD38C020E030E0A9016B817C8160
:102830008D819E810E94E7DE87FD08C06B817C81CF
:102840008D819E810E949AD9762E01C0712C9A8228
:1028500089826FE6CE0101960E94CE138FEF881A0F
:10286000980A9A828982672DCE0101960E94CE1322
:102870008CE996E00E9473B722E0B201A1018AE0E0
:1028800096E00E94D08F64E475E08AE096E00E94B2
:10289000728F81E001C080E026960FB6F894DEBF0B
:1028A0000FBECDBFDF91CF911F910F91FF90EF90A1
:1028B000DF90CF90BF90AF909F908F907F905F9070
:1028C0004F903F902F9008954F925F926F927F921A
:1028D0008F929F92AF92BF92CF92DF92EF92FF9230
:1028E0000F931F930E94990E89E995E10E94C325D9
:1028F000813049F581E69AE00E948B242B013C014E
:102900006091550970915609809157099091580925
:1029100022E0822E912CA12CB12C3AECC32E32E471
:10292000D32EE12CF12C00E81FEBA30192010E94B1
:10293000E813882331F0809105068F5F80930506A8
:1029400002C01092050680910506811114C0B301E2
:10295000A20185E599E01F910F91FF90EF90DF9024
:10296000CF90BF90AF909F908F907F906F905F902F
:102970004F900C946A291F910F91FF90EF90DF9078
:10298000CF90BF90AF909F908F907F906F905F900F
:102990004F9008954F925F926F927F928F929F9285
:1029A000AF92BF92CF92DF92EF92FF920F931F935D
:1029B0000E94990E80910406893609F05AC08091D0
:1029C000020681110CC04DEC5CEC60E271E481EF19
:1029D00099E00E946A2981E08093020623C08091D9
:1029E00001062DEC3CEC4CE45DE381110BC06091E1
:1029F000F1097091F2098091F3099091F4090E9414
:102A0000B0D80AC06091F1097091F2098091F30980
:102A10009091F4090E94AFD8AB01BC0181EF99E01D
:102A20000E946A294090F1095090F2096090F309E0
:102A30007090F40920E030E040EF51E4C301B201AE
:102A40000E944FDA87FD03C081E08093010620E0F9
:102A500030E040E251E4C301B2010E94E7DE181603
:102A60000CF485C010920106109202061092040622
:102A70007EC089E995E10E94C325811120C087E9C4
:102A80009AE00E948A4587E99AE00E94D0B82B011B
:102A90003C016091F1097091F2098091F3099091E4
:102AA000F40988248394912CA12CB12CE0E7CE2E3C
:102AB000E2E4DE2EE12CF12C0EEF12EC38C089E9B5
:102AC00095E10E94C325813009F03FC081E69AE07C
:102AD0000E9429246091670A7091680A072E000CF1
:102AE000880B990B0E94EEDE2AE037ED43E25CE3AF
:102AF0000E944DDF20E030E040E252E40E94AFD877
:102B00002B013C016091F1097091F2098091F30968
:102B10009091F40988248394912CA12CB12C30E756
:102B2000C32E32E4D32EE12CF12C00E212ECA301EF
:102B300092010E94E813882331F0809103068F5F91
:102B40008093030602C01092030680910306811150
:102B500009C0B301A20181EF99E00E946A29109295
:102B6000651905C0843119F481E0809365191F91BE
:102B70000F91FF90EF90DF90CF90BF90AF909F901C
:102B80008F907F906F905F904F9008950F931F9359
:102B9000CF93DF93EC010E94F3AC088119812A8165
:102BA0003B81601B710B820B930BDF91CF911F91C7
:102BB0000F9108953F924F925F926F927F928F9202
:102BC0009F92AF92BF92CF92DF92EF92FF920F93BC
:102BD0001F93CF93DF93CDB7DEB7C859D1400FB65F
:102BE000F894DEBF0FBECDBF88E20E9405AC2091F5
:102BF0000906892B51F4211116C081E08093090642
:102C000082E490E10E94C56E0EC0222361F0109212
:102C1000090640E063E382E490E10E948B1F85E4B3
:102C200091E10E949B6E8AE20E9405AC2091080609
:102C3000892B51F4211116C081E0809308068FE49E
:102C400091E10E94C56E0EC0222361F01092080629
:102C500040E063E38FE491E10E948B1F82E592E103
:102C60000E949B6E8CE20E9405AC20910706892B86
:102C700049F4211111C081E08093070684E60E9487
:102C800061590AC0222341F01092070640E063E335
:102C900080E89BE00E948B1F8EE20E9405AC209191
:102CA0000606892B49F4211111C081E080930606A4
:102CB00080E00E9461590AC0222341F0109206066A
:102CC00040E063E380E89BE00E948B1FB12C36E973
:102CD000832E99249394AA24A39485E995E10E94D4
:102CE000C325B81608F0B7C120E6722ECB2CD12C24
:102CF000C89CC001C99C900DD89C900D11249C01CA
:102D00002058344F7901672DC7010E94876A8A3C99
:102D100009F08DC00091D4151091D5152091D615CC
:102D20003091D7154091F1095091F2096091F30962
:102D30007091F409C7010E94751D8C01672DC701B0
:102D40000E94EC69682F70E02091C5154091C6156E
:102D50006017710708F44DC06091550970915609CC
:102D60008091570990915809C956DE4F2883C75959
:102D7000D140C856DE4F4883C859D1400E949AD9E5
:102D8000062F672DC7010E948021C956DE4F28817A
:102D9000C759D140C856DE4F4881C859D140BC01FF
:102DA000C7010E9406200091D4151091D5152091DD
:102DB000D6153091D7154091F1095091F2096091E3
:102DC000F3097091F40980E89BE00E94751DBC0135
:102DD0008AE096E00E948B5966E775E08AE096E00B
:102DE0000E94728F672DC7010E94EC690E9474597E
:102DF0003DC0672DC701C956DE4F2883C759D14052
:102E0000C856DE4F4883C859D1400E94802100E057
:102E1000C956DE4F2881C759D140C856DE4F488178
:102E2000C859D140BC01C7010E9406201FC0409173
:102E3000C5156090C615672DC701C856DE4F48837B
:102E4000C859D1400E9480218C0104960E9491258E
:102E5000C856DE4F4881C859D140882329F0662DD5
:102E6000C8010E943A1E02C0F801108A7394F3E66A
:102E70007F1249CFC89CC001C99C900DD89C900D71
:102E800011249C012058344F790160E87BE0CE0189
:102E900001960E94B5104090D4155090D5156090C1
:102EA000D6157090D715CE018E519F4F0E94F525F3
:102EB0008C0163E6CE0101960E94EC693090CF054B
:102EC000332029F190E0C15EDE4F28813981CF5156
:102ED000D14028173907D0F0B80180E090E00E9477
:102EE000ECDE9B01AC01C301B2010E94B0D89B0192
:102EF000AC01332433946091F1097091F20980910F
:102F0000F3099091F4090E944FDA87FD312C432D8B
:102F100063E6C7010E948B1FCE0101960E942B1E03
:102F20000091D4151091D5152091D6153091D71553
:102F30004091F1095091F2096091F3097091F409FF
:102F4000C7010E94751D8C016AE6C7010E94EC69E9
:102F5000282F30E02017310748F020915509309193
:102F60005609409157095091580903C020E030E0BC
:102F7000A9016AE6C7010E949A1E6FE5C7010E9477
:102F8000E16D8601000F111F000F111F811112C08A
:102F90006091D0057091D10580E090E00E94ECDE58
:102FA0009B01AC016FE5C7010E949A1EC8018354C2
:102FB000984F19C00354184FC8010E94C615603CB1
:102FC000744D8140910588F06091D0057091D105D4
:102FD00080E090E00E94ECDE9B01AC016FE5C70150
:102FE0000E949A1EC8010E9409B82091A30930913D
:102FF000A4094091A5095091A60964E6C7010E9461
:103000009A1E4091D8055091D9056091DA057091CA
:10301000DB0580E89BE00E94F81D4091D4055091AB
:10302000D5056091D6057091D70586E19DE00E9497
:10303000F81DC89CF001C99CF00DD89CF00D11241E
:10304000E75FF24F8081F601EE51FA4F8111E5C042
:103050001082B39442CED12C8DE0A82EBB24B39421
:1030600087E995E10E94C325D81608F0D8C010E67C
:103070008D2C912C8A9CC0018B9C900D9A9C900D5C
:103080001124FC01EE5BFF4E7F01612FC7010E94FE
:10309000876A883C19F58BE895E10E94C325082FC3
:1030A0002091C5154091C615612FC701C956DE4F45
:1030B0002883C759D140C856DE4F4883C859D140EC
:1030C0000E948021BC01C956DE4F2881C759D140DA
:1030D000C856DE4F4881C859D14059C0612FC70139
:1030E0000E94876A893C49F46091B9087091BA08D6
:1030F0008091BB089091BC080EC0612FC7010E944F
:10310000876A8B3C41F56091550970915609809111
:103110005709909158090E949AD9062F2091C515F8
:103120004091C615612FC701C956DE4F2883C75984
:10313000D140C856DE4F4883C859D1400E948021F3
:10314000C956DE4F2881C759D140C856DE4F488145
:10315000C859D1401BC0612FC7010E94876A509097
:10316000C515C090C6158A3CB1F46091550970919F
:10317000560980915709909158090E949AD9062FB3
:10318000612FC7010E948021252D4C2DBC01C70154
:103190000E94062012C0612FC7010E9480213C01BD
:1031A00004960E949125882331F0452D6C2DC30192
:1031B0000E943A1E02C0F301108A1F5F133609F005
:1031C00064CF8A9C70018B9CF00C9A9CF00C1124AB
:1031D00087010E5B1F4E6091DC057091DD05072EA7
:1031E000000C880B990B0E94EEDE20E030E04AE7ED
:1031F00054E40E9421D99B01AC016CE6C8010E94F5
:103200009A1EC701835E9E4E0E949125482F6BE651
:10321000C8010E948B1FD39423CFA0821ACFC85617
:10322000DE4F0FB6F894DEBF0FBECDBFDF91CF915A
:103230001F910F91FF90EF90DF90CF90BF90AF90D4
:103240009F908F907F906F905F904F903F900895E8
:103250000F931F930E94F3AC0091FB051091FC05A6
:103260002091FD053091FE05DC01CB01801B910B07
:10327000A20BB30B4097A105B10568F189EC97E06B
:103280000E94C6150E94ECDE9B01AC0160E070E07C
:1032900086E195E40E9421D90E9493D97093D305C9
:1032A0006093D2058091D2059091D3051816190626
:1032B00024F01092D3051092D20589EC97E00E9479
:1032C00009B80E94F3AC6093FB057093FC058093F2
:1032D000FD059093FE051F910F910895CF93DF9305
:1032E000EC010E94F3AC688379838A839B83DF912E
:1032F000CF9108956F927F928F929F92AF92BF92DB
:10330000CF92DF92EF92FF920F931F93CF93DF93B1
:10331000EC018C01025E1E4FF801E080F1806C012F
:10332000F3EDCF0ED11CC6010E94C3259E0146E0DD
:10333000849F200D311D1124C9018F519F4F0E9480
:10334000F525E816F90640F0C6010E94C325FE01E6
:10335000E75CFE4F90E0C6C1F801A080B1807E011D
:10336000F1EEEF0EF11CC7010E94F525A816B90673
:1033700031F4FE01E75CFE4F1182108231C0F8018A
:10338000A080B180C7010E94F5258A159B0508F031
:1033900085C1F801E080F180CE0189519F4F0E94E4
:1033A000F5258E159F0508F098C178C1F801608059
:1033B0007180AF2CB12CEA9CC001EB9C900D1124C4
:1033C0008F519F4F8C0F9D1F0E94F525681679061F
:1033D00008F06EC1F394C6010E94C325F81630F3BD
:1033E0008E01075C1E4FF801E080F180C6010E944B
:1033F000C32590E09E01255C3E4F5901E816F90671
:1034000009F49BC0F8012081318146E0F42EF29E40
:10341000C001F39E900D11248F519F4F8C0F9D1F63
:103420000E94F5254C01F801208131812F5F3F4F2B
:10343000F29EC001F39E900D11248F519F4F8C0F6F
:103440009D1F0E94F525F80120813181881699067B
:1034500019F02F5F3F4F24C0F29EC001F39E900DE4
:1034600011248F519F4F8C0F9D1F0E94F5254C01F9
:10347000F801208131812E5F3F4FF29EC001F39E03
:10348000900D11248F519F4F8C0F9D1F0E94F52589
:10349000F801208131818816990631F02E5F3F4F67
:1034A000F5013183208350C0F29EC001F39E900D40
:1034B00011248F519F4F8C0F9D1F0E94F5254C01A9
:1034C000F801208131812D5F3F4FF29EC001F39EB4
:1034D000900D11248F519F4F8C0F9D1F0E94F52539
:1034E000F801208131818816990619F02D5F3F4F30
:1034F000D7CFF29EC001F39E900D11248F519F4FA4
:103500008C0F9D1F0E94F5254C01F801808191814F
:103510000496F89E9001F99E300D1124C9018F5137
:103520009F4F8C0F9D1F0E94F5258816990629F044
:10353000F80180819181049604C0C6010E94C325D0
:1035400090E0F50191838083F80120813181CE01E3
:10355000835C9E4F6C012115310509F49BC096E0F8
:10356000F92EF29EC001F39E900D11248F519F4FB2
:103570008C0F9D1F0E94F5255C01F80180819181CF
:103580000197F89E9001F99E300D1124C9018F51C9
:103590009F4F8C0F9D1F0E94F525F80120813181DE
:1035A000A816B90619F02150310949C0F29EC00190
:1035B000F39E900D11248F519F4F8C0F9D1F0E94E1
:1035C000F5255C01F801808191810297F89E9001B8
:1035D000F99E300D1124C9018F519F4F8C0F9D1FF3
:1035E0000E94F525F80120813181A816B90619F04D
:1035F0002250310924C0F29EC001F39E900D112487
:103600008F519F4F8C0F9D1F0E94F5255C01F80183
:10361000808191810397F89E9001F99E300D1124CD
:10362000C9018F519F4F8C0F9D1F0E94F525F801F6
:1036300020813181A816B90631F023503109F601F5
:103640003183208356C0F29EC001F39E900D112459
:103650008F519F4F8C0F9D1F0E94F5255C01F80133
:10366000808191810497F89E9001F99E300D11247C
:10367000C9018F519F4F8C0F9D1F0E94F525A816E1
:10368000B90641F0F801808191810497F601918398
:1036900080832FC0F601118210822BC0FF24F39487
:1036A00086E0E82E4E01F7EC8F1AFEEF9F0A93CECC
:1036B000F8016080718095012F5F3F4FE29EC0014D
:1036C000E39E900D11248F519F4F8C0F9D1F0E94E0
:1036D000F5256816790648F07DCE81E090E0FE0180
:1036E000E75CFE4F918380837BCEF401B182A082A0
:1036F00071CEDF91CF911F910F91FF90EF90DF90EE
:10370000CF90BF90AF909F908F907F906F900895D3
:10371000AF92BF92CF92DF92EF92FF920F931F93DF
:10372000CF93DF93EC018C01045F1F4FC8010E940F
:10373000C6156B017C015E0188E0A80EB11CC501B5
:103740000E94C325282F30E0A0E6BAEE0E942CE0AC
:103750006C157D058E059F0518F081E0888B2FC0C4
:10376000C8010E94C6156B017C01C5010E94C325DA
:10377000B82ECE010A960E94C3254B2D50E060E082
:1037800070E09A01AB01280F311D411D511DA0E6CB
:10379000BAEE0E9421E06C157D058E059F0510F0A4
:1037A000188A0DC0C801DF91CF911F910F91FF9032
:1037B000EF90DF90CF90BF90AF900C9409B8DF915D
:1037C000CF911F910F91FF90EF90DF90CF90BF901E
:1037D000AF9008950F931F93CF93DF93C0E0D0E095
:1037E0008C010D521F4FC8010E94C325282F30E0C5
:1037F0002F5F3F4FC217D30710F42196F4CFDF910C
:10380000CF911F910F9108950F931F93CF93DF9343
:10381000EC01FB0184819581892BC1F0008111812C
:1038200067E475E0C8010E9481DE892B21F4FE0166
:10383000E95CFE4F0AC06CE375E0C8010E9481DEBE
:10384000892B21F4FE01E85CFE4F1082FE01E45D4D
:10385000FE4F1082118212821382CE0186579E4F34
:10386000DF91CF911F910F910C9409B80F931F9383
:10387000CF93DF93EC018C010C5E1E4FC8010E94B8
:103880005A6E882319F0C8010E949B6E8E01075E54
:103890001E4FC8010E945A6E882319F0C8010E9469
:1038A0009B6EDE01A25EBE4FFE01EE5CFE4F2081EC
:1038B00031818D919C911197820F931F8D939C93D1
:1038C00011821082CE01DF91CF911F910F910C9444
:1038D0007A19CF93DF93EC010E94361CFE01EE5B58
:1038E000FE4F10823B97108279978FEF90E0918383
:1038F00080837B9691838083389681E0808360E02B
:10390000CE0183529F4FDF91CF910C94AB254F9204
:103910005F926F927F928F929F92AF92BF92CF925F
:10392000DF92EF92FF920F931F93CF93DF93EC01FF
:103930000E947A19CE0189529F4F0E94F525BC0141
:1039400080E090E00E94ECDE20E030E04AE754E4C2
:103950000E944DDF6B017C018E010D5E1E4FD80170
:103960008C91682F70E080E090E00E94ECDE9B017B
:10397000AC01C701B6010E9421D94B015C01CE0107
:1039800087529F4F0E94F525BC0180E090E00E9485
:10399000ECDE20E030E04AE754E40E944DDF6B01AA
:1039A0007C01F801608170E080E090E00E94ECDE34
:1039B0009B01AC01C701B6010E9421D92B013C013A
:1039C0007E01F0EEEF1AFEEFFF0AC501B4010E947E
:1039D0009AD9D7016D937D938D939C9313970F5E26
:1039E0001F4FC301B2010E949AD9F801608371830D
:1039F00082839383CE0185529F4F0E94F525FE015D
:103A0000E85DFE4F28EE33E0AC01429FC001439FCA
:103A1000900D529F900D1124A0E0B0E0808391831F
:103A2000A283B383DE01AE5EBE4F8C91882381F00A
:103A3000D7011D921D921D921C921397D8011D92C1
:103A40001D921D921C921397108211821282138272
:103A5000FE01EE5CFE4FA081B1811A161B06A4F494
:103A60008E01045D1E4FF701208131814281538117
:103A70000E9496D8D8016D937D938D939C93139754
:103A8000CE018C5E9E4F1AC01097D1F07E01E4EDFE
:103A9000EE1AEEEFFE0AB195A195B109F801208169
:103AA0003181428153810E9496D8D7016D937D93D5
:103AB0008D939C931397CE01875E9E4F0E94756EE7
:103AC000CE0186579E4FDF91CF911F910F91FF90AE
:103AD000EF90DF90CF90BF90AF909F908F907F90AE
:103AE0006F905F904F900C9409B84F925F926F92D5
:103AF0007F928F929F92AF92BF92EF92FF920F931D
:103B00001F93CF93DF93EC014A015B012801390138
:103B10007C0185ECE81A8EEFF80AF70120813181EB
:103B200016E0129FC001139F900D11248D519F4FDD
:103B30008C0F9D1F0E94A1269B01AC01C301B20105
:103B40000E94B0D89B01AC01C501B4010E944FDABC
:103B500087FF32C07E01F7ECEF1AFEEFFF0AF70194
:103B600020813181129FC001139F900D11248D512E
:103B70009F4F8C0F9D1F0E94A1269B01AC01C3018A
:103B8000B2010E94B0D82B013C01CE018B529F4F55
:103B90000E94A1269B01AC01C301B2010E94AFD8D3
:103BA0009B01AC01C501B4010E94E7DE87FF04C0A0
:103BB000FE01E35CFE4F01C0F70120813181129FBD
:103BC000C001139F900D11248F519F4F8C0F9D1F8B
:103BD000DF91CF911F910F91FF90EF90BF90AF9029
:103BE0009F908F907F906F905F904F900C94F525F1
:103BF000CF92DF92EF92FF920F931F93CF93DF93B9
:103C0000EC016A017B018C0101521F4FC8010E9427
:103C1000A1269B01AC01C701B6010E944FDA87FDC6
:103C200011C0C8010E94A12620E030E0A9010E9435
:103C3000E7DE882339F0CE010E94691CC757DE4FAA
:103C400081E08883DF91CF911F910F91FF90EF90DA
:103C5000DF90CF9008959C012B5F3E4FAC014F51F8
:103C60005F4F31F02417350719F026503109FACF8C
:103C70000C94A60ECF92DF92EF920F931F93CF93E7
:103C8000DF931F921F92CDB7DEB76C0147964A8330
:103C900069830E94C325E82EC60145960E94C3256C
:103CA000082FC60143960E94C325182FC6014196CE
:103CB0000E94C3252A816981462F612F0E942825F1
:103CC0008823B1F0C6010A960E94C325811104C061
:103CD00081E0F601808B0EC0C6010F900F90DF913E
:103CE000CF911F910F91EF90DF90CF900C94881B94
:103CF000F601108AC6010C960F900F90DF91CF91BC
:103D00001F910F91EF90DF90CF900C9409B8FC01B8
:103D100081E99FEF9183808393838283958384835A
:103D2000978386839187808793878287CF010C96BC
:103D30000C946E192F923F924F925F926F927F92E6
:103D40008F929F92AF92BF92CF92DF92EF92FF92AB
:103D50000F931F93CF93DF9300D01F921F92CDB785
:103D6000DEB76B8349015A019C0123593F4F3D83C4
:103D70002C838C010C581F4FFC01E955FF4FFA832F
:103D8000E983EC80FD80F0E1EF1AF108C7010E94A1
:103D9000C3252B81821399C08C819D810C970E9431
:103DA0009125882309F48EC02C803D803FEF231A93
:103DB000330AC1010E94C325782E81E078123DC0EC
:103DC000CC80DD8093E0C90ED11CC6010E94A126E3
:103DD0009B01AC01C501B4010E944FDA18167CF4B6
:103DE0008C819D8106970E94C325811104C0EC81BE
:103DF000FD8170821FC0C7010E94881B1EC0C601C2
:103E00000E94A1262B013C018C819D8105960E9478
:103E1000A1269B01AC01C301B2010E94AFD89B0156
:103E2000AC01C501B4010E94E7DE181634F0EC8144
:103E3000FD811082C8010E9409B8C1010E94C325FA
:103E4000823009F042C0CC80DD80F3E0CF0ED11C7F
:103E5000C6010E94A1269B01AC01C501B4010E94CC
:103E6000E7DE87FF10C08C819D8106970E94C325E5
:103E7000811105C021E0EC81FD8120831FC0C701B5
:103E80000E94881B22C0C6010E94A1266B017C01F2
:103E90008C819D8105960E94A1269B01AC01C701E2
:103EA000B6010E94B0D89B01AC01C501B4010E94CB
:103EB0004FDA87FD0AC0EC81FD811082C8010E94A3
:103EC00009B803C0EC81FD8110822C813D81235E05
:103ED0003F4F3D832C83035E1F4F89819A812817B2
:103EE000390709F04ECF0F900F900F900F900F9061
:103EF000DF91CF911F910F91FF90EF90DF90CF90C6
:103F0000BF90AF909F908F907F906F905F904F90F9
:103F10003F902F900895BF92CF92DF92EF92FF9241
:103F20000F931F93CF93DF93D62EC42EEC01C95568
:103F3000DF4F8C0100521F4FBB24B3947E0180E100
:103F4000E81AF108C7010E94C3258D111BC0CE01DC
:103F50000C970E9491258823A1F0CC2061F0CE011E
:103F600006970E94C325811102C0B88205C0C7010F
:103F70000E94881B07C01882CE0104970E9409B8CE
:103F800001C018826396C017D107C1F6DF91CF91A7
:103F90001F910F91FF90EF90DF90CF90BF90089509
:103FA000EF920F93CF93DF93EC014115510561051B
:103FB000710581F081E0FE01E35FFE4F8083319661
:103FC0004083518362837383CE01875F9E4F0E943B
:103FD00009B80BC061E08B5F9E4F0E94AB2560E08B
:103FE000CE01895F9E4F0E94DD25E12C00E020E09C
:103FF00041E062E3CE010E94846B41E062E3CE01C6
:10400000DF91CF910F91EF900C948B1F4F925F92A5
:104010006F927F928F929F92AF92BF92CF92DF92D8
:10402000EF92FF920F931F93CF93DF9300D0CDB702
:10403000DEB74B01102FCB0104962B834A830E94DD
:104040009125882309F4ABC0C40147960E94C3257B
:10405000E82EC40145960E94C325082FC40143964B
:104060000E94C325682FC401419669830E94C3251D
:104070002B814A8169810E9428259401245F3F4F4A
:104080007901882309F4CDC054013BE1A30EB11C92
:10409000C5010E94C325F4013A966F01883C09F0DE
:1040A00081C0C40149960E94C325823341F0843601
:1040B00059F0813061F401E01F3150F008C01F5108
:1040C00001E0183228F003C001E0173408F400E0E2
:1040D000C6010E94C325811107C0002309F4A1C0B5
:1040E00081E0F401808BC3C0C7010E94C615683E01
:1040F00073408105910518F4002309F4B8C0C70185
:104100000E94C6152B013C015401F8E0AF0EB11C12
:10411000C5010E94C325282F30E0A0E6BAEE0E9418
:104120002CE0641575058605970510F001119BC0FC
:10413000C7010E94C6152B013C01C5010E94C32581
:10414000282F30E0A0E6BAEE0E942CE06415750539
:104150008605970520F0F4018089811184C0C7018C
:104160000E94C6152B013C01C5010E94C325182FD2
:10417000C6010E94C325412F50E060E070E09A0123
:10418000AB01280F311D411D511DA0E6BAEE0E9462
:1041900021E0641575058605970508F468C0F401EB
:1041A000108A9AC0C5010E94C3258B3CE9F4C60160
:1041B0000E94C325811108C0C40149960E94C325ED
:1041C000811708F08DCF2DC0C7010E94C615683E2B
:1041D00073408105910540F5C40149960E94C325AD
:1041E000811708F444C020C0C6010E94C325811174
:1041F00008C0C40149960E94C325181708F070CF63
:1042000010C0C7010E94C615683E73408105910524
:1042100008F043C0C40149960E94C325181738F11D
:104220003CC0F401108A23C0C7010E94C6152B01AF
:104230003C015401F8E0AF0EB11CC5010E94C3253A
:10424000282F30E0A0E6BAEE0E942CE06415750538
:104250008605970508F46CCFC40149960E94C325D2
:10426000811708F465CF81E0F401808B35C0C70168
:104270000F900F900F90DF91CF911F910F91FF90B2
:10428000EF90DF90CF90BF90AF909F908F907F90F6
:104290006F905F904F900C9409B8C7010E94C615AB
:1042A0002B013C01540128E0A20EB11CC5010E9463
:1042B000C325282F30E0A0E6BAEE0E942CE064155A
:1042C00075058605970508F433CFC40149960E9409
:1042D000C325181740F62CCF0F900F900F90DF9149
:1042E000CF911F910F91FF90EF90DF90CF90BF90F3
:1042F000AF909F908F907F906F905F904F900895B8
:10430000CF92DF92EF92FF920F931F93CF93DF93A1
:104310001F92CDB7DEB77C01C12CD12C87010C0DCB
:104320001D1DC80169830E94C3256981861749F054
:104330008FE1C80ED11C8DE5C816D10479F7C701ED
:1043400001C0C8010F90DF91CF911F910F91FF9095
:10435000EF90DF90CF9008950F931F93CF93DF934B
:10436000EC01062F142F835A9F4F0E94C325801300
:1043700006C0612FCE0182599F4F0E94DD25CE01DC
:1043800086589F4F0E94C32580130AC0612FCE011B
:1043900085579F4FDF91CF911F910F910C94DD2591
:1043A000DF91CF911F910F910895CF92DF92EF92FD
:1043B000FF921F93CF93DF93EC01162F69017A01CF
:1043C000835A9F4F0E94C325811307C0B701A601DE
:1043D000CE0180599F4F0E94E426CE0186589F4F00
:1043E0000E94C32581130EC0B701A601CE018357D9
:1043F0009F4FDF91CF911F91FF90EF90DF90CF9073
:104400000C94E426DF91CF911F91FF90EF90DF9005
:10441000CF900895EF92FF920F931F93CF93DF9366
:10442000F62EE42EEC018C01035A1F4FCE010E94A0
:10443000C3258F1105C06E2DCE014B960E94DD2540
:104440006F96C017D10791F7DF91CF911F910F9110
:10445000FF90EF900895EF92FF920F931F93CF93E9
:10446000DF93F62EE42EEC018C01035A1F4FCE0190
:104470000E94C3258F1105C06E2DCE0149960E9462
:10448000DD256F96C017D10791F7DF91CF911F916E
:104490000F91FF90EF900895CF92DF92EF92FF92ED
:1044A0000F931F93CF93DF93EC01F62EE42E8C0134
:1044B0006C018DE5C80ED11CC8010E94C3258F1167
:1044C00005C06E2DC8010A960E94DD25015E1F4FB2
:1044D0000C151D0589F7C8010E94C3258F1106C060
:1044E0006E2DCE0189599F4F0E94DD25CE01865841
:1044F0009F4F0E94C3258F1106C06E2DCE018C5791
:104500009F4F0E94DD258E0109561F4FC053DF4F7C
:10451000C8010E94C3258F1105C06E2DC8010A96DF
:104520000E94DD250D5E1F4F0C171D0789F7DF91D7
:10453000CF911F910F91FF90EF90DF90CF90089552
:10454000089508950F931F93CF93DF93EC014230AA
:1045500018F08C8188608C834F836887222329F030
:10456000413019F48C8184608C8364E670E080E0D3
:1045700090E00E94B9AC6C8164FD31C0E881F981A2
:104580000684F785E02D42E063E0CE0119958BE4C7
:1045900096E40197F1F7E881F9810684F785E02D2B
:1045A00042E063E0CE01199503E512E0C8010197EE
:1045B000F1F7E881F9810684F785E02D42E063E0B8
:1045C000CE011995C8010197F1F7E881F9810684B8
:1045D000F785E02D42E062E0CE01199517C06062D8
:1045E000CE010E9426918BE496E40197F1F76C814D
:1045F0006062CE010E94269103E512E0C801019796
:10460000F1F76C816062CE010E942691C80101978A
:10461000F1F76C816062CE010E9426918BEE90E0F2
:104620000197F1F784E08D836CE0CE010E94269122
:10463000CE010E942E9182E08E8366E0CE010E9420
:104640002691E881F9810484F585E02D6FEFCE0194
:10465000DF91CF911F910F911994CF93DF93D62FB4
:10466000C42F61E08D2F0E945EAC61E08C2F0E9410
:104670005EAC61E08D2F0E942EAC61E08C2F0E9419
:104680002EAC60E08C2FDF91CF910C942EACEF928A
:10469000FF920F931F93CF93DF93C62FF72ED42F44
:1046A000E52E60E08C2F0E945EAC61E08D2F0E94B1
:1046B0005EAC6D2F7E2D8C2F9F2D0E94DDB700E00C
:1046C00010E0182F61E08C2F0E945EAC61E08C2F0F
:1046D0000E942EAC60E08C2F0E942EAC61E08D2FEA
:1046E0000E942EAC60E08D2F0E942EAC60E08C2FDB
:1046F0000E945EAC6D2F7E2D8C2F9F2D0E94DDB70A
:10470000802B912BDF91CF911F910F91FF90EF9014
:1047100008951F93CF93DF93162FC42FD22F61E0FC
:10472000842F0E945EAC61E08D2F0E945EAC61E040
:104730008C2F0E942EAC61E08D2F0E942EAC60E089
:104740008C2F0E942EAC60E08D2F0E942EAC61E079
:104750008D2F0E942EAC61E08C2F0E942EAC60E069
:104760008D2F0E942EAC412F6D2F8C2F0E9416B8DA
:1047700061E08D2F0E942EAC60E08C2F0E945EAC19
:104780008C2F0E9405AC60E08D2F0E942EAC8C2FE8
:10479000DF91CF911F910C9405ACAF92BF92CF9255
:1047A000DF92EF92FF920F931F93CF93DF931F92AD
:1047B0001F92CDB7DEB78B016B0124E0C20ED11C76
:1047C0007B015C01A61AB70A95012E0D3F1D3A83A5
:1047D0002983CE0101960E94F512F70181937F0192
:1047E000EC15FD0589F7C8010F900F90DF91CF916F
:1047F0001F910F91FF90EF90DF90CF90BF90AF90FF
:104800000895EF92FF920F931F93CF93DF931F9220
:104810001F92CDB7DEB78C017B019A838983CE01CD
:1048200001960E94F512F70180830F5F1F4F1A83D4
:104830000983CE0101960E94F512F7018183C70119
:104840000F900F90DF91CF911F910F91FF90EF90FC
:104850000895CF93DF93EC018C81811111C08D817C
:1048600081110EC02C853D854A855B8563E070E033
:10487000CE010E94892381E08C83CE010E9409B879
:10488000CE010E94C615693E73408105910518F05E
:104890008C8181111DC0CE010E94C615693E7340F6
:1048A00081059105A8F18D81882391F14C855D8565
:1048B0006A857B85CE010E944723998788874C852E
:1048C0005D856A857B85CE010E942D231D8220C0D7
:1048D0004C855D856A857B85CE010E9447239F8339
:1048E0008E834C855D856A857B85CE010E942D2354
:1048F0001C822C853D854A855B8565E070E0CE0194
:104900000E94892381E08D83CE010E9409B8C3CF24
:10491000DF91CF9108954F925F926F927F928F9225
:104920009F92AF92BF92CF92DF92EF92FF92CF937E
:10493000DF93EC010E94292468857985072E000CFD
:10494000880B990B0E94EEDE6B017C016E817F81EA
:10495000072E000C880B990B0E94EEDE2AE037ED43
:1049600043E25CE30E944DDF20E030E040E252E4AD
:104970000E94AFD820E030E048EC51E40E94AFD86C
:104980004B015C012CEA35EC47EA58E3C701B6015C
:104990000E944DDF2AE037ED43E25CE30E94B0D88D
:1049A0009B01AC01C501B4010E944DDF4B015C01CC
:1049B00024E533EE45E25DE3C701B6010E944DDF19
:1049C00020E030E040E850E40E94AFD82B013C01E9
:1049D00022EA37EE4BE356EBC701B6010E944DDFEA
:1049E000A70196010E944DDF9B01AC01C301B201FA
:1049F0000E94B0D89B01AC01C501B4010E94B0D89F
:104A0000DF91CF91FF90EF90DF90CF90BF90AF906C
:104A10009F908F907F906F905F904F900895CF936D
:104A2000DF93EC010E9429246AE174E080E090E0C9
:104A30000E94B9ACCE010E9429246AE174E080E0B2
:104A400090E00E94B9ACCE01DF91CF910C94292463
:104A5000EF92FF920F9370E09CE3899F600D711DB0
:104A6000112430E08CE3489F200D311D1124F12CDE
:104A70009CE3099FE00CF11C1124E616F70648F4AC
:104A800080E6E81A8AEFF80A2617370728F4205636
:104A90003A4F2617370720F081E0E216F30608F4B4
:104AA00080E00F91FF90EF900895FC01808191814B
:104AB000680F791F7183608382819381480F591F2A
:104AC00053834283808191818831910524F04897F6
:104AD00091838083F7CF828193818C33910554F049
:104AE000208131812F5F3F4F31832083CC97938387
:104AF0008283F1CF8081918197FF04C04896918392
:104B00008083F8CF8281938197FF0AC02081318111
:104B10002150310931832083CC9693838283F2CF55
:104B20000895CF93DF931F921F92CDB7DEB7FC019C
:104B3000808191818139FFEF9F0739F09A838983C2
:104B4000CE0101960E94F51201C080E00F900F90F7
:104B5000DF91CF910895CF93DF931F921F92CDB72E
:104B6000DEB7FC01808191818139FFEF9F0731F031
:104B70009A838983CE0101960E94CE130F900F90E5
:104B8000DF91CF910895CF93DF931F921F92CDB7FE
:104B9000DEB7FC01808191818139FFEF9F0739F0F9
:104BA0009A838983CE0101960E94F51201C08FEF8E
:104BB0000F900F90DF91CF910895CF93DF931F92C5
:104BC0001F92CDB7DEB7FC01808191818139FFEF63
:104BD0009F0731F09A838983CE0101960E94CE13FC
:104BE0000F900F90DF91CF9108950F931F93CF9364
:104BF000DF9300D01F92CDB7DEB7FC010081118199
:104C00000139FFEF1F0799F01A830983CE0101963E
:104C10000E94F5128B830F5F1F4F1A830983CE0109
:104C200001960E94F5128C838B819C8100C00F90AD
:104C30000F900F900F90DF91CF911F910F910895DA
:104C40000F931F93CF93DF9300D01F92CDB7DEB7A2
:104C50007C836B83FC01008111810139FFEF1F0709
:104C600081F06B811A830983CE0101960E94CE13D5
:104C70006C810F5F1F4F1A830983CE0101960E943A
:104C8000CE130F900F900F900F90DF91CF911F9147
:104C90000F9108950F931F93CF93DF9300D01F922E
:104CA000CDB7DEB7FC01008111810139FFEF1F078D
:104CB00099F01A830983CE0101960E94F5128B8325
:104CC0000F5F1F4F1A830983CE0101960E94F512D0
:104CD0008C838B819C8102C08FEF90E00F900F90AE
:104CE0000F900F90DF91CF911F910F9108950F9327
:104CF0001F93CF93DF9300D01F92CDB7DEB77C8395
:104D00006B83FC01008111810139FFEF1F0781F0E6
:104D10006B811A830983CE0101960E94CE136C81A8
:104D20000F5F1F4F1A830983CE0101960E94CE1395
:104D30000F900F900F900F90DF91CF911F910F91D7
:104D40000895CF92DF92EF92FF920F931F93CF932C
:104D5000DF9300D000D0CDB7DEB7FC0120813181D8
:104D60002139FFEF3F07E9F06E0185E0C80ED11C45
:104D70008E010F5F1F4F7901E01AF10AC701800F02
:104D8000911F9E838D83C6010E94F512F8018193C5
:104D90008F01EC15FD0591F769817A818B819C81EA
:104DA00004C060E070E08FE793E426960FB6F894B5
:104DB000DEBF0FBECDBFDF91CF911F910F91FF904E
:104DC000EF90DF90CF900895CF92DF92EF92FF9215
:104DD0000F931F93CF93DF9300D000D0CDB7DEB7F2
:104DE0004B835C836D837E83FC018081918181395B
:104DF000FFEF9F07C9F06E0127E0C20ED11C8E01A4
:104E00000D5F1F4F7C01E01AF10AC701800F911F4F
:104E1000F80161918F019A838983CE0101960E94E6
:104E2000CE130C151D0589F726960FB6F894DEBF34
:104E30000FBECDBFDF91CF911F910F91FF90EF90EB
:104E4000DF90CF9008950F931F93CF93DF93EC01E2
:104E50000E94C325811109C080916E1990916F192C
:104E600020917019309171191DC0CE010E94C32587
:104E7000813059F4CE0102960E944A26998B888B84
:104E8000CE0104960E944A2626C0CE010E94C32568
:104E9000823019F5809168199091691920916A19E9
:104EA00030916B193D8B2C8B9F8B8E8BCE01049692
:104EB0000E944A268C01CE0102960E944A26BC011D
:104EC000A801CE0144960E9455258C899D89998B15
:104ED000888B8E899F899B8B8A8BDF91CF911F91C5
:104EE0000F910895EF92FF920F931F93CF93DF934B
:104EF000EC017B018A010E94C325811109C08091C8
:104F00006E1990916F19209170193091711917C015
:104F1000CE010E94C325813029F4F98AE88A1B8BCF
:104F20000A8B1FC0CE010E94C3258230D1F480912C
:104F300068199091691920916A1930916B193D8B0C
:104F40002C8B9F8B8E8BA801B701CE0144960E94BB
:104F500055258C899D89998B888B8E899F899B8B00
:104F60008A8BB701CE0102960E947726B801CE0146
:104F70000496DF91CF911F910F91FF90EF900C94C9
:104F80007726DF92EF92FF920F931F93CF93DF93D9
:104F9000CDB7DEB768970FB6F894DEBF0FBECDBFB2
:104FA0008C01FC01808191819A838983CE010196D5
:104FB0000E94F512D82EBE01695E7F4FF8018281F2
:104FC00093810E940124BE016B5E7F4FF8018481B2
:104FD00095810E940124BE01635F7F4FF8018681A5
:104FE00097810E94CD23BE01675F7F4FF8018085C6
:104FF00091850E94CD23BE016B5F7F4FF8018285B2
:1050000093850E94CD23BE016F5F7F4FF801848599
:1050100095850E94CD23F801E684F784FA8AE98A0F
:10502000CE0141960E94F5128B8BFFEFEF1AFF0A1B
:10503000FA8AE98ACE0141960E94F5128C8B6D2D79
:10504000C8010E94DD254D895E896F89788DC80170
:105050000E94722749855A856B857C85C801089610
:105060000E94E42649815A816B817C81C8010C969B
:105070000E94E4264D855E856F857889C801069675
:105080000E94E4264D815E816F817885C8010A9671
:105090000E94E4266B897C89C8010E960E94202616
:1050A00068960FB6F894DEBF0FBECDBFDF91CF91EB
:1050B0001F910F91FF90EF90DF9008950F931F9332
:1050C000CF93DF93EC018C01045C1F4F60E070E034
:1050D000CB0129913991499159910E94B0D8C017BB
:1050E000D107B9F720E030E040E751E40E9421D930
:1050F000DF91CF911F910F910895CF92DF92EF92A0
:10510000FF920F931F93CF93DF93EC016A017B0112
:105110008C01005C1F4FC8010E94C61564367105E2
:1051200081059105E0F0FE01FC96B291A291929169
:10513000829184839583A683B783EC17FD07A9F733
:10514000C082D182E282F382C801DF91CF911F91A8
:105150000F91FF90EF90DF90CF900C9409B8DF9102
:10516000CF911F910F91FF90EF90DF90CF90089516
:105170000F931F93CF93DF93EC018C01005C1F4FC3
:10518000C8010E946E19FE01CE01CC9611921192B7
:1051900011921192E817F907C9F7C801DF91CF9171
:1051A0001F910F910C9409B84F925F926F927F926A
:1051B0008F929F92AF92BF92CF92DF92EF92FF9227
:1051C0000F931F934A015B016801790129E23CE5D5
:1051D0004DE851E4C701B6010E944DDF2B013C01AF
:1051E00020E030E843E753E4C701B6010E94B0D89D
:1051F0009B01AC01C301B2010E9421D99B01AC010A
:105200006DE478EF8DE290E40E9454DA21E835E90C
:1052100043EC50E40E944DDFA50194010E944DDF54
:105220002EEA36EB4AE050E40E944DDF4B015C0170
:1052300023E333E948E853E4C701B6010E94B0D83C
:105240009B01AC01C501B4010E9421D91F910F91AE
:10525000FF90EF90DF90CF90BF90AF909F908F9096
:105260007F906F905F904F9008958F929F92AF9232
:10527000BF92CF92DF92EF92FF920F931F93CF9343
:10528000DF93EC016A017B018A019B0140E050E061
:1052900068EC72E40E94D4284B015C01488159817A
:1052A0006A817B8197018601CE010E94D4289B01EF
:1052B000AC01C501B4010E94AFD8DF91CF911F911D
:1052C0000F91FF90EF90DF90CF90BF90AF909F90A5
:1052D0008F9008954F925F926F927F928F929F92DC
:1052E000AF92BF92CF92DF92EF92FF920F931F93F4
:1052F000CF93DF93EC016A017B018C01065B1F4FAA
:10530000C8010E94C615683E73408105910538F0BA
:10531000C882D982EA82FB82C8010E9409B8F09053
:10532000CA058F2D6AE00E94FCD7911116C08F2DFF
:1053300090E06AE070E00E942AD88B01045E1F4F63
:10534000000F111F0C0F1D1F688179818A819B81BD
:105350000E9493D9F80171836083F11050C080904E
:10536000DE05912C8E01085C1F4F5E01F4E4AF0E48
:10537000B11CC12CD12C760126013701F8016191B5
:1053800071918F016F3F7105C1F0072E000C880BE2
:10539000990B0E94EEDE9B01AC01C301B2010E9499
:1053A000B0D82B013C0120E030E040E85FE3C701CA
:1053B000B6010E94B0D86B017C010A151B05F1F6FD
:1053C00020E030E0A901C701B6010E94E7DE8111AB
:1053D00005C0688179818A819B8106C0A7019601F9
:1053E000C301B2010E9421D90E9493D9F4E08F0E2B
:1053F000911C880C991CC80DD91D79836883DF9195
:10540000CF911F910F91FF90EF90DF90CF90BF90C1
:10541000AF909F908F907F906F905F904F90089586
:10542000FC01DC0118969C01285C3F4F4FEF50E0D7
:105430008FEF90E04D935D93A217B307C9F791AF3B
:1054400080AF93AF82AF95AF84AF97AF86AFDF01E8
:10545000A05CBF4F11969C938E9312968D939C9354
:10546000CF01865B9F4F0C9409B8CF93DF93EC017B
:105470008A5B9F4F0E946E19CE01865B9F4F0E94F0
:105480006E19CE01DF91CF910C94102AEF920F93F9
:10549000CF93DF93EC01262FE12C00E041E062E3A3
:1054A0000E94846B41E062E3CE01DF91CF910F91C6
:1054B000EF900C948B1FCF93DF93EC018C5E9E4F8B
:1054C0000E945A6E811106C0CE01875E9E4F0E94D7
:1054D0005A6E811181E0DF91CF9108950F931F9350
:1054E000CF93DF93EC018C0106571E4FC8010E9439
:1054F000C615672B682B692B69F0C8010E94C61579
:105500006C3D75408105910528F4CE010E945B2A0F
:10551000811101C080E0DF91CF911F910F9108951B
:105520002F923F924F925F926F927F928F929F92B3
:10553000AF92BF92CF92DF92EF92FF920F931F93A1
:10554000CF93DF93CDB7DEB760970FB6F894DEBF89
:105550000FBECDBF4C01BC01CE0101960E9466A2D8
:1055600068EC78E0CE0101960E9474A5CE01019608
:105570000E946F8D94012F5F3F4F06E911E0209F3D
:10558000C001219F900D309F900D11249C01235448
:10559000354F3901C9010E94C325809E1001819EAB
:1055A000300C909E300C1124823008F4C9C024E6DF
:1055B000289DC001299D900D11249C0125513C4F2F
:1055C0003E872D8772E0872E912C388A2F86C10165
:1055D0008759934F9C878B87C3010E94C32590E016
:1055E000881599050CF4EDC0C3010E94C32590E015
:1055F0008815990509F0A0C01091D4150091D51512
:10560000F090D615E090D71596E0989D2001999DD1
:10561000500C11248F859889840D951D9C012D595E
:10562000334F2901C9010E94A1266F83788789879A
:105630009A878B859C850E94A1269B01AC01EF92E5
:10564000FF920F931F93A12CB12C60E7C62E61E44B
:10565000D62EEF80F88409851A856CEA78E08AEB0B
:1056600098E00E9413A80E94BB5D0F900F900F90CE
:105670000F90882309F460C0C2010E94A1266B012B
:105680007C018B859C850E94A1269B01AC01C701F2
:10569000B6010E94AFD86B017C01B4016150710961
:1056A000072E000C880B990B0E94EEDE9B01AC01CB
:1056B000C701B6010E9421D96B017C01412C512CFC
:1056C00002E010E05401C3010E94C32592012A5F49
:1056D0003F4F38872F8390E0801791074CF1B50139
:1056E000601B710B072E000C880B990B0E94EEDEDD
:1056F0009B01AC01C701B6010E944DDF9B01AC01CB
:1057000060911216709113168091141690911516CF
:105710000E94AFD8AB01BC01C201820D931D81591B
:10572000934F0E94E4260F5F1F4F4F805884CBCFCA
:105730008D859E850E94F75D3FEF831A930A4CCFBB
:105740001091D4150091D515F090D615E090D7158D
:10575000C1018759934F1C010E94A126EF92FF922D
:105760000F931F93A12CB12C20E7C22E21E4D22E3F
:105770007B018C0120E030E040EA50EC67E978E002
:1057800085EA98E00E9413A80E94BB5D0F900F90DD
:105790000F900F908823A9F0409112165091131684
:1057A0006091141670911516C1010E94E42624E63A
:1057B000289DC001299D900D112485519C4F0E9468
:1057C000F75D60960FB6F894DEBF0FBECDBFDF91D8
:1057D000CF911F910F91FF90EF90DF90CF90BF90EE
:1057E000AF909F908F907F906F905F904F903F9081
:1057F0002F9008956F927F928F929F92AF92BF9257
:10580000CF92DF92EF92FF920F931F93CF93DF938C
:1058100000D000D0CDB7DEB78C01AC014F5F5F4F39
:1058200026E931E0429FC001439F900D529F900DA9
:1058300011248354954F0E94C325823058F084E68A
:10584000809F4001819F900C112424E0821A2CEF4C
:10585000920A0AC084E6809F4001819F900C112427
:1058600035E1831A3CEF930AB801CE0101960E94FC
:1058700066A264E878E0CE0101960E9474A5CE018C
:1058800001960E946F8DF090D415E090D515D090C0
:10589000D615C090D71526E931E0029FC001039FBD
:1058A000900D129F900D11249C012759334F3901FF
:1058B000C9010E94A126CF92DF92EF92FF92A12C04
:1058C000B12C20E7C22E21E4D22E7B018C0120E0F6
:1058D00030E040EA50EC68E678E086E798E00E9425
:1058E00013A80E94BB5D0F900F900F900F9088231C
:1058F00071F0409112165091131660911416709128
:105900001516C3010E94E426C4010E94F75D269685
:105910000FB6F894DEBF0FBECDBFDF91CF911F91C0
:105920000F91FF90EF90DF90CF90BF90AF909F903E
:105930008F907F906F9008950F931F93CF93DF9375
:1059400000D000D0CDB7DEB78C01BC01CE010196EE
:105950000E9466A260ED77E0CE0101960E9474A5D8
:10596000CE0101960E946F8D86E991E0089FF001BB
:10597000099FF00D189FF00D1124E256F34F60813E
:10598000718144E650E080E090E00E9458A40E94BB
:10599000BB5D882391F080912419909125199093F3
:1059A000101680930F1624E6209FC001219F900DB2
:1059B0001124825E9B4F0E94F75D26960FB6F894E5
:1059C000DEBF0FBECDBFDF91CF911F910F91089524
:1059D0002F923F924F925F926F927F928F929F92FF
:1059E000AF92BF92CF92DF92EF92FF920F931F93ED
:1059F000CF93DF93CDB7DEB728970FB6F894DEBF0D
:105A00000FBECDBF8C01BC01CE0101960E9466A2E3
:105A100065E578E0CE0101960E9474A5CE0101965D
:105A20000E946F8D98012F5F3F4F96E9A92EBB24EE
:105A3000B3942A9DC0012B9D900D3A9D900D112489
:105A40009C012354354F6901C9010E94C3250A9D59
:105A500070010B9DF00C1A9DF00C1124823008F49B
:105A600071C0C6010E94C325A82EB12C970146E043
:105A7000849F200D311D11242F59334F3901C90145
:105A80000E94F5252C01C7018959934F4C010E94B2
:105A9000F52544E650E0B2010E9458A40E94BB5D87
:105AA000882309F475C0C3010E94F5253C01C40197
:105AB0000E94F5259301281B390BC901950121503E
:105AC0003109B9010E9416D84B01629F2001639FE2
:105AD000500C729F500C112420E030E0612C712C8E
