:100000000C94680E0C94A1400C9476400C944B40D8
:100010000C9420400C94F53F0C94CA3F0C949F3FE5
:100020000C94743F0C94990E0C94990E0C94990EA8
:100030000C94990E0C94990E0C94990E0C94990EA4
:100040000C94990E0C94990E0C94990E0C94990E94
:100050000C94990E0C94990E0C94990E0C941BCE42
:100060000C94990E0C9483420C9459420C94990E62
:100070000C94990E0C94990E0C94990E0C94990E64
:100080000C94990E0C94990E0C94990E0C94990E54
:100090000C94990E0C94990E0C94990E0C949763F1
:1000A0000C94990E0C94990E0C94990E0C94990E34
:1000B0000C94990E0C94990E0C94990E0C94990E24
:1000C0000C94990E0C94990E0C94990E0C94990E14
:1000D0000C94990E0C94990E0C94990E0C94990E04
:1000E0000C94990EAED8C5D8C5D8C5D8C5D8C5D832
:1000F000C5D899D8C5D8C5D8C5D8C5D8C5D8A1D868
:1001000062D869D870D877D884D88BD8C5D8C5D8E4
:1001100092D8C5D8C5D8C5D8C5D8C5D8C5D8C5D82A
:10012000C3D8BAD8C3D8C3D8D08CD38CD68CD98CEA
:10013000DC8CDF8CE28CE58CE88C3FCD42CD31CD80
:1001400035CD3BCD79CD46CD4ACD50CD54CD58CDD2
:100150005ECD62CD66CD79CD6CCD70CD74CD072CE2
:100160007AA5BA6CC590DA3B9365FC8BBC53F8104A
:10017000FD3C5692834DBD879D3AB63DCBC9BF5BD2
:10018000BE73DA0FC93F05A84CCDB2D44EB938368C
:10019000A9020C50B9918688083CA6AAAA2ABE00DA
:1001A0000000803F08000000BE922449123EABAA26
:1001B000AA2ABECDCCCC4C3E00000080BEABAAAA81
:1001C000AA3E00000000BF000000803F00000000C9
:1001D00000084178D3BB4387D1133D190E3CC3BD02
:1001E0004282AD2B3E68EC8276BED98FE1A93E4CAF
:1001F00080EFFFBE01C4FF7F3F00000000000664E7
:10020000EC1B3C04BC163E3BE5B93CC93C37C29EE6
:100210005A3D660498083EEA69AAAA3E000000809A
:100220003F07634236B79BD8A71A39685618AEBA4B
:10023000AB558C1D3CB7CC5763BD6DEDFD753EF6DF
:10024000177231BF000000803F000C94A3610C9432
:100250002D3C0C94E3870C94283D0C9464480C943A
:100260003C830C9446CD0C94E58C0C94974F0C94E5
:10027000C26D0C9421810C94B8B70C9478610C94E5
:10028000DA8B0C94CD3C0C94D2710C9449360C94BE
:10029000A3980C94DB8A0C944A820C9449460C94E3
:1002A00070D80C94BAD80C94AF660C9465470C9433
:1002B0009DC30C94B46C0C94EF5D0C9437610C945A
:1002C000965E0C94C74C0C943FCD0C9479CD0C9455
:1002D000308F0C943C8C0C94E88C0C948BD80C9440
:1002E0001F980C94745E0C94085D0C94E0E50C94DB
:1002F00051490C94AED80C94EE4D0C94B28C0C94E5
:10030000DC340C9436350C9435CD0C94008F0C9461
:100310008D8C0C9433880C94C4370C948B340C94CF
:100320003E600C9458CD0C94A1D80C944C800C9445
:100330001E3A0C945B460C94F33B0C94EA3A0C94F2
:10034000248D0C94B84A0C94120F0C9486660C946D
:1003500006890C9487660C94634B0C9458AC0C94EF
:100360000D700C9492D80C94FE710C94797D0C94C1
:100370004F310C94D68C0C940E470C944ACD0C94AF
:10038000266B0C94FF7E0C94526E0C9450CD0C9402
:10039000AF320C94FB650C94A9860C943BCD0C9465
:1003A000141A0C94B2370C945ECD0C9459C50C946D
:1003B0002A720C94B2660C94D1820C94868D0C94A3
:1003C000D98C0C9477D80C9414840C94D3610C942D
:1003D00056720C94D38C0C942C8A0C942F870C940A
:1003E000DE0E0C9466CD0C94DF8C0C94306B0C9468
:1003F000EF7F0C94413C0C94DC8C0C9487610C9442
:100400001B5F0C941A600C9493660C949B610C9483
:100410009F840C945A6B0C9469D80C9470450C947E
:100420003B4F0C941E3C0C94F07D0C94C0390C9402
:100430008B660C94962C0C9477610C94165E0C943D
:10044000F23B0C94578D0C9404390C94863C0C941C
:1004500025940C94493A0C94E28C0C9431CD0C9474
:10046000D7360C94C3650C94B6970C9461980C9491
:10047000113B0C9470CD0C9482720C9427370C9421
:1004800054510C942E7C0C944D6D0C94D0810C9492
:10049000957C0C94C85D0C94715F0C9489870C94C6
:1004A00084D80C944E330C9442990C941D4A0C94AD
:1004B000F1470C94D08C0C9499D80C94345C0C9427
:1004C0005D4C0C9442CD0C94E34E0C9488650C94D6
:1004D000EA980C94E3440C9462390C945A3B0C94C3
:1004E00023610C94C3D80C9462D80C94863A0C9473
:1004F000535D0C944E5E0C949E5D0C9444610C9480
:10050000F27C0C949C350C94C33A0C946CCD0C94F6
:100510009A330C94F5950C9487380C94A9650C9437
:1005200070660C943A380C9402620C944F660C94EA
:10053000EF450C94F18C0C94C5D80C9454CD0C94CC
:10054000E0DF0C94C1480C9474CD0C94CAB70C94A1
:10055000FB6C0C9462CD0C944F3C0C94A7496572D3
:10056000726F72206372656174696E672066696C70
:1005700065004D6F6E74686C79207265636F72648C
:100580002066696C652065786973747300437265D1
:100590006174696E67206D6F6E74686C7920726526
:1005A000636F72642066696C65006572726F722099
:1005B0006372656174696E672066696C6500446189
:1005C000696C79207265636F72642066696C65205E
:1005D000657869737473004372656174696E67202E
:1005E0006461696C79207265636F72642066696CFE
:1005F000650043617264206661696C65642C206FDC
:1006000072206E6F742070726573656E7400496E2F
:10061000697469616C697A696E672053442063610B
:1006200072642E2E2E006661696C7572652100560B
:10063000657273696F6E20353A2000566572736972
:100640006F6E203A200056657273696F6E203A20F3
:100650000056657273696F6E203A20002C002C00E2
:100660002C002C002C002C002C002C002C002C002A
:100670002C002C002C002C002C002C002C002C001A
:100680002C002C002C002C003A30302C003A004575
:1006900072726F722077726974696E6720746F204E
:1006A00066696C6500426F6F6C206F766572726967
:1006B0006465206F766572666C6F77202D206D61A2
:1006C0006B6520736F6D6520737061636521000039
:1006D0005EBCE2613FDD83C29C7E20A3FD1F419D85
:1006E000C3217FFCA2401E5F01E3BD3E6082DC238C
:1006F0007D9FC1421CFEA0E1BF5D0380DE3C62BE67
:10070000E0025CDF81633D7C22C09E1D43A1FF4669
:1007100018FAA427799BC584DA3866E5BB5907DB4C
:10072000856739BAE406581947A5FB7826C49A6547
:100730003BD987045AB8E6A7F91B45C6987A24F82E
:10074000A6441A99C7257B3A6486D85B05E7B98C1D
:10075000D2306EEDB3510F4E10F2AC2F7193CD111C
:100760004FADF3702ECC92D38D6F31B2EC0E50AFF3
:10077000F1134DCE90722C6D33D18F0C52B0EE32FE
:100780006C8ED0530DEFB1F0AE4C1291CF2D73CAD9
:10079000947628ABF517490856B4EA6937D58B57D4
:1007A00009EBB536688AD495CB2977F4AA4816E9BF
:1007B000B7550B88D6346A2B7597C94A14F6A874B6
:1007C0002AC896154BA9F7B6E80A54D7896B356C39
:1007D0006F772074656D7020616C61726D0068695F
:1007E00067682074656D7020616C61726D00202DEA
:1007F0002050554C53452054494D45202000202D74
:10080000205241494E204F564552524944450020FE
:100810002D205241494E20434C4F53452825290055
:100820001912DE07CF074436202D20414C41524D8E
:10083000204D454E55202020002020204C4F572091
:1008400054454D5020414C41524D20202000202045
:10085000484947482054454D5020414C41524D2075
:10086000202000204D494E2E2054454D50455241E8
:100870005455524528432900204D41582E205445B7
:100880004D504552415455524528432900202D20B2
:1008900057494E44204F5645525249444500202D59
:1008A000204D4158205350454544286B6D2F6829F1
:1008B00000202D20434F4C44204C4F434B00202D13
:1008C00020434C4F5345204154284329005B444961
:1008D0005341424C45445D00202D20425245414B3E
:1008E00020415428416D702900202D204C4F434B4E
:1008F000204F50454E286D696E2900202D204C4F09
:10090000434B20434C4F5345286D696E2900202DE1
:10091000204C4F434B20544F2025202020202000E6
:10092000202D2044454C415920286D696E292020F6
:10093000202000205B53454C462D43414C494252F8
:100940004154494F4E5DC2A0002D20524F54415496
:10095000494F4E205550287329002D20524F5441A5
:1009600054494F4E20444F574E287329002D204F95
:1009700050454E494E4720535445505320202000A7
:100980002D204D494E204F50454E494E4728252990
:100990002020002D204D4158204F50454E494E47B4
:1009A0002825292020007374617274206F70656E91
:1009B0003A202000636F6F6C543A202020202020C2
:1009C00020002D205354415254204F50454E494E43
:1009D000472843290066756C6C206F70656E3A205D
:1009E000202000636F6F6C54200066756C6C206F64
:1009F00070656E3A20202000636F6F6C543A20209F
:100A00002020202020002D2046554C4C204F5045C2
:100A10004E494E472843292000756E646572006177
:100A2000626F7665006C6F636B204F4E006C6F6376
:100A30006B204F46460076616C7600686561746590
:100A4000720066616E00726F6C6C757000616C6133
:100A5000726D00202D2050524F4752414D2050457D
:100A600052494F4400202D2050524F4752414D20B3
:100A7000504552494F4400202D2050554C5345209D
:100A800054494D45202000202D2050554C534520E1
:100A900054494D452020006D0C690C650C202D201B
:100AA00057454154484552205459504500202D2067
:100AB000534F494C204D4F495354286B50612900E6
:100AC000CB14D814E514202D2041535349474E2010
:100AD00054454E53494F4D00202D2048554D494413
:100AE00049545928672F6D332900202D2048554D32
:100AF00049445459205345545028252900202D207D
:100B0000414E414C4F47285629204F5645522E0002
:100B10001F0A190A202D205245464552454E43458D
:100B200000202D20544152474554202856292000AA
:100B30002D0A250A202D204445564943452041438E
:100B400054494F4E2000202D2048595354455245BA
:100B500053495320286D56292000202D204C4F4307
:100B60004B204F4E20286D696E29202000202D201B
:100B70004C4F434B204F464620286D696E29004D4F
:100B80000A460A420A3B0A360A2D205459504500AB
:100B9000706572696F64730074656D7065726174FD
:100BA000757265730073657474696E67730073742E
:100BB00061727420756E6465723A200068656174B4
:100BC000543A202020202020200073746172742069
:100BD00061626F76653A2000636F6F6C543A202033
:100BE0002020202020002D205354415254205445D1
:100BF0004D50284329002D20485953544552455300
:100C00004953284329202020004F4E2074696D65E8
:100C10002832346829203A20002D204F4E20544994
:100C20004D45286D696E2900A50B900B980BA50BFF
:100C3000980B2054454D5045524154555245532030
:100C40004D454E5520200063616E63656C00636FF7
:100C50006E6669726D00656E61626C6500646973D1
:100C600061626C650073756E006D697800636C6F0E
:100C7000756400726174696F006175746F004E0C69
:100C8000470C2020464143544F5259205345545459
:100C9000494E4753202000204441592F4E49474890
:100CA000542053455454494E475320005D0C560C74
:100CB0002020574541544845522D53455454494EE0
:100CC0004753202000790C730C6D0C690C650C20C7
:100CD0002020205345542057454154484552202058
:100CE000202020002020574541544845522D4144A2
:100CF0004A555354282529200020202020205345E0
:100D00005420484F55522020202020200020202011
:100D100020534554204D494E555453202020202027
:100D200000202020202020534554204441592020D9
:100D300020202020002020202020534554204D4FEB
:100D40004E544820202020200020202020205345E1
:100D500054205945415220202020202000202020CE
:100D6000534554204C41544954554445202020209B
:100D700000202020534554204C4F4E4749545544A1
:100D80004520202020005D20202000202020202041
:100D900020205B0020205345542054494D455A4F94
:100DA0004E4528555443292000302D355620616E7C
:100DB000616C6F6700737061726B66756E206B6932
:100DC00074004646465700464657007465737420C3
:100DD00072656C61797300746573742074656D70ED
:100DE00000B50DA90D5D0C202020414E454D4F4D05
:100DF000455445522020200020202020204C5558CA
:100E0000204D4554455220202020002020205445CC
:100E10004E53494F4D45544552203120200020204B
:100E20002054454E53494F4D4554455220322020C1
:100E30000020202054454E53494F4D4554455220E3
:100E40003320200021212120202020200043007C6D
:100E5000446577703A00212121202020202000675E
:100E60002F6D33007C48443A00212121202020208E
:100E70002000672F6D33007C41483A00212121205A
:100E8000202020200025007C52483A0043005432A4
:100E900034683A004300543132683A00212121205D
:100EA0002020004300543A00494E53494445004332
:100EB000007C446577703A00672F6D33007C4844AE
:100EC0003A00672F6D33007C41483A0025007C5280
:100ED000483A0043004D61783A0043004D696E3A4C
:100EE000004300543A004F555453494445006B6D3C
:100EF0002F6820200057696E64207370643A2000C8
:100F00006D6D2020005261696E203234683A2000F5
:100F100028303A726573657429006E6F2000796518
:100F200073005261696E3A200020202057454154D9
:100F30004845522053544154494F4E2020004A6F97
:100F4000756C65733A2000572F6D323A20004C754E
:100F500078203A2000202020524144494154494FF2
:100F60004E204441544120202000206B506120003D
:100F7000203A200054002054454E53494F4D4554CB
:100F8000455253204441544120200020412020203C
:100F9000005232203A20002041C2A02020005231CD
:100FA000203A20002020204D4F544F5253204355CB
:100FB0005252454E5420202000D70DCB0DC70DC2F4
:100FC0000D20544553542050524F4752414D532009
:100FD0000028434C4429002853554E2900284D49E8
:100FE0005829002F002F00207C003A003A00436C63
:100FF0006F636B206F76657272696465206F7665CA
:1010000072666C6F77202D206D616B6520736F6D3C
:10101000652073706163652100466C6F6174206F99
:1010200076657272696465206F766572666C6F773B
:10103000202D206D616B6520736F6D65207370616D
:101040006365210070726F74656374696F6E7300FD
:10105000737465707300726F746174696F6E20745D
:10106000696D650063616C696272617465007769BE
:101070006E64007261696E00636F6C64206C6F63F4
:101080006B00627265616B6572006C6F636B206FE1
:1010900070656E006C6F636B20636C6F7365006CC2
:1010A0006F636B20617420250019124410FB11F04E
:1010B00011E611202D204D41494E204D454E552021
:1010C000202020202000202D2050524F4752414DFB
:1010D00053202020202020006410561050102D2076
:1010E00053455420504152414D45544552532020C0
:1010F000002D20454E41424C4528434F4E46495213
:101100004D29002D2044495341424C4528434F4E20
:101110004649524D29008210781073106E10202D10
:101120002050524F54454354494F4E5300211220F2
:101130005B45585445524E414C20434F4E54524FFC
:101140004C5D20009F1094108A10202D204F564592
:10115000525249444520202020202020009F10C6C4
:10116000127A126A12202D2050524F4752414D20C0
:101170005459504500202D2044455348554D205387
:1011800045545028252900202D2050524F475241C8
:101190004D20504552494F4400202D2050524F477A
:1011A00052414D20504552494F4400202D204F5070
:1011B000454E20415428252900202D2050524F47CC
:1011C00052414D00202D2048554D4944495459283D
:1011D000672F6D332900202D2050554C5345205446
:1011E000494D452020006F76657272696465730011
:1011F000706172616D65746572730070726F677291
:10120000616D7300616E616C6F6720696E707574DB
:10121000006F6E2D74696D650064697361626C6541
:1012200000756E6C6F636B002870726F6772616D12
:10123000203129002870726F6772616D2032290099
:101240002870726F6772616D2033290070726F674A
:1012500072616D20310070726F6772616D203200B3
:1012600070726F6772616D20330064657368756DAD
:101270002864656669636974290064657368756DBF
:1012800028524825290068756D6964696679286463
:10129000656669636974290068756D696469667952
:1012A00028524825290068756D6964696679287334
:1012B0006F696C2900776561746865722D7370655C
:1012C00063696669630070756C7365002D20504119
:1012D0005553452054494D45287329202020002D81
:1012E00020485953544552455349532843292020F7
:1012F0002000191211120412FB11E6111912111219
:101300000412FB11F011E611202D204D41494E2011
:101310004D454E55002D20454E41424C4528434FEA
:101320004E4649524D29002D2044495341424C45D7
:1013300028434F4E4649524D29002D2044495341E0
:10134000424C4528434F4E4649524D2900202044E7
:10135000495341424C4520414C41524D20002112FD
:10136000205B45585445524E414C20434F4E5452F9
:101370004F4C5D2000C6122D0A250A202D204F5605
:10138000455252494445532020202020200040123D
:1013900034122812601234122812401256122812E7
:1013A000401234124C12601256122812601234127B
:1013B0004C12401256124C12601256124C12202D32
:1013C0002050524F4752414D5320202020202000D2
:1013D000202D204C4F434B2050554C5345286D69D0
:1013E0006E2900202D2050554C53452054494D4521
:1013F00000202D2050554C53452054494D45002088
:101400002D2050524F4752414D00250AC6127A12E4
:101410006A12250AC612B512A61298128612202D3B
:101420002050524F4752414D20545950450064615D
:10143000792F6E696768742073657474696E677359
:1014400000776561746865722061646A7573740001
:1014500073756E20747261636B696E670073657477
:101460002074656D7065726174757265730074695E
:101470006D652F636F6F72640073656E736F727347
:1014800000746573747300666163746F727920729F
:101490006573657400696E73696465006F75747354
:1014A000696465007261696E2073656E736F7200A6
:1014B000616E656D6F6D65746572006C75786D65D4
:1014C000746572006D6F746F72730074656E73690A
:1014D0006F6D65746572310074656E73696F6D65EB
:1014E000746572320074656E73696F6D65746572D0
:1014F000330064697361626C656400534854315809
:101500000044533138423230006275636B65742099
:101510006D6F6465004E4F20636F6E74616374007D
:101520004E4320636F6E74616374005D003E5B0028
:101530005D2000205B00434C440053554E005D008D
:10154000205B005D2000205B00202020204865619A
:1015500074696E672020436F6F6C696E6720005D51
:1015600000205B005D20003E5B00434C440053556F
:101570004E005D00205B005D2000205B00202020ED
:101580002048656174696E672020436F6F6C696ED7
:1015900067005D00205B005D2000205B00434C4441
:1015A0000053554E005D003E5B005D2000205B0057
:1015B0002020202048656174696E672020436F6F8A
:1015C0006C696E67005D00205B005D202000205B81
:1015D00000434C440053554E005D005B005D2020ED
:1015E000003E5B002020202048656174696E672002
:1015F00020436F6F6C696E6700436F6F6C696E6735
:101600000054454D504552415455524553002020F9
:1016100054454D504552415455524553282A43296B
:10162000202000501441142E1420202054454D50E9
:101630002053455454494E47532020200074656D73
:101640007020706172616D657465727300496E63BC
:1016500072656173652F646563722E20616C6C0026
:10166000202041444A5553542054454D5020323493
:10167000482020008714811479146E145D142020F2
:1016800020204D41494E204D454E55202020202000
:1016900000E514D814CB14C414BB14B014A4149CC7
:1016A0001495142053454C4543542053454E534FF5
:1016B00052200020494E534944452054454D502066
:1016C00053454E534F5220000115FB14F2144F5551
:1016D00054534944452054454D502053454E534F93
:1016E00052002015151509155D0C20202052414986
:1016F0004E2053454E534F522020200043002D00D2
:10170000430043004F4E20004F464600413A002020
:10171000202020202000285353290028434C290052
:1017200028535229003A004E47543A200028535378
:10173000290028434C290028535229003A005052CE
:10174000453A2000285353290028434C29002853A8
:101750005229003A004441593A20002853532900A5
:1017600028434C290028535229003A004449463A5C
:1017700020002F00284E47542900285052452900A8
:101780002844415929002844494629002020202086
:1017900020202020202000284E4754290028505285
:1017A0004529002844415929002844494629007CFC
:1017B000002020202020202020202020007C007CD1
:1017C000007C007C00286D6F726E696E67290028AE
:1017D0007072656E696768742900646179006E696A
:1017E000676874006D6F726E696E67007072656E07
:1017F0006967687400CF17C517DE17DA17EC17C5CD
:1018000017DE17DA17CF17E417DE17DA17EC17E42D
:1018100017DE17DA1720504552494F4453204D45E3
:101820004E552020005D005D3A5B0053756E726975
:101830007365203A20205B005D005D3A5B005375C4
:101840006E736574203A2020205B00202D205445C3
:101850004D5020504552494F440053554E2054524C
:1018600041434B494E472000202D2052414D5049C5
:101870004E470044494620284D4F524E494E472975
:101880002020202020005052454E49474854202017
:101890002020202020202020200048656174696ECF
:1018A000670054454D504552415455524553002010
:1018B0002054454D504552415455524553282A43D2
:1018C0002920200000002200250028002B002E00E7
:1018D0003100340002010000050108010B01000085
:1018E00020002300260029002C002F0032000001D8
:1018F00000000301060109010505050507050808A3
:101900000808020202020A0A080804040404010189
:10191000010101010101030303030303030304079E
:1019200007070C0C0C0C0C0C0C0C02020202060635
:101930000606060606060B0B0B0B0B0B0B0B010228
:1019400010202008081020401020408002010201D1
:101950000804020101020408102040808040201089
:1019600008040201800402018040201008040201E2
:10197000080402010102040810204080010204084A
:101980001020408000000A0B02090C0D0E0807030E
:101990000401000000000000000000000000000042
:1019A0000000000000000000000000000000000037
:1019B00012111000000000000000000000000000F4
:1019C0000000000000000000000025002020202072
:1019D0002020002020202020200025002020202062
:1019E000202000434C4F534520004F50454E2020AF
:1019F00000202020202020004F5645524C0020205F
:101A000020202020005D004F66662D74696D6528DA
:101A10006D696E293A3E5B005D004F6E2D74696DF5
:101A200065286D696E293A20205B005D004F66666F
:101A30002D74696D65286D696E293A205B005D0023
:101A40004F6E2D74696D65286D696E293A203E5B75
:101A5000005D2020003E5B005D202000205B0043F5
:101A60004C440053554E005D202000205B00434C49
:101A7000440053554E005D2020003E5B00726F74A1
:101A80006174696F6E20646F776E203A2000737402
:101A90006F7020636C6F73696E670073746172742A
:101AA00020636C6F73696E6700726F746174696F25
:101AB0006E207570203A200073746F70206F70650F
:101AC0006E696E67007374617274206F70656E6901
:101AD0006E6700666972737420636C6F73696E67FA
:101AE000007C3C3E5E2B3D3F2F5B5D3B2C2A225C05
:101AF0000020202020202020202020202020202006
:101B000020202020002020202020202020202020F5
:101B1000202020202020202000202D2000202020F8
:101B200020202020202020202020202020202020B5
:101B3000005B53554E5D005B434C445D005D2020CF
:101B40002020002020202020205B005D002B004D65
:101B50004F44203A202020202020205B00430043D7
:101B6000005D20202000202020202020205B005D20
:101B700020202000202020202020205B005D005D10
:101B80003A5B0053746172742061743A20205B00E8
:101B90005D005D3A5B0053746F702061743A2020E1
:101BA0003E5B005D005D3A5B0053746F70206174B2
:101BB0003A2020205B005D005D3A5B005374617247
:101BC000742061743A203E5B0020202020202020D9
:101BD00020202020202020202020202020003E0027
:101BE000494E444546494E4954454C590064697331
:101BF00061626C6564206D656E75004449534142B5
:101C00004C45440064697361626C6564206D656E67
:101C1000750044495341424C4544004572726F720D
:101C20002077726974696E6720746F2066696C65CD
:101C30000048656174696E670054454D50455241D6
:101C4000545552455300202054454D50455241545F
:101C500055524553282A4329202000436F6F6C6951
:101C60006E670054454D50455241545552455300FE
:101C7000202054454D504552415455524553282A31
:101C80004329202000212121002500432D20202050
:101C9000002121210043002020202020202020207E
:101CA0000030004F4646004F4E20002020202020CC
:101CB000200000002100240027002A002D00300011
:101CC000330001010000040107010A01E0DFE0E543
:101CD00011241FBECFEFD1E2DEBFCDBF00E00CBFAD
:101CE00015E0A0E0B2E0E4ECFCED01E00BBF02C0C7
:101CF00007900D92AA3BB107D9F72AE1AAEBB5E00C
:101D000001C01D92A53CB207E1F71EE0C7E6DEE088
:101D100000E006C021970109802FFE010E9494E691
:101D2000C636D10780E00807A9F70E9465CE0C945B
:101D300050EE0C9400008091DE059091DF05CC9769
:101D40006CF01092DF051092DE05809148029091B0
:101D5000490201969093490280934802809148027B
:101D600090914902489734F010924902109248022B
:101D700010922A1880914602909147024F977CF06A
:101D800081E090E090934702809346028091440264
:101D90009091450201969093450280934402809170
:101DA0004402909145020D9744F081E090E09093B9
:101DB00045028093440210922A18089580E090E032
:101DC00008950F931F93CF93DF9380912A18C0E05B
:101DD00003E911E0882389F0D1E082ED96E10E94C9
:101DE0005644C817D0F4C09FF001C19FF00D1124D4
:101DF000E05FF24FD083CF5FF0CF82ED96E10E949B
:101E00005644C81750F4C09FF001C19FF00D112433
:101E1000E05FF24F1082CF5FF0CFDF91CF911F9143
:101E20000F9108950F931F930E940FCE0091D60536
:101E30001091D7052091D8053091D905DC01CB014F
:101E4000801B910BA20BB30B4097A105B105A8F124
:101E50008091D2059091D305A091D405B091D5057C
:101E60000196A11DB11D8093D2059093D305A09337
:101E7000D405B093D5056091D2057091D3058091BA
:101E8000D4059091D5050E9401ED28EB3EE145E88F
:101E90005EE30E9462ED6093BB057093BC05809386
:101EA000BD059093BE050E940FCE6093D60570933A
:101EB000D7058093D8059093D9051F910F91089568
:101EC0000E94E02B0E94032B87ED9BE00E94B6B39B
:101ED0008AE69DE00E94B6B38DEF9EE00E94B6B305
:101EE00083E39BE00E9476B18CE59BE00E9476B193
:101EF00085E89BE00E9476B18EEA9BE00C9476B177
:101F00000E94E10E80912A18893C59F50E945227BF
:101F10002093A60A3093A70A4093A80A5093A90ACF
:101F20006093AA0A7093AB0A8093AC0A9093AD0AAF
:101F3000109250178091DE059091DF058093511724
:101F400020914802209352175093531760935417CF
:101F5000705D7093551702969093DF058093DE05B0
:101F60001DC08A3CE9F4109250178091DE058093E1
:101F700051178091480280935217809146029091A8
:101F800047028093531720914402209354171092D4
:101F90005517019690934702809346020C949B0E2E
:101FA0000E9452272093A60A3093A70A4093A80ABA
:101FB0005093A90A6093AA0A7093AB0A8093AC0A63
:101FC0009093AD0A705D70935517609354175093BA
:101FD0005317209352173093511740935017089579
:101FE0000F931F93CF93DF93EC010E940FCE0881D4
:101FF00019812A813B81601B710B820B930BDF914E
:10200000CF911F910F9108952F923F924F925F921F
:102010006F927F928F929F92AF92BF92CF92DF92F8
:10202000EF92FF920F931F93CF93DF93CDB7DEB75D
:10203000CD59D1400FB6F894DEBF0FBECDBF88E2B8
:102040000E94109F2091E505892B51F4211116C0A3
:1020500081E08093E50580EA92E10E94A82C0EC001
:10206000222361F01092E50540E063E380EA92E10B
:102070000E94B1A18DE993E10E940E5C8AE20E9468
:10208000109F2091E405892B51F4211116C081E0A5
:102090008093E40588EA93E10E94A82C0EC02223D5
:1020A00061F01092E40540E063E388EA93E10E9466
:1020B000B1A185EA94E10E940E5C8CE20E94109F1F
:1020C0002091E305892B49F4211111C081E080930F
:1020D000E30584E60E94C82A0AC0222341F0109238
:1020E000E30540E063E387ED9BE00E94B1A18EE24F
:1020F0000E94109F2091E205892B49F4211111C003
:1021000081E08093E20580E00E94C82A0AC0222371
:1021100041F01092E20540E063E387ED9BE00E940E
:10212000B1A1912CB3E9CB2EDD24D39482ED96E1BD
:102130000E945644981608F050C010E6A92CB12C05
:10214000AC9CC001AD9C900DBC9C900D11249C01D9
:102150002952344F7901612FC7010E94F0578A3C00
:1021600031F0612FC7010E94F0578C3C51F486ED8D
:1021700096E10E945644813021F0612FC7010E94F0
:102180002D5A1F5F133639F7AC9C8001AD9C100DA2
:10219000BC9C100D11240952144F8CED96E10E9445
:1021A0005644833021F463E6C8010E942D5A80EE24
:1021B00096E10E945644823021F46FE5C8010E94E6
:1021C0002D5A88ED96E10E945644823021F464E64F
:1021D000C8010E942D5A9394A9CF00E0F8E08F2EF9
:1021E00099249394A3E96A2E7724739484ED96E15D
:1021F0000E945644081708F065C010E6202F30E012
:10220000289DC001299D900D389D900D1124AC0191
:1022100040575F4E7A01269DA001279D500D369DA7
:10222000500D1124DA01A952B44F5D01FC01EF59A0
:10223000FE4E6F01612FC7010E94F057883C29F4C0
:1022400086EC96E10E94214410C0612FC7010E94D4
:10225000F057893C79F4C6010E94564490E0880FFB
:10226000991F8E51994E0E945644811125C0612FAD
:10227000C70120C0612FC7010E94F0578A3C91F02E
:10228000612FC7010E94F0578C3C61F0612FC7019C
:102290000E94F0578D3C31F0612FC7010E94F0572A
:1022A0008B3C51F486ED96E10E945644813021F03A
:1022B000612FC5010E942D5A1F5F133609F0BACF56
:1022C0000F5F94CF8AED96E10E945644811105C0BC
:1022D00060E08AEE96E10E943B44312C73E9872E40
:1022E000992493949E0123583F4FCC56DE4F398357
:1022F0002883C459D14082ED96E10E945644381695
:1023000008F040C560E6D62EA32CB12CA89CC001D5
:10231000A99C900DB89C900D1124AC014952544FCA
:102320007A016D2DC7010E94F0578A3C79F488ED3F
:1023300096E10E945644813009F040C686ED96E150
:102340000E945644813009F039C68DC66D2DC701F3
:102350000E94F0578C3C79F488ED96E10E94564437
:10236000813009F002C786ED96E10E945644813023
:1023700009F0FBC6CCC640910E17C0900F176D2D0B
:10238000C701C456DE4F4883CC59D1400E94455402
:102390008C0104960E942144C456DE4F4881CC59DA
:1023A000D140882329F06C2DC8010E9441A003C0B0
:1023B000D80150961C92D394B3E6DB12B2CFA89CFE
:1023C0008001A99C100DB89C100D11240952144FC6
:1023D0009E01205E3F4FBE016F5F7F4F57ED652E20
:1023E0005BE0752EE4E2FBE0AF01CB01D301ED90A1
:1023F000FC90DC01ED92FC926901BDE1CB1AD108A1
:102400007A01A5EBEA0EF11CD701ED90FC90D60104
:10241000ED92FC926901BBE1CB1AD1087A01A7EBDE
:10242000EA0EF11CD701ED90FC90D601ED92FC92E2
:102430006901B9E1CB1AD1087A01A9EBEA0EF11CC6
:10244000D701ED90FC90D601ED92FC926901B7E1C5
:10245000CB1AD1087A01ABEBEA0EF11CD701ED9053
:10246000FC90D601ED92FC926901B5E1CB1AD1083E
:102470007A01ADEBEA0EF11CD701ED90FC90D6018C
:10248000ED92FC92D3011C96CD90DD90ED90FC90E6
:102490001F97DC011C96CD92DD92ED92FC921F9766
:1024A0006901BFE0CB1AD1087A01A3ECEA0EF11C56
:1024B000D701FC90D601FC926901BEE0CB1AD1088D
:1024C0007A01A4ECEA0EF11CD701ED90FC90D60144
:1024D000ED92FC926901BCE0CB1AD1087A01A6EC1E
:1024E000EA0EF11CD701ED90FC90D601ED92FC9222
:1024F0006901BAE0CB1AD1087A01A8ECEA0EF11C06
:10250000D701ED90FC90D601ED92FC926901B8E004
:10251000CB1AD1087A01AAECEA0EF11CD701ED9092
:10252000FC90D601ED92FC926901B6E0CB1AD1087D
:102530007A01ACECEA0EF11CD701ED90FC90D601CB
:10254000ED92FC926901B4E0CB1AD1087A01AEECAD
:10255000EA0EF11CD701ED90FC90D601ED92FC92B1
:10256000D3015D96ED90FC905E97DC015E96FC9247
:10257000EE925D97215E3F4F4F96BFE16B0E711C4F
:10258000415E5F4FCC56DE4FA881B981C459D1401E
:102590002A173B0709F02ACF44E3642E4CE0742E3F
:1025A000AE01425A5F4F9E012F5F3F4F84E29BE096
:1025B000D301ED90FC90DA01ED92FC926901BFE548
:1025C000CB0ED11C7C01AEEEEA1AAEEFFA0AD701AF
:1025D000ED90FC90D601ED92FC926901B1E6CB0E34
:1025E000D11C7C01ACEEEA1AAEEFFA0AD701ED90ED
:1025F000FC90D601ED92FC926901B3E6CB0ED11CA2
:102600007C01AAEEEA1AAEEFFA0AD701ED90FC902F
:10261000D601ED92FC926901B5E6CB0ED11C7C018E
:10262000A8EEEA1AAEEFFA0AD701ED90FC90D601B7
:10263000ED92FC926901B7E6CB0ED11C7C01A6EEAF
:10264000EA1AAEEFFA0AD701ED90FC90D601ED92AE
:10265000FC92D3011C96CD90DD90ED90FC901F97DD
:10266000DA011C96CD92DD92ED92FC921F976901E2
:10267000BDE6CB0ED11C7C01A0EEEA1AAEEFFA0A41
:10268000D701FC90D601FC926901BEE6CB0ED11CAD
:102690007C01AFEDEA1AAEEFFA0AD701ED90FC909B
:1026A000D601ED92FC926901B0E7CB0ED11C7C0102
:1026B000ADEDEA1AAEEFFA0AD701ED90FC90D60123
:1026C000ED92FC926901B2E7CB0ED11C7C01ABED1F
:1026D000EA1AAEEFFA0AD701ED90FC90D601ED921E
:1026E000FC92D3015796ED90FC905897DA015896DA
:1026F000FC92EE925797B9E16B0E711C475E5F4FEB
:102700004996275E3F4FA6E66A16ACE07A0609F0C6
:102710004FCF36E6632E3CE0732ECE0180579F4F9D
:10272000D3012D913C91DC012D933C939B012F56BD
:102730003F4FAF014C5B5E4FDA014D915C91D90187
:102740004D935C932E5F3F4FAF014A5B5E4FDA01C2
:102750004D915C91D9014D935C932E5F3F4FAF013A
:10276000485B5E4FDA014D915C91D9014D935C93CA
:102770002E5F3F4FAF01465B5E4FDA014D915C919A
:10278000D9014D935C932E5F3F4FAF01445B5E4F89
:10279000DA014D915C91D9014D935C93D3011C9664
:1027A000CD90DD90ED90FC901F97DC011C96CD92B2
:1027B000DD92ED92FC921F972A5F3F4FAF014E5A78
:1027C0005E4FDA014C91D9014C93D30151962D9172
:1027D0003C915297DC0152963C932E935197B3E172
:1027E0006B0E711C439673966D5E7F4F2FE96216D8
:1027F0002CE0720609F094CF80919F0CC753DF4FF5
:102800008883C95CD0408091A00CC653DF4F888379
:10281000CA5CD0408091A10CC553DF4F8883CB5C4C
:10282000D0408091A20C9091A30CC453DF4F9983A8
:102830008883CC5CD0408091A40C9091A50CC253AD
:10284000DF4F99838883CE5CD0408091A60C909115
:10285000A70CC053DF4F99838883C05DD04080911F
:10286000A80C9091A90CCE52DF4F99838883C25D4A
:10287000D0408091AA0C9091AB0CCC52DF4F998341
:102880008883C45DD0408091AC0C9091AD0CCA524D
:10289000DF4F99838883C65DD0408091AE0C9091C4
:1028A000AF0CC852DF4F99838883C85DD0408091B8
:1028B000B00C9091B10CC652DF4F99838883CA5DEA
:1028C000D0408091B20C9091B30CC452DF4F9983E9
:1028D0008883CC5DD04080E090E026E0DC01A3520C
:1028E000BF4F41E050E04C0F5D1FA40FB51FFC012E
:1028F000EC54F34F322F01900D923A95E1F7069682
:102900008432910559F785E0E8EDFCE0DE01AE5F29
:10291000BE4F01900D928A95E1F785E0EDEDFCE068
:10292000DE01A95FBE4F01900D928A95E1F780917B
:10293000E20C9091E30CC45FDE4F99838883CC5006
:10294000D1408091E40C9091E50CA091E60CB091FF
:10295000E70CC25FDE4F88839983AA83BB83CE5086
:10296000D1408091E80C9091E90CA091EA0CB091D3
:10297000EB0CCE5EDE4F88839983AA83BB83C25162
:10298000D1408091EC0C9091ED0CA091EE0CB091A7
:10299000EF0CCA5EDE4F88839983AA83BB83C6513E
:1029A000D1408091F00C9091F10CA091F20CB0917B
:1029B000F30CC65EDE4F88839983AA83BB83CA511A
:1029C000D1408091F40C9091F50CC25EDE4F99835A
:1029D0008883CE51D1408091F60C9091F70CC05E67
:1029E000DE4F99838883C052D1408091F80C90913A
:1029F000F90CCE5DDE4F99838883C252D14080911D
:102A0000FA0CCC5DDE4F8883C452D1408091FB0C20
:102A1000CB5DDE4F8883C552D1408091FC0CCA5DEE
:102A2000DE4F8883C652D1408091FD0C9091FE0C00
:102A3000C95DDE4F99838883C752D1408091FF0CD6
:102A40009091000DC75DDE4F99838883C952D140B4
:102A50008091010D9091020DC55DDE4F99838883B1
:102A6000CB52D1408091030D9091040DC35DDE4F98
:102A700099838883CD52D1408091050DC15DDE4F91
:102A80008883CF52D1408091060DC05DDE4F888390
:102A9000C053D1408091070D9091080DA091090D70
:102AA000B0910A0DCF5CDE4F88839983AA83BB83E4
:102AB000C153D14080910B0DCB5CDE4F8883C55351
:102AC000D14080910C0D90910D0DA0910E0DB09103
:102AD0000F0DCA5CDE4F88839983AA83BB83C653DC
:102AE000D1408091100DC65CDE4F8883CA53D1401F
:102AF0008091110DC55CDE4F8883CB53D14080910E
:102B0000120DC45CDE4F8883CC53D1408091130DED
:102B1000C35CDE4F8883CD53D1408091140DC25CDD
:102B2000DE4F8883CE53D1408CE3E5E1FDE0DE014A
:102B3000A15CBE4F01900D928A95E1F78091510DF5
:102B40009091520DA091530DB091540DC558DE4F88
:102B500088839983AA83BB83CB57D1408091550D3D
:102B60009091560DA091570DB091580DC158DE4F60
:102B700088839983AA83BB83CF57D1408091590D15
:102B8000CD57DE4F8883C358D14080915A0D909124
:102B90005B0DA0915C0DB0915D0DCC57DE4F88832D
:102BA0009983AA83BB83C458D14080915E0D9091D4
:102BB0005F0DA091600DB091610DC857DE4F888305
:102BC0009983AA83BB83C858D1408091620D9091AC
:102BD000630DA091640DB091650DC457DE4F8883DD
:102BE0009983AA83BB83CC58D1408091660D909184
:102BF000670DC057DE4F99838883C059D1408091BB
:102C0000680D9091690DCE56DE4F99838883C25925
:102C1000D14040901D1750901E1760901F17709064
:102C200020177E015EEDE50EF11CC7010E948B446A
:102C30009C0163E6CE010196C356DE4F2883CD5931
:102C4000D140C456DE4F3883CC59D1400E945557ED
:102C5000D0902F1AC356DE4F2881CD59D140C4568B
:102C6000DE4F3881CC59D140DD2029F190E0C45F9E
:102C7000DE4F48815981CC50D14048175907D0F0D8
:102C8000B90180E090E00E9401ED9B01AC01C3011D
:102C9000B2010E94C5E69B01AC01DD24D394609192
:102CA0005C0A70915D0A80915E0A90915F0A0E94B1
:102CB00064E887FDD12C4D2D63E6C8010E94B1A1C7
:102CC000CE018E5F9E4F06978E159F05E1F7CE01D0
:102CD00001960E940F2F6FE5C8010E94545B750199
:102CE000EE0CFF1CEE0CFF1C811112C06091BF05A1
:102CF0007091C00580E090E00E9401ED9B01AC0165
:102D00006FE5C8010E94C0A0C7018055984F1AC046
:102D1000C7018055984F7C010E94F00F603C744DB4
:102D20008140910588F06091BF057091C00580E0F9
:102D300090E00E9401ED9B01AC016FE5C8010E948B
:102D4000C0A0C7010E94BFC72091120A3091130A88
:102D50004091140A5091150A64E6C8010E94C0A06F
:102D6000A89CF001A99CF00DB89CF00D1124E75A25
:102D7000F24F8081F501EF5CF54E81119EC2108209
:102D80003394B9CA912C88E0A82EBB24B3949AE45A
:102D9000892E84ED96E10E945644981608F02AC3C5
:102DA00010E6C92CD12CCA9CC001CB9C900DDA9C9A
:102DB000900D1124FC01E057FF4E7F019C01215A28
:102DC0003E4EC656DE4F39832883CA59D140AC01E6
:102DD0004F595E4E1A01612FC7010E94F057883C7F
:102DE00019F588EC96E10E945644082F20910E17A1
:102DF00040910F17612FC701C356DE4F2883CD596D
:102E0000D140C456DE4F4883CC59D1400E9445542E
:102E1000BC01C356DE4F2881CD59D140C456DE4F88
:102E20004881CC59D1403EC0612FC7010E94F05764
:102E3000893CE1F5C656DE4F88819981CA59D14057
:102E40000E945644823009F089C0C1010E94564454
:102E5000889EC0011124FC01E056F74F608171810A
:102E6000828193810E94AFE7062F20910E17409137
:102E70000F17612FC701C356DE4F2883CD59D140AC
:102E8000C456DE4F4883CC59D1400E944554C356A6
:102E9000DE4F2881CD59D140C456DE4F4881CC59F0
:102EA000D140BC01C7010E94B75258C0612FC70171
:102EB0000E94F0578D3C09F403C2612FC7010E94A4
:102EC000F0578B3C09F48DC2612FC7010E94F05767
:102ED0008C3C79F488ED96E10E945644813009F0EB
:102EE000EFC186ED96E10E945644813009F0E8C1B9
:102EF00023C2612FC7010E94F0578A3C79F488ED04
:102F000096E10E945644813009F06BC286ED96E14D
:102F10000E945644813009F064C241C240910E17AC
:102F200000910F17612FC701C456DE4F4883CC595B
:102F3000D1400E9445543C0104960E942144C4564D
:102F4000DE4F4881CC59D140882329F0602FC3013E
:102F50000E9441A003C0D30150961C921F5F1336FC
:102F600009F039CFCA9C8001CB9C100DDA9C100D62
:102F7000112400571F4E62E3C8010E94545B88234E
:102F800029F041E062E3C8010E94B1A16091C3054C
:102F90007091C405072E000C880B990B0E9403ED5D
:102FA00020E030E04AE754E40E9436E79B01AC01A0
:102FB0006CE6C8010E94C0A09394EBCE00911D174F
:102FC00010911E1720911F173091201740915C0A15
:102FD00050915D0A60915E0A70915F0AC7010E947C
:102FE00035B78C016D2DC7010E945557682F70E0D1
:102FF00020910E1740910F1760177107D0F0609164
:10300000C8097091C9098091CA099091CB09C3562A
:10301000DE4F2883CD59D140C456DE4F4883CC596A
:10302000D1400E94AFE7062F6D2DC7010E94455485
:103030000FC06D2DC701C356DE4F2883CD59D14037
:10304000C456DE4F4883CC59D1400E94455400E01D
:10305000C356DE4F2881CD59D140C456DE4F48813A
:10306000CC59D1407DC000911D1710911E172091A1
:103070001F173091201740915C0A50915D0A6091B2
:103080005E0A70915F0AC7010E9435B73C016D2D41
:10309000C7010E945557282F30E0C0900E1710919D
:1030A0000F172615370508F454C04091120A5091A5
:1030B000130A6091140A7091150A8EE799E00E9434
:1030C00064B22B013C0140915C0A50915D0A609111
:1030D0005E0A70915F0A88EC99E00E9464B29B01DD
:1030E000AC01C301B2010E94FCEC87FF32C06091C9
:1030F000C8097091C9098091CA099091CB090E94B1
:10310000AFE7062F6D2DC7010E94455427C00091DF
:103110001D1710911E1720911F17309120174091F5
:103120005C0A50915D0A60915E0A70915F0AC70166
:103130000E9435B73C016D2DC7010E945557282FBD
:1031400030E0C0900E1710910F172615370508F0C4
:1031500064C06D2DC7010E94455400E02C2D412F05
:10316000BC01C7010E94B75226C900911D171091DA
:103170001E1720911F173091201740915C0A509123
:103180005D0A60915E0A70915F0AC7010E9435B7BF
:103190003C016D2DC7010E94555790E020910E17FC
:1031A00010910F178615970540F140915C0A5091D8
:1031B0005D0A60915E0A70915F0A88EC99E0C356DF
:1031C000DE4F2883CD59D1400E942FB22B013C0104
:1031D0006D2DC7010E944554CA56DE4F99838883DE
:1031E000C659D140C301B2010E94AFE7062FC356B2
:1031F000DE4F2881CD59D14058C06D2DC701C3562F
:10320000DE4F2883CD59D1400E94455400E0C3567B
:10321000DE4F2881CD59D140A2CF4091120A509162
:10322000130A6091140A7091150A8EE799E00E94C2
:1032300064B2CA56DE4F688379838A839B83C659FA
:10324000D14040905C0A50905D0A60905E0A709098
:103250005F0AB301A20188EC99E00E9464B29B016D
:10326000AC01CA56DE4F688179818A819B81C6593B
:10327000D1400E94FCEC87FF6CCFB301A20188EC27
:1032800099E00E942FB22B013C016D2DC7010E94D5
:103290004554CA56DE4F99838883C659D140C3012D
:1032A000B2010E94AFE7062F2C2D412FCA56DE4FE8
:1032B00068817981C659D14054CF81E0808360CD47
:1032C00040915C0A50915D0A60915E0A70915F0ABC
:1032D00088EC99E00E942FB22B013C0120910E173F
:1032E00040910F17612FC701C356DE4F2883CD5978
:1032F000D140C456DE4F4883CC59D1400E9445543A
:10330000CA56DE4F99838883C659D140C301B201A2
:103310000E94AFE7062FC356DE4F2881CD59D1401A
:10332000C456DE4F4881CC59D140CA56DE4F688121
:103330007981C659D140B6CD4091120A5091130AF5
:103340006091140A7091150A8EE799E00E9464B2A8
:10335000CA56DE4F688379838A839B83C659D140DE
:1033600040905C0A50905D0A60905E0A70905F0A1F
:10337000B301A20188EC99E00E9464B29B01AC0108
:10338000CA56DE4F688179818A819B81C659D140B6
:103390000E94FCEC87FFE2CDB301A20199CF4091DE
:1033A000120A5091130A6091140A7091150A8EE75F
:1033B00099E00E9464B22B013C0140915C0A50915B
:1033C0005D0A60915E0A70915F0A88EC99E00E9444
:1033D00064B29B01AC01C301B2010E94FCEC87FF07
:1033E000BDCD6091C8097091C9098091CA099091B9
:1033F000CB0938CDC356DE4F0FB6F894DEBF0FBEF3
:10340000CDBFDF91CF911F910F91FF90EF90DF9093
:10341000CF90BF90AF909F908F907F906F905F9074
:103420004F903F902F9008950F931F930E940FCEBF
:103430000091DA051091DB052091DC053091DD0566
:10344000DC01CB01801B910BA20BB30B4097A105B4
:10345000B10568F18CEB97E00E94F00F0E9401ED3E
:103460009B01AC0160E070E086E195E40E9436E7E4
:103470000E94A8E77093C2056093C1058091C105C1
:103480009091C2051816190624F01092C2051092E8
:10349000C1058CEB97E00E94BFC70E940FCE6093DE
:1034A000DA057093DB058093DC059093DD051F91B1
:1034B0000F910895CF93DF93EC010E940FCE6883A4
:1034C00079838A839B83DF91CF910895FC0180816A
:1034D00091810C9420EECF93DF931F921F92CDB772
:1034E000DEB781E090E09A838983CE0101960E9445
:1034F000661A8F3689F482E090E09A838983CE0140
:1035000001960E94661A682F70E080E090E00E94A9
:1035100001EDAB01BC0104C040E050E060EA71E4A1
:103520008CE59AE00E9472B283E090E09A838983EE
:10353000CE0101960E94661A8F3689F484E090E0ED
:103540009A838983CE0101960E94661A682F70E0E3
:1035500080E090E00E9401EDAB01BC0104C040E0BE
:1035600050E068E472E488EC99E00E9472B286ED63
:1035700096E10E945644811109C08EEF9AE00E94A4
:10358000B5308EEF9AE00E9497280AC086ED96E14A
:103590000E945644813021F488EC9AE00E949F43B7
:1035A00088ED96E10E945644811109C088ED9AE0A9
:1035B0000E94B53088ED9AE00E9497280AC088EDF5
:1035C00096E10E945644813021F488EB9AE00E94F3
:1035D0009F438091AF0A843101F58091AE0A853115
:1035E000E1F481E08093B70A61E084E10E94399FB1
:1035F00061E085E10E94399F8091B9008E7F8093C0
:10360000B9008091B9008D7F8093B9008CE08093E0
:10361000B80085E08093BC0007C01092B70A61E053
:103620008091AE0A0E947ACD62E083E00E947ACD5A
:1036300082E19FE0909366028093650280916A0028
:10364000837F886080936A00ED9A62E082E00E9446
:103650007ACD84E19AE19093640280936302809131
:103660006A008C7F826080936A00EC9A78948CE583
:103670009AE00F900F90DF91CF910C941CB30F93B1
:103680001F93CF93DF931F92CDB7DEB78C01698371
:103690000E94661A6981681729F0F801808191817A
:1036A0000E9428EEC8010F90DF91CF911F910F91DA
:1036B00008952F923F924F925F927F928F929F92A6
:1036C000AF92BF92CF92DF92EF92FF920F931F9330
:1036D000CF93DF9300D000D0CDB7DEB76B837C8370
:1036E0008D839E8319012A01A8019701C201B101AE
:1036F0000E94FCEC181644F4A6019501C201B10128
:103700000E9464E887FD31C020E030E0A9016B81B0
:103710007C818D819E810E94FCEC87FD08C06B81BD
:103720007C818D819E810E94AFE7762E01C0712C35
:103730009A8289826FE6CE0101960E943F1B8FEF2D
:10374000881A980A9A828982672DCE0101960E9472
:103750003F1B86E296E00E9446C7B201A10186EEB9
:1037600095E00E94822881E001C080E026960FB695
:10377000F894DEBF0FBECDBFDF91CF911F910F91A7
:10378000FF90EF90DF90CF90BF90AF909F908F9081
:103790007F905F904F903F902F9008954F925F924F
:1037A0006F927F928F929F92AF92BF92CF92DF9251
:1037B000EF92FF920F931F930E94E10E8091651785
:1037C000893649F4409174025091750260917602F5
:1037D0007091770235C086ED96E10E9456448130A3
:1037E00049F588EC9AE00E941B432B013C01609153
:1037F000C8097091C9098091CA099091CB0922E04A
:10380000822E912CA12CB12C3AECC32E32E4D32E73
:10381000E12CF12C00E81FEBA30192010E94591B3F
:10382000882331F08091E1058F5F8093E10502C02C
:103830001092E1058091E105811114C0B301A2014C
:1038400088EC99E01F910F91FF90EF90DF90CF905F
:10385000BF90AF909F908F907F906F905F904F90B0
:103860000C9472B21F910F91FF90EF90DF90CF9068
:10387000BF90AF909F908F907F906F905F904F9090
:1038800008954F925F926F927F928F929F92AF9224
:10389000BF92CF92DF92EF92FF920F931F930E94FD
:1038A000E10E809166178936D1F440917C025091E7
:1038B0007D0260917E0270917F028CE59AE01F91FB
:1038C0000F91FF90EF90DF90CF90BF90AF909F90BF
:1038D0008F907F906F905F904F900C9472B286EDB6
:1038E00096E10E945644811120C08EEF9AE00E941A
:1038F000AD2F8EEF9AE00E9486C82B013C016091AB
:103900005C0A70915D0A80915E0A90915F0A88243A
:103910008394912CA12CB12CE0E7CE2EE2E4DE2E94
:10392000E12CF12C0EEF12EC38C086ED96E10E94EE
:103930005644813009F03FC088EC9AE00E94B942B9
:103940006091CE0A7091CF0A072E000C880B990B5C
:103950000E9403ED2AE037ED43E25CE30E9462ED52
:1039600020E030E040E252E40E94C4E62B013C013A
:1039700060915C0A70915D0A80915E0A90915F0A85
:1039800088248394912CA12CB12C30E7C32E32E4EF
:10399000D32EE12CF12C00E212ECA30192010E9443
:1039A000591B882331F08091E0058F5F8093E005FB
:1039B00002C01092E0058091E005811109C0B301B9
:1039C000A2018CE59AE00E9472B210926B1A05C0B7
:1039D000843119F481E080936B1A1F910F91FF904D
:1039E000EF90DF90CF90BF90AF909F908F907F909F
:1039F0006F905F904F900895CF93DF93EB012A81F2
:103A00003B81FC01338322834C815D816E817F8108
:103A10004483558366837783488559856A857B858A
:103A200040875187628773872DE0FE013C96DC0159
:103A30001C9601900D922A95E1F7298D3A8DFC0193
:103A4000328F218FDF91CF9108950F931F93CF93E2
:103A5000DF93CDB7DEB76B970FB6F894DEBF0FBE1E
:103A6000CDBF8C01FC0160817181CE0101960E9465
:103A70007076BE016F5F7F4F85E997E00E94FC1C66
:103A8000F801808191810E946A77882331F0B80122
:103A900086EE95E00E94454204C08FE896E00E94C1
:103AA00046C7E091AE07F091AF07309709F4B0C177
:103AB0008581882309F4ACC140910F1750E060E084
:103AC00070E02AE085E997E00E941A416DE876E00F
:103AD00085E997E00E94E14040910E1750E060E0D8
:103AE00070E02AE085E997E00E941A4168E876E0F4
:103AF00085E997E00E94E14040915C0A50915D0A9F
:103B000060915E0A70915F0A85E997E00E94CCC9D6
:103B100066E876E085E997E00E94E1404091C809B7
:103B20005091C9096091CA097091CB0985E997E064
:103B30000E94CCC964E876E085E997E00E94E14004
:103B400040915C0A50915D0A60915E0A70915F0A33
:103B500088EC99E00E9464B2AB01BC0185E997E072
:103B60000E94CCC962E876E085E997E00E94E140D6
:103B70004091120A5091130A6091140A7091150A2B
:103B800085E997E00E94CCC960E876E085E997E096
:103B90000E94E14040917E0950917F096091800927
:103BA0007091810985E997E00E94CCC96EE776E0C3
:103BB00085E997E00E94E1404091120A5091130A72
:103BC0006091140A7091150A8EE799E00E9464B220
:103BD000AB01BC0185E997E00E94CCC96CE776E0B7
:103BE00085E997E00E94E14060912F1A70E085E935
:103BF00097E00E9496C96AE776E085E997E00E941F
:103C0000E1404091BB055091BC056091BD057091AC
:103C1000BE0585E997E00E94CCC968E776E085E9B2
:103C200097E00E94E1406091BF057091C00585E971
:103C300097E00E94A27966E776E085E997E00E9426
:103C4000E1406091C4077091C5078091C6079091CB
:103C5000C7070E94AFE79B01AC01AAE0B0E00E9459
:103C600036EEAB01BC012AE085E997E00E941A41DB
:103C700064E776E085E997E00E94E1400E94A87938
:103C8000AB01BC012AE085E997E00E941A4162E796
:103C900076E085E997E00E94E14088EC96E10E9499
:103CA0005644482F50E060E070E02AE085E997E054
:103CB0000E941A4160E776E085E997E00E94E140C2
:103CC0004091191750911A1760911B1770911C178A
:103CD00085E997E00E94CCC96EE676E085E997E039
:103CE0000E94E14040911D1750911E1760911F17CF
:103CF0007091201785E997E00E94CCC96CE676E0C8
:103D000085E997E00E94E1406091E20C7091E30C3C
:103D100085E997E00E94A2796AE676E085E997E076
:103D20000E94E1406091750E7091760E85E997E0F2
:103D30000E94A27968E676E085E997E00E94E1407A
:103D4000609108107091091085E997E00E94A279AE
:103D500066E676E085E997E00E94E14080E990E13F
:103D60000E94A42C682F70E085E997E00E9496C914
:103D700064E676E085E997E00E94E14088E991E118
:103D80000E94A42C682F70E085E997E00E9496C9F4
:103D900062E676E085E997E00E94E14080EA92E100
:103DA0000E94A42C682F70E085E997E00E9496C9D4
:103DB00060E676E085E997E00E94E14088EA93E1D9
:103DC0000E94A42C682F70E085E997E00E9496C9B4
:103DD0006EE576E085E997E00E94E14080EB94E1B2
:103DE0000E94A42C682F70E085E997E00E9496C994
:103DF0006CE576E085E997E00E94E14088EB95E18B
:103E00000E94A42C682F70E085E997E00E946B79EE
:103E100085E997E00E94D4696B960FB6F894DEBFEF
:103E20000FBECDBFDF91CF911F910F9108950F93DA
:103E30001F93CF93DF93CDB7DEB7A3970FB6F89458
:103E4000DEBF0FBECDBF8C010E9452272093A60A71
:103E50003093A70A4093A80A5093A90A6093AA0A2C
:103E60007093AB0A8093AC0A9093AD0A4AE0CE01FE
:103E70004E960E94073F68E475E0CE0148960E9486
:103E80005F3F8091AA0A8A30E8F460E3CE01019690
:103E90000E94343FBE01625E7F4FCE0101960E94B8
:103EA000A03EBC01CE0142960E94563FBE016E5E0E
:103EB0007F4FCE0148960E941F3ECE0142960E943F
:103EC000023F0EC0BE01625E7F4FCE0101960E948E
:103ED000563FBE016F5F7F4FCE0148960E941F3E46
:103EE000CE0101960E94023F8091AB0A9091AC0AEC
:103EF0001B8A1A8A1D8A1C8A1F8A1E8A4AE0BE01F2
:103F00006F5F7F4F0E94D2ECBE016F5F7F4FCE018B
:103F100042960E94D43EBE016E5E7F4FCE01019656
:103F20000E94563FBE01685E7F4FCE0101960E94FF
:103F3000A03E0E942A78BC01C8010E94563FCE01D3
:103F400001960E94023FCE0142960E94023FCE019E
:103F500048960E94023FCE014E960E94023FC80141
:103F6000A3960FB6F894DEBF0FBECDBFDF91CF9101
:103F70001F910F9108950F931F93CF93DF93CDB7A8
:103F8000DEB7AF970FB6F894DEBF0FBECDBF8C0182
:103F90000E9452272093A60A3093A70A4093A80AAA
:103FA0005093A90A6093AA0A7093AB0A8093AC0A53
:103FB0009093AD0A4AE0652FCE018A960E94073F92
:103FC00068E475E0CE0184960E945F3F8091A90A63
:103FD0008A30E8F460E3CE0101960E94343FBE01CE
:103FE000665D7F4FCE0101960E94A03EBC01CE01CE
:103FF00042960E94563FBE016E5E7F4FCE01849670
:104000000E941F3ECE0142960E94023F0EC0BE019A
:10401000665D7F4FCE0101960E94563FBE016F5FE5
:104020007F4FCE0184960E941F3ECE0101960E94D2
:10403000023F4AE06091AA0ACE014E960E94073FD5
:1040400068E475E0CE0148960E945F3F8091AA0A1D
:104050008A30E8F460E3CE0101960E94343FBE014D
:10406000625E7F4FCE0101960E94A03EBC01CE0150
:1040700042960E94563FBE016E5E7F4FCE0148962B
:104080000E941F3ECE0142960E94023F0EC0BE011A
:10409000625E7F4FCE0101960E94563FBE016F5F68
:1040A0007F4FCE0148960E941F3ECE0101960E948E
:1040B000023F8091AB0A9091AC0A1B8A1A8A1D8A32
:1040C0001C8A1F8A1E8A4AE0BE016F5F7F4F0E94D2
:1040D000D2ECBE016F5F7F4FCE0142960E94D43E6C
:1040E000BE016E5E7F4FCE0101960E94563FBE011B
:1040F000685E7F4FCE0101960E94A03EBE016C5DBE
:104100007F4F0E94A03E0E942A78BC01C8010E94F5
:10411000563FCE0101960E94023FCE0142960E9478
:10412000023FCE0148960E94023FCE014E960E9469
:10413000023FCE0184960E94023FCE018A960E94E1
:10414000023FC801AF960FB6F894DEBF0FBECDBFD9
:10415000DF91CF911F910F9108954F925F926F92CF
:104160007F928F92AF92BF92CF92DF92EF92FF92A7
:104170000F931F93CF93DF931F921F92CDB7DEB79C
:1041800061E576E086EE95E00E94E14080E090E017
:104190000E9420EE682F86EE95E00E947D2C80E044
:1041A00090E00E9420EE813791F000E010E01A8349
:1041B000098360E0CE0101960E943F1B0F5F1F4FF5
:1041C000011580E1180799F781E0809367171A823B
:1041D000198261E7CE0101960E943F1B66E476E0FA
:1041E00086EE95E00E94E14080E090E00E9420EEA3
:1041F000682F86EE95E00E947D2C809167178130B4
:1042000009F0CAC264E080ED96E10E94704463E068
:1042100082ED96E10E94704465E084ED96E10E9493
:1042200070446BEF7FEF8AEC96E10E9426B040E08D
:1042300050E068E372E48EEC96E10E9496B040E0B4
:1042400050E060E972EC8CEC96E10E9496B060E080
:1042500084EC96E10E943B4460E080EC96E10E9491
:104260003B4460E082EC96E10E943B4460E086ECD7
:1042700096E10E943B4464E688EC96E10E9470441B
:1042800061E086ED96E10E94704462E088ED96E17F
:104290000E94704460E08AED96E10E94704460E004
:1042A00080EE96E10E94704460E088EE96E10E9404
:1042B000704460E082EE96E10E94704460E084EE1B
:1042C00096E10E94704460E086EE96E10E947044A0
:1042D00063E08CED96E10E94704460E084E097E139
:1042E0000E943B4460E088E097E10E943B4440E04C
:1042F00050E060E271EC86E097E10E9496B040E009
:1043000050E060E272E48AE097E10E9496B061E0DA
:104310008CEE96E10E943B440E94E02B0E94032B0E
:1043200040E050E060E070E087ED9BE00E943A766C
:1043300040E050E0BA0186EB9CE00E9496B060E05D
:1043400070E084EB9CE00E94B64440E050E0BA018B
:104350008CEB9CE00E9496B069E170E08AEB9CE0F7
:104360000E94B64440E050E060E87FE382EC9CE0CD
:104370000E9496B062E370E080EC9CE00E94B6443C
:1043800040E050E060E070E488EC9CE00E9496B071
:104390006BE470E086EC9CE00E94B64440E050E0A4
:1043A00060E470E48EEC9CE00E9496B064E670E0FD
:1043B0008CEC9CE00E94B64440E050E060E070E08D
:1043C0008AE69DE00E943A7640E050E0BA0189E436
:1043D0009EE00E9496B060E070E087E49EE00E945C
:1043E000B64440E050E0BA018FE49EE00E9496B0EF
:1043F00069E170E08DE49EE00E94B64440E050E048
:1044000060E87FE385E59EE00E9496B062E370E09D
:1044100083E59EE00E94B64440E050E060E070E436
:104420008BE59EE00E9496B06BE470E089E59EE02B
:104430000E94B64440E050E060E470E481E69EE013
:104440000E9496B064E670E08FE59EE00E94B6445C
:1044500044E650E064E670E08DEF9EE00E943A761C
:1044600040E050E0BA018CED9FE00E9496B060E021
:1044700070E08AED9FE00E94B64440E050E0BA014F
:1044800082EE9FE00E9496B069E170E080EE9FE0CE
:104490000E94B64440E050E060E87FE388EE9FE091
:1044A0000E9496B062E370E086EE9FE00E94B64400
:1044B00040E050E060E070E48EEE9FE00E9496B035
:1044C0006BE470E08CEE9FE00E94B64440E050E068
:1044D00060E470E484EF9FE00E9496B064E670E0D0
:1044E00082EF9FE00E94B64460E080E990E10E9484
:1044F0001A7661E088E991E10E941A7661E080EA2B
:1045000092E10E941A7661E088EA93E10E941A76AD
:1045100061E080EB94E10E941A7661E088EB95E11E
:104520000E941A76E12CF12C00EA11E420E030E040
:1045300040E951E467E070E083E39BE00E94CB75C3
:1045400020E030E040E951E467E070E08CE59BE07A
:104550000E94CB7520E030E040E951E463E170E077
:1045600085E89BE00E94CB75E12CF12C00E911E479
:1045700020E030E040E851E463E170E08EEA9BE047
:104580000E94CB7597ED692E9BE0792E412C512C22
:1045900042E3A42EC12CE12C00E020E045E060E6DF
:1045A000C3010E94557460E6C3010E942D5ACC24B9
:1045B000C394EE24E39401E021E046E061E6C30108
:1045C0000E94557461E6C3010E942D5A52E0C52E27
:1045D00062E0E62E02E022E047E062E6C3010E94CC
:1045E000557462E6C3010E942D5A812CA12CB12C76
:1045F00070E8C72E7FE3D72EE12CF12C00EA10E4FF
:1046000022E044E064E6C3010E94F57264E6C3015F
:104610000E942D5A24E143E063E6C3010E94F4297D
:1046200063E6C3010E942D5AA12CB12CF0E2CF2EDB
:10463000F1E4DF2EE12CF12C00EA12E421E042E06B
:104640006FE5C3010E94F5726FE5C3010E942D5A08
:1046500040E050E0BA01C30189529F4F0E9496B0DA
:10466000820100571F4E20E041E062E3C8010E9432
:10467000F42920E040E063E3C8010E94F42962E3EA
:10468000C8010E942D5A63E3C8010E942D5A9DE67D
:10469000691A9EEF790A88EF481A8EEF580A98E156
:1046A000491693E0590609F073CF412C512CC201F1
:1046B00080579F4E3C01AA24A394C12CE12C00E01A
:1046C00020E045E060E60E94557460E6C3010E9468
:1046D0002D5ACC24C394EE24E39401E021E046E07B
:1046E00061E6C3010E94557461E6C3010E942D5A20
:1046F00082E0C82E92E0E92E02E022E047E062E686
:10470000C3010E94557462E6C3010E942D5A882499
:1047100083942DECA22E2CECB22E2CE4C22E2EE390
:10472000D22EE12CF12C00E210E421E043E06CE613
:10473000C3010E94F5726CE6C3010E942D5A21E06C
:1047400041E062E3C3010E94F42921E040E063E319
:10475000C3010E94F42962E3C3010E942D5A63E35E
:10476000C3010E942D5A98EF491A9EEF590A80E31F
:10477000481686E0580609F09ACF6FE276E086EE9A
:1047800095E00E94E14080E090E00E9420EE682FDA
:1047900086EE95E00E947D2C0E94600F40E061E073
:1047A00088ED9CE00E94732941E061E08DED9CE082
:1047B0000E94732986E38093130D42E061E08BE64B
:1047C0009EE00E94732943E061E080E79EE00E9442
:1047D000732987E38093A60E44E061E08EEF9FE0AB
:1047E0000E94732945E061E083E090E10E94732913
:1047F00040E061E08DE891E10E94732942E061E0D0
:1048000085E992E10E94732944E061E08DE993E13A
:104810000E94732945E061E085EA94E10E947329D2
:1048200046E061E08DEA95E10E94732988EE96E109
:104830000E945644811106C047E061E085EB96E195
:104840000E9473296BE376E086EE95E00E94E140DA
:1048500080E090E00E9420EE682F86EE95E00E94B6
:104860007D2C109267170F900F90DF91CF911F91C1
:104870000F91FF90EF90DF90CF90BF90AF908F900F
:104880007F906F905F904F900895FC0125819481F7
:104890009230C1F430E02053384FC901837099271A
:1048A000892B39F4C90164E670E00E943FE6892B48
:1048B00099F4C90160E971E00E943FE6892B61F03B
:1048C0008CE10895892F8170983010F091E089274C
:1048D000811104C08EE108958DE108958FE108955E
:1048E0008F929F92AF92BF92CF92DF92EF92FF9200
:1048F000CF93DF93EC0189816A017B01C80ED11C43
:10490000E11CF11CC701B6012CE330E040E050E0AF
:104910000E9475E649015A01F601C601D7FE04C09E
:10492000882799278C199D096CE370E00E943FE667
:10493000F7FD02C0A1E001C0AFEF9C010A2E000C00
:10494000BB0B0E949CE6645C7F4F8F4F9F4F2CE314
:1049500030E040E050E00E9475E669838A81880E6D
:10496000911CA11CB11CC501B40128E130E040E05C
:1049700050E00E9475E669017A01F401C40197FED6
:1049800004C0882799278819990968E170E00E9476
:104990003FE6F7FD02C0A1E001C0AFEF9C010A2E87
:1049A000000CBB0B0E949CE6685E7F4F8F4F9F4FB1
:1049B00028E130E040E050E00E9475E66A838B8198
:1049C000C80ED11CE11CF11CCE010E94452490E0D0
:1049D000A0E0B0E08C159D05AE05BF0554F4C81AE3
:1049E000D90AEA0AFB0A81E08C0D8B838C818F5FE8
:1049F0008C831C141D041E041F0444F08C81815000
:104A00008C83CE010E9445248C0D8B836D81862F73
:104A100090E0A0E0B0E02C81211105C02CE02C83B7
:104A20000197A109B1092C812D3028F021E02C83B8
:104A30000196A11DB11DBC01CD016C597F4F8F4F57
:104A40009F4F24E630E040E050E00E9475E66D8321
:104A5000DF91CF91FF90EF90DF90CF90BF90AF901C
:104A60009F908F9008953F924F925F926F927F92A6
:104A70008F929F92AF92BF92CF92DF92EF92FF926E
:104A80000F931F93CF93DF93CDB7DEB76C970FB61D
:104A9000F894DEBF0FBECDBF8C01362EDC0114961C
:104AA0006C911497FF24FA94F60E1396BC90BA9466
:104AB0008091280B9091290BA0912A0BB0912B0B80
:104AC0008D8B9E8BAF8BB88F21EE3EE245E652E494
:104AD0006091240B7091250B8091260B9091270BF0
:104AE0000E9436E769837A838B839C83332019F095
:104AF00092E1A92E02C086E0A82E6F2D70E080E022
:104B000090E00E9403ED20E030E843EF51E40E9482
:104B100062ED6B017C016B2D70E080E090E00E9403
:104B200003ED9B01AC01C701B6010E94C5E66B0114
:104B30007C016A2D70E080E090E00E9403ED20E0AF
:104B400030E040EC51E40E9436E79B01AC01C70124
:104B5000B6010E94C5E622E43DEC4CE85CE30E940D
:104B600062ED6B017C010E9431E76D837E838F8350
:104B70009887C701B6010E9409E969877A878B8700
:104B80009C87A7019601C701B6010E94C5E64B01AB
:104B90005C010E9431E76D877E878F87988BC50106
:104BA000B4010E9409E9698B7A8B8B8B9C8B20E086
:104BB00030E040E450E4C701B6010E9462ED6B01B1
:104BC0007C010E9431E72B013C01C701B6010E9424
:104BD00009E96B017C0124E431EC4CEC5EE36D816E
:104BE0007E818F8198850E9462ED9B01AC0164E615
:104BF00070EB82EE9BE30E94C4E64B015C0127EE62
:104C000032EE4FE85DE369857A858B859C850E944D
:104C100062ED9B01AC01C501B4010E94C5E64B01E8
:104C20005C0126E332E74DED5BE36D857E858F8584
:104C300098890E9462ED9B01AC01C501B4010E94FC
:104C4000C4E64B015C012DEB33EC4DE65AE3698978
:104C50007A898B899C890E9462ED9B01AC01C50118
:104C6000B4010E94C5E64B015C0127E230EC40E351
:104C70005BE3C301B2010E9462ED9B01AC01C5017F
:104C8000B4010E94C4E64B015C012FE83CEF41EC0B
:104C90005AE3C701B6010E9462ED9B01AC01C50158
:104CA000B4010E94C5E64B015C0169817A818B8168
:104CB0009C810E9431E72B013C01C501B4010E9497
:104CC00031E79B01AC0169817A818B819C81298FBD
:104CD0003A8F4B8F5C8F0E9457E96B017C01C501B5
:104CE000B4010E9457E94B015C01298D3A8D4B8D2F
:104CF0005C8DC301B2010E9462ED9B01AC0168E8CA
:104D000079E48EE69CEB0E9436E72B013C01A5017D
:104D10009401C701B6010E9462ED9B01AC01C30181
:104D2000B2010E94C4E66B017C019F7720E030E075
:104D300040E85FE30E9464E818160CF49AC0C701CB
:104D4000B6010E94B3E66B017C01311004C0F7FA92
:104D5000F094F7F8F0946D897E898F89988D90583A
:104D600021EE3EE245E652E40E9436E7A7019601B5
:104D70000E94C4E620E030E040E850E40E9462ED8A
:104D800021EE3EE245E652E40E9462ED20E030E092
:104D900044E354E40E94C5E66B017C012EEA37ED42
:104DA00044EF5AE36D817E818F8198850E9462ED88
:104DB00022E539E44DE958E30E94C5E64B015C0168
:104DC0002CE233E643E05DE369857A858B859C853B
:104DD0000E9462ED9B01AC01C501B4010E94C4E6D2
:104DE0004B015C0121EC33E74FE65CE36D857E858A
:104DF0008F8598890E9462ED9B01AC01C501B401C9
:104E00000E94C4E64B015C0128E431E547E25DE322
:104E100069897A898B899C890E9462ED9B01AC012A
:104E2000C501B4010E94C4E624E13EE245E653E434
:104E30000E9462ED9B01AC01C701B6010E94C4E66D
:104E40000E94A8E740912C0B50912D0B460F571F45
:104E5000D80112961C92129711961C9211971C92CF
:104E6000052E000C660B770BC8010E94702481E0B0
:104E700001C080E06C960FB6F894DEBF0FBECDBFC8
:104E8000DF91CF911F910F91FF90EF90DF90CF9026
:104E9000BF90AF909F908F907F906F905F904F905A
:104EA0003F900895DF92EF92FF920F931F93CF935D
:104EB000DF93CDB7DEB728970FB6F894DEBF0FBEED
:104EC000CDBF8091B70A882309F446C084EE809351
:104ED000BC008091BC0087FFFCCF80ED8093BB00BD
:104EE00084EC8093BC008091BC0087FFFCCF1092C3
:104EF000BB0084EC8093BC008091BC0087FFFCCF9A
:104F000084EE8093BC008091BC0087FFFCCF81EDD4
:104F10008093BB0084EC8093BC008091BC0087FF31
:104F2000FCCFE0EBFAE094EC9093BC008091BC00E5
:104F300087FFFCCF8091BB0081937AE0E73BF707C6
:104F400099F784E88093BC008091BC0087FFFCCF78
:104F500084E98093BC0069C080ED0E9463CA0E940E
:104F60004ECA80E00E9492CA0E944ECA81ED0E9401
:104F700063CA0E944ECA00E010E060E08091AF0A70
:104F80000E947ACD87E0E82EF12CD12C61E080914F
:104F9000AE0A0E94399F8091AF0A0E94109F992704
:104FA0000E2C01C0880F0A94EAF7D82A60E080919D
:104FB000AE0A0E94399F81E0E81AF10838F7F8013B
:104FC000E255F54FD28261E08091AF0A06301105BB
:104FD00049F00E947ACD60E08091AE0A0E94399F2C
:104FE00060E008C00E947ACD60E08091AE0A0E9425
:104FF000399F61E08091AF0A0E94399F61E0809102
:10500000AE0A0E94399F60E08091AE0A0E94399FEB
:1050100060E08091AF0A0E947ACD0F5F1F4F07308A
:10502000110509F0AACF0E9434CA8091B00A482F16
:105030004695469546954E70942F990F990F490FB6
:105040008F70480F8091B10A382F36953695369576
:105050003E70932F990F990F390F8F70380F8091F1
:10506000B20A282F2F7087FF08C085FB992790F977
:105070008CE0989F200D112409C080738695869539
:105080008695982F990F990F890F280FE091B30AF1
:105090006091B40A7091B50A8091B60A562F569560
:1050A000569556955E70952F990F990F590F6F7001
:1050B000560F672F6695669566956E70962F990FB9
:1050C000990F690F7F70670F982F92959F708F705F
:1050D0007AE0979F800D112490E08053984F9F8332
:1050E0008E83782F8F819E2F28960FB6F894DEBF7F
:1050F0000FBECDBFDF91CF911F910F91FF90EF9029
:10510000DF9008950F931F93CF93DF93EC0122E07C
:105110000E9463418C0166E475E0CE010E94054166
:10512000800F911FDF91CF911F910F9108959F9252
:10513000AF92BF92CF92DF92EF92FF920F931F93A5
:10514000CF93DF93CDB7DEB761970FB6F894DEBF8C
:105150000FBECDBF8C018CE0F8018683C12CD12C11
:105160002FE5E22E3FE7B32E4FE1A42E5FE3952E0D
:10517000F801818590E0C816D9060CF0A2C04C2D2C
:10518000BE01665F7F4FC8010E942F2FF801868104
:10519000893038F0F82EFCE0F81728F49CE0F92E5E
:1051A00002C089E0F82E8A85803139F0BE01665F41
:1051B0007F4FC8010E94873001C08CE08F1509F431
:1051C0007CC0AE014F5F5F4FBE01665F7F4FC8017D
:1051D0000E941830882309F470C08A85803109F450
:1051E0006CC08BE0F81651F0ECE0FE1629F0FAE006
:1051F000FF1206C09D8205C0BD8203C0ED8201C0C2
:10520000AD82F801828593850E949762BE01665F38
:105210007F4FF801828593850E94EB2F40E06EE47A
:10522000F801828593850E946B2F40E06B81F80125
:10523000828593850E946B2F40E06C81F801828506
:1052400093850E946B2F8A85803139F040E06D8113
:10525000F801828593850E946B2FF80182859385E2
:105260000E949762BE01665F7F4FF8018285938539
:105270000E94EB2FF801458168E4828593850E94A6
:105280006B2F64E170E080E090E00E94D5CDF801E2
:105290008581882331F06AE070E080E090E00E9430
:1052A000D5CDF801828593850E949762F8018681A9
:1052B000F81608F4F82EF801F682FFEFCF1ADF0A8D
:1052C00057CF61960FB6F894DEBF0FBECDBFDF910A
:1052D000CF911F910F91FF90EF90DF90CF90BF90F3
:1052E000AF909F9008951F93CF93DF93EC014C8371
:1052F00081E0611101C080E08983882321F081E091
:105300008A831B8203C01A8281E08B83188280917A
:10531000561781114BC010926C1A83E896E00E94D8
:10532000F8A760916C1A606283E896E00E94266597
:1053300060E083E896E00E94D3616FEF83E896E037
:105340000E94D36160E083E896E00E94D36160E050
:1053500083E896E00E94D36160E083E896E00E94D3
:10536000D36160E083E896E00E94D36160E083E867
:1053700096E00E94D36160E083E896E00E94D361EA
:1053800060E083E896E00E94D36160E083E896E005
:105390000E94D36160E083E896E00E94D36183E8D5
:1053A00096E00E94C96481E0809356171C811830F2
:1053B00070F480E00E9420C961E070E001C0660FD7
:1053C0001A95EAF76095682380E00E9443C96B81D3
:1053D0008C81883028F4DF91CF911F910C945FC9A4
:1053E000DF91CF911F910895CF92DF92EF92FF92BC
:1053F0000F931F93CF93DF93EC01F62EC42ED22E82
:105400000E94F259882309F46FC08E0106531F4F82
:10541000F8018081833008F05BC093E1E92E9E01A2
:10542000E89E200D311D1124C9016F2D81579F4F1A
:105430000E947044F80180819E01E89E200D311D7C
:105440001124C90161E08D569F4F0E943B44F80131
:1054500080819E01E89E200D311D1124C9016C2D13
:105460008F569F4F0E947044F80180819E01E89EF4
:10547000200D311D1124C9016D2D8B569F4F0E94A7
:105480007044F80180819E01E89E200D311D112499
:10549000C90160E089569F4F0E947044F8018081E5
:1054A0009E01E89E200D311D1124C90160E0875640
:1054B0009F4F0E947044F80180818F5F8083DF914D
:1054C000CF911F910F91FF90EF90DF90CF900895B3
:1054D00085EA96E0DF91CF911F910F91FF90EF90B9
:1054E000DF90CF900C9446C76F2DCE010E94AE592D
:1054F00013E19E01189F200D311D1124C90161E0A7
:105500008D569F4F0E943B446F2DCE010E94AE5995
:10551000FE01189FE00DF11D1124CF016C2D8F5657
:105520009F4F0E9470446F2DCE010E94AE599E0184
:10553000189F200D311D1124C9016D2D8B569F4FD1
:105540000E9470446F2DCE010E94AE59FE01189F3B
:10555000E00DF11D1124CF0160E089569F4F0E949C
:1055600070446F2DCE010E94AE599E01189F200DF0
:10557000311D1124C90160E087569F4FDF91CF9103
:105580001F910F91FF90EF90DF90CF900C9470449B
:10559000CF939091120D911134C0C82F811112C078
:1055A00087ED9BE00E94CB9F87ED9BE00E9450A778
:1055B00081E08093060D84E690E09093E30C809365
:1055C000E20C11C0843679F487ED9BE00E94CB9FFA
:1055D00087ED9BE00E9450A781E08093060D10921A
:1055E000E30C1092E20C2C2F40E063E387ED9BE08C
:1055F0000E94F42941E063E387ED9BE0CF910C9496
:10560000B1A1CF9108958F929F92AF92BF92CF9206
:10561000DF92EF92FF920F931F93CF93DF938CEC67
:1056200096E10E9453B06B017C018EEC96E10E94E2
:1056300053B04B015C018AEC96E10E94F9AF2CE378
:10564000AC01249FC001259F900D11249C0197FF60
:1056500004C022273327281B390B213D324024F474
:1056600090932D0B80932C0B20E030E044E353E427
:10567000C701B6019F770E9464E81816DCF020E0AD
:1056800030E044EB52E4C501B4019F770E9464E826
:10569000181684F08092240B9092250BA092260B72
:1056A000B092270BC092280BD092290BE0922A0BC4
:1056B000F0922B0B83E080932E0B82E080932F0BD4
:1056C0008BE08093300B81E08093310B8CE38093EF
:1056D000320BC3E1D7E1FE01BC2E86E0B80EDF013C
:1056E00016978C918193BE12FACF61E083E197E126
:1056F0000E9433258091151790E09093781A80933B
:10570000771A8091141790E09093761A8093751A07
:1057100003E31BE07801C12CD12C80ED96E10E94BF
:10572000564490E0C816D9067CF4C7010E9456443E
:10573000811103C0C7010E94D8B04FEFC41AD40A28
:1057400059E2E50EF11CE9CFFE013697808189937D
:10575000BC12FACF60E083E197E10E94332580918B
:10576000151790E09093721A8093711A8091141714
:1057700090E09093701A80936F1AC0E0D0E080EDB3
:1057800096E10E94564490E0C817D90764F4C80116
:105790000E945644823019F4C8010E94D8B0219664
:1057A000075D1F4FECCFDF91CF911F910F91FF90BD
:1057B000EF90DF90CF90BF90AF909F908F90089523
:1057C000CF93DF93ADE0B7E1E0E5F7E186E08E0F40
:1057D00091919D938E13FCCF8AEC96E10E94F9AFD4
:1057E000059609F087C040911117F0912E0B4F17C5
:1057F00008F480C08091300B841708F47BC0F41744
:1058000018F4481708F46BC02091121730E0E091AB
:105810001017433020F02053384F942F04C09CE0E1
:10582000940F2153384F5DE0959FC00111240396DA
:1058300065E070E00E943FE66E0F711D620F731FFE
:10584000E901D595C795D595C795C60FD71FC9014D
:105850006CE97FEF0E943FE6C60FD71FC90160E9E0
:1058600071E00E943FE6CE01860F971F27E030E0EF
:10587000B9010E943FE60196B9010E943FE651E05E
:10588000580FE81B8E2F1E162CF467E00E941DE6B1
:105890008F5F01C080E0082E000C990B4F1310C0E1
:1058A00020912F0B30E08217930724F12817390736
:1058B000B4F05130A1F480910F17823080F41AC0F7
:1058C0002091310B30E0821793074CF028173907ED
:1058D0008CF0513079F480910F17823058F4409158
:1058E000320B50E060E070E08DE097E1DF91CF9106
:1058F0000C947024DF91CF9108950F931F93CF9351
:10590000DF93EC01462F50E060E070E02AE00E9457
:105910001A418C0166E475E0CE010E940541800FBA
:10592000911FDF91CF911F910F9108950895DC0190
:10593000E0E0615038F08D91E827F0E0E153F94F55
:10594000E491F7CF8E2F089583509F4F0C94CD5B39
:10595000CF93DF93EC0121E040E063E30E94F42960
:1059600041E063E3CE01DF91CF910C94B1A1CF93DD
:10597000DF93EC0162E30E948E5A40E062E3CE01C5
:105980000E945B5541E062E3CE01DF91CF910C9420
:10599000B1A1CF93DF93EC0162E30E948E5A41E004
:1059A00062E3CE010E945B5541E062E3CE01DF91EC
:1059B000CF910C94B1A1CF93DF93EC014115510528
:1059C0006105710581F081E0FE01E850FF4F8083A1
:1059D00031964083518362837383CE018C509F4FF5
:1059E0000E94BFC70BC061E089529F4F0E943B4499
:1059F00061E0CE0187529F4F0E947044CE01DF913B
:105A0000CF910C94C92CCF93DF93EC0140E062E37B
:105A10000E94B1A1FE01E850FF4F108260E0CE016C
:105A200089529F4F0E943B44CE0183509F4F0E945A
:105A30000E5C62E3CE01DF91CF910C942D5ACF9290
:105A4000DF92EF92FF92CF93DF93FC01E850FF4F7C
:105A50002081222301F1EC018C509F4F0E94F00F16
:105A60006B017C01FE01E750FF4F208131814281B3
:105A70005381A8EEB3E00E9436EEC616D706E806BC
:105A8000F90648F0CE01DF91CF91FF90EF90DF90C3
:105A9000CF900C94032DDF91CF91FF90EF90DF908A
:105AA000CF9008958F929F92AF92BF92CF92DF9244
:105AB000EF92FF920F931F93CF93DF93EC014A0174
:105AC0005B01680179018D529F4F0E942144882318
:105AD00009F4C9C08E0101531F4FC8010E945644EA
