:100000000C94D50A0C94EB780C94C0780C949578E9
:100010000C946A780C943F780C9414780C94E977DB
:100020000C94BE770C94060B0C94060B0C94060BE8
:100030000C94060B0C94060B0C94060B0C94060BFC
:100040000C94060B0C94060B0C94060B0C94060BEC
:100050000C94060B0C94060B0C94060B0C941EA22D
:100060000C94060B0C94EB790C94C1790C94060B50
:100070000C94060B0C94060B0C94060B0C94060BBC
:100080000C94060B0C94060B0C94060B0C94060BAC
:100090000C94060B0C94060B0C94060B0C94406607
:1000A0000C94060B0C94060B0C94060B0C94060B8C
:1000B0000C94060B0C94060B0C94060B0C94060B7C
:1000C0000C94060B0C94060B0C94060B0C94060B6C
:1000D0000C94060B0C94060B0C94060B0C94060B5C
:1000E0000C94060B62AD83AD83AD83AD83AD83AD60
:1000F00083AD4EAD83AD83AD83AD83AD83AD54ADE4
:10010000D8ACE6ACF4AC06AD0EAD1CAD2AAD38AD46
:1001100046AD83AD83AD83AD83AD83AD83AD83AD9C
:100120006CAD74ADC94EC04EB74EAE4EA24EA04E91
:100130009D4E704E674E5E4EC94EC04EB74EAE4E8F
:10014000A24EA04E9D4E944EC09FC39FB29FB69F9D
:10015000BC9FFA9FC79FCB9FD19FD59FD99FDF9F01
:10016000E39FE79FFA9FED9FF19FF59F072C7AA5EC
:10017000BA6CC590DA3B9365FC8BBC53F810FD3C20
:100180005692834DBD879D3AB63DCBC9BF5BBE73CA
:10019000DA0FC93F05A84CCDB2D44EB93836A90202
:1001A0000C50B9918688083CA6AAAA2ABE00000075
:1001B000803F0664EC1B3C04BC163E3BE5B93CC9E1
:1001C0003C37C29E5A3D660498083EEA69AAAA3E98
:1001D000000000803F07634236B79BD8A71A3968F2
:1001E0005618AEBAAB558C1D3CB7CC5763BD6DED00
:1001F000FD753EF6177231BF000000803F08000019
:1002000000BE922449123EABAAAA2ABECDCCCC4C49
:100210003E00000080BEABAAAAAA3E00000000BFBC
:10022000000000803F0000000000084178D3BB437D
:1002300087D1133D190E3CC3BD4282AD2B3E68EC05
:100240008276BED98FE1A93E4C80EFFFBE01C4FF8C
:100250007F3F0000000000000C94E04A0C94D99FFE
:100260000C942AAD0C943A2A0C9471440C94B96500
:100270000C9481330C9407330C942B750C94E44547
:100280000C94D19F0C94D8AC0C945E480C94C45937
:100290000C9467700C9473700C94332C0C9413456D
:1002A0000C94C79C0C9435450C94ED700C94D11BA8
:1002B0000C94713C0C94E0310C9415300C940C347B
:1002C0000C94DD740C94CB560C94CC700C94944E1E
:1002D0000C94B29F0C944B0B0C94BD270C9492720F
:1002E0000C9450430C945F1C0C94C09F0C94402EB3
:1002F0000C9434660C94274A0C940EAD0C945E4E0C
:100300000C94662D0C94671B0C9458330C94D59F59
:100310000C9412760C9407720C94ED9F0C945D472C
:100320000C94C39D0C94204D0C94AE4E0C946E9D79
:100330000C9406AD0C94E59D0C94DD480C941E3B8A
:100340000C94C1BE0C9475600C94B74E0C94537011
:100350000C94C79F0C94D2570C9468A20C94BC9F29
:100360000C9476900C9454AD0C94939D0C94454B46
:100370000C94B4560C94DF3C0C94145D0C948B429A
:100380000C9439750C94A93E0C94C04E0C94766173
:100390000C94E39F0C94C94E0C941D610C94E433AF
:1003A0000C94E6AC0C94203C0C94A24E0C94AA2E17
:1003B0000C94ED9C0C9497460C94DE470C940875B5
:1003C0000C94F9400C9407710C94D4560C94B69F7D
:1003D0000C94C21D0C94BCB70C94C39F0C9462ADDA
:1003E0000C944F920C94F59F0C9430270C940B4E68
:1003F0000C9483AD0C94FA9F0C94139D0C9446AD11
:100400000C94B7750C943F9D0C9438AD0C94E0326D
:100410000C94A9650C9405660C946E0B0C94DF9FEC
:100420000C94FD390C9439660C942E330C94CE59EF
:100430000C943E2B0C94879B0C94C13A0C946C4BFF
:100440000C9479410C94674E0C94CA560C9474AD7C
:100450000C941E4B0C941B420C94253F0C94AA3315
:100460000C94C11C0C94A24A0C9493560C94AA654B
:100470000C943C660C949D4E0C94E13A0C94F4ACB4
:100480000C94442F0C9472700C9417750C94905724
:100490000C944B490C94245D0C941CAD0C94DC74AE
:1004A0000C94293D0C94D5650C948D8E0C9470752C
:1004B0000C94F9410C94454C0C94704E0C94B94931
:1004C0000C944EAD0C94181C0C946CAD0C94CC5642
:1004D0000C9489190C9435660C94B42B0C943E3909
:1004E0000C94AE390C94822C0C9404280C94C74BB9
:1004F0000C94E3420C94CD650C947D290C94259EBC
:100500000C94F19F0C94CB9F0C94A04E0C94E79FFD
:100510000C94F6460C94A5406572726F722063725B
:10052000656174696E672066696C65004D6F6E74F5
:10053000686C79207265636F72642066696C6520EF
:10054000657869737473004372656174696E6720BE
:100550006D6F6E74686C79207265636F726420666B
:10056000696C65006572726F72206372656174698F
:100570006E672066696C65004461696C79207265FC
:10058000636F72642066696C652065786973747343
:10059000004372656174696E67206461696C7920DB
:1005A0007265636F72642066696C65004361726492
:1005B000206661696C65642C206F72206E6F7420F8
:1005C00070726573656E7400496E697469616C69F7
:1005D0007A696E6720534420636172642E2E2E0068
:1005E00056657273696F6E20353A200056657273D6
:1005F000696F6E203A200056657273696F6E203AFB
:10060000200056657273696F6E203A2000286D6F66
:10061000726E696E672900287072656E696768740A
:100620002900444159004E49474854006D6F726E8D
:10063000696E67007072656E696768740017060DF1
:10064000062606220634060D062606220617062C66
:10065000062606220634062C0626062206205045CB
:1006600052494F4453204D454E55202000202D2007
:1006700053544152542054494D4500202D20535588
:100680004E20545241434B494E4700202D205241A9
:100690004D50494E470044494620284D4F524E493F
:1006A0004E47292020202020005052454E494748DF
:1006B0005420202020202020202020200048656178
:1006C00074696E670054454D50455241545552452A
:1006D0005300202054454D504552415455524553E6
:1006E000282A43292020006F766572726964657339
:1006F00000706172616D6574657273006469736125
:10070000626C65006C6F636B204F4E006C6F636BA7
:10071000204F464600756E6C6F636B0074696D65A3
:100720007220310074696D657220320074696D65E4
:100730007220330068756D6964697479002D524FB9
:10074000544154494F4E2054494D45287329002D9A
:10075000524F544154494F4E2054494D4528732916
:10076000002D204F50454E494E472053544550537D
:10077000202020002D204D494E204F50454E494EFF
:10078000472825292020002D204D4158204F504535
:100790004E494E4728252920200073746172742029
:1007A0006F70656E3A202000636F6F6C543A2020A2
:1007B0002020202020002D205354415254204F50FF
:1007C000454E494E472843290066756C6C206F7072
:1007D000656E3A20202000636F6F6C5420006675B0
:1007E0006C6C206F70656E3A20202000636F6F6C18
:1007F000543A20202020202020002D2046554C4C0B
:10080000204F50454E494E4728432920002D205067
:10081000415553452054494D452873292020200037
:100820002D204859535445524553495328432920B4
:10083000202000FC06F106E706202D204D41494E00
:10084000204D454E55002D20454E41424C452843F4
:100850004F4E4649524D29002D2044495341424CA8
:100860004528434F4E4649524D290034072C072452
:10087000071C070C07040734072C0724071C07155F
:1008800007202D204F5645525249444553202020E1
:1008900020202000202D20434C4F434B204F564515
:1008A000525249444500202D205354415254205463
:1008B000494D45002020574541544845522D41445B
:1008C0004A55535428252920002020202020534514
:1008D0005420484F55522020202020200020202046
:1008E00020534554204D494E55545320202020205C
:1008F000002020202020205345542044415920200E
:1009000020202020002020202020534554204D4F1F
:100910004E54482020202020002020202020534515
:100920005420594541522020202020200020202002
:10093000534554204C4154495455444520202020CF
:1009400000202020534554204C4F4E4749545544D5
:1009500045202020005D2020200020202020202075
:10096000205B002020205345542054494D455A4FC8
:100970004E452020202000636F6E6669726D006313
:10098000616E63656C00656E61626C6564006469CC
:100990007361626C656400672F6D33007C48443A74
:1009A00000672F6D33007C48413A0025007C485297
:1009B0003A0043004D61783A0043004D696E3A00B9
:1009C0004300543A0020204F555453494445205485
:1009D000454D502F48554D2020006B6D2F68005716
:1009E000696E64207370643A20006D6D0052616915
:1009F0006E203234683A20006E6F200079657300F3
:100A00005261696E3A2000202020574541544845E4
:100A1000522053544154494F4E20200020572F6DEF
:100A20003200206C75780020202052414449415406
:100A3000494F4E2044415441202020002041202095
:100A4000005232203A20002041C2A0200052312022
:100A50003A20002020204D4F544F525320435552EE
:100A600052454E54202020002054455354205052CB
:100A70004F4752414D5320007F09770920204641BE
:100A800043544F52592053455454494E4753202004
:100A900000204441592F4E4947485420534554544F
:100AA000494E475320008E0986092020574541545E
:100AB0004845522D53455454494E47532020002059
:100AC000202020534554205745415448455220206A
:100AD0002020200076616C76006865617465720084
:100AE00066616E0074656D706572617475726573B0
:100AF00000706572696F64730061646A7573746D08
:100B0000656E747300202D2053544F502054494D6E
:100B10004500202D205745415448455220434F4E13
:100B2000444954494F4E00202D2048522825292061
:100B30004F5645525249444500202D204D415820E2
:100B400048554D49444954592825292000202D2035
:100B50004C4F434B204F4E20286D696E29202000BA
:100B6000202D204C4F434B204F464620286D696E68
:100B70002900E00AD90AD40A2D205459504500739F
:100B80007461727420756E6465723A2000686561E4
:100B900074543A2020202020202000737461727445
:100BA0002061626F76653A2000636F6F6C543A2063
:100BB000202020202020002D205354415254205426
:100BC000454D50284329002D20485953544552453E
:100BD00053495328432920202000F90AF10AE40A46
:100BE0002054454D504552415455524553204D4592
:100BF0004E552020006C6F636B206F70656E006C2B
:100C00006F636B20636C6F7365006C6F636B206147
:100C10007420250077696E64007261696E006F75DB
:100C200074736964652074656D7000627265616BD0
:100C30006572002B0C1E0C190C140C2C0724071CBD
:100C40000715072B0C1E0C190C140C2C0724071C61
:100C5000070A0CFF0BF50B202D204F564552524929
:100C600044452020202020202000202D20434C4FD0
:100C7000434B204F5645525249444500202D2053A6
:100C8000544152542054494D4500202D2053544F77
:100C9000502054494D4500202D2054415247455481
:100CA00028252900202D205241494E204F564552DB
:100CB0005249444500202D205241494E20434C4F7B
:100CC0005345282529002020204C4F572054454DBE
:100CD0005020414C41524D202020002020484947BF
:100CE000482054454D5020414C41524D2020200079
:100CF000204D494E2E2054454D5045524154555299
:100D00004528432900204D41582E2054454D50453B
:100D100052415455524528432900202D2057494E11
:100D200044204F5645525249444500202D204D4104
:100D300058205350454544286B6D2F682900202DBD
:100D4000204F5554534944452054454D50204F564B
:100D500000202D20434C4F53452041542843290067
:100D6000202D20434C4F5345204154284329002037
:100D70002D204C4F434B204F50454E286D696E2916
:100D800000202D204C4F434B20434C4F5345286DA2
:100D9000696E2900202D204C4F434B20544F2025B5
:100DA000202020202000202D2044454C415920287F
:100DB0006D696E292020202000005EBCE2613FDDCD
:100DC00083C29C7E20A3FD1F419DC3217FFCA240C6
:100DD0001E5F01E3BD3E6082DC237D9FC1421CFE9D
:100DE000A0E1BF5D0380DE3C62BEE0025CDF8163A8
:100DF0003D7C22C09E1D43A1FF4618FAA427799B83
:100E0000C584DA3866E5BB5907DB856739BAE4067D
:100E1000581947A5FB7826C49A653BD987045AB868
:100E2000E6A7F91B45C6987A24F8A6441A99C7255F
:100E30007B3A6486D85B05E7B98CD2306EEDB3514E
:100E40000F4E10F2AC2F7193CD114FADF3702ECC2D
:100E500092D38D6F31B2EC0E50AFF1134DCE907234
:100E60002C6D33D18F0C52B0EE326C8ED0530DEF0F
:100E7000B1F0AE4C1291CF2D73CA947628ABF51712
:100E8000490856B4EA6937D58B5709EBB536688AF5
:100E9000D495CB2977F4AA4816E9B7550B88D634F0
:100EA0006A2B7597C94A14F6A8742AC896154BA9D7
:100EB000F7B6E80A54D7896B35737465707300729E
:100EC0006F746174696F6E2074696D6500202020F5
:100ED0002020202020202020202020202020202012
:100EE0000020202020202020202020202020202022
:100EF0002020202000202D20002020202020202025
:100F000020202020202020202020202000442020DD
:100F10003A20636F6E6669726D2F6E657874002A71
:100F200023203A2061646A7573740050726573738C
:100F30002027432720746F2063616E63656C005027
:100F4000726573732027442720746F20636F6E6669
:100F500069726D005D2020202000202020202020AC
:100F60005B005D2020003E5B005D202000205B00D8
:100F7000434C440053554E005D202000205B00434D
:100F80004C440053554E005D2020003E5B005D0048
:100F90004D4F44203A202020202020205B005D205F
:100FA000202000202020202020205B005D20202009
:100FB00000202020202020205B0020202020202036
:100FC0002020202020202020202020202020003E23
:100FD0002000202020202020202020202020202031
:100FE00020202020202000494E444546494E4954A7
:100FF000454C5900FC06F106E706202D204D4149DD
:101000004E204D454E5520202020202000BF0EB9F7
:101010000E2D2053455420504152414D45544552C8
:10102000532020002D204143544956415445002D62
:101030002044495341424C4528434F4E4649524D66
:1010400029007C3C3E5E2B3D3F2F5B5D3B2C2A22E2
:101050005C005D202020005D3A5B002020202020E5
:101060005B002F002F00207C003A003A002C002C5F
:10107000002C002C002C002C002C002C002C002C10
:10108000002C002C002C002C002C002C002C002C00
:10109000002C003A30302C003A004572726F7220FA
:1010A00077726974696E6720746F2066696C650079
:1010B0005D202020003E5B005D2000205B00434C53
:1010C000440053554E005D20202000205B005D2031
:1010D00000205B002020202048656174696E672035
:1010E00020436F6F6C696E6720005D202020002018
:1010F0005B005D20003E5B00434C440053554E00B6
:101100005D20202000205B005D2000205B0020206F
:10111000202048656174696E672020436F6F6C6999
:101120006E67005D20202000205B005D2000205BBA
:1011300000434C440053554E005D202020003E5B90
:10114000005D2000205B002020202048656174693C
:101150006E672020436F6F6C696E67005D202020F2
:1011600000205B005D202000205B00434C440053C6
:10117000554E005D202020005B005D2020003E5B7E
:10118000002020202048656174696E672020436F2D
:101190006F6C696E6700436F6F6C696E67005445D2
:1011A0004D50455241545552455300202054454D11
:1011B000504552415455524553282A432920200076
:1011C00048656174696E670054454D5045524154FD
:1011D0005552455300202054454D504552415455D9
:1011E000524553282A4329202000436F6F6C696EB3
:1011F000670054454D5045524154555245530020C7
:101200002054454D504552415455524553282A4388
:101210002920200030004F4646004F4E200020205D
:1012200020202020002500202020202020202020F9
:101230002000250020202020202020202000212107
:101240002100432D202020002121210043002020C7
:10125000202020202020200061646A7573742054AF
:10126000323468006461792F6E6967687420736531
:101270007474696E67730077656174686572206164
:10128000646A75737400696E73696465006F757460
:101290007369646500776561746865720072616482
:1012A000696174696F6E006D6F746F727300646949
:1012B0007361626C65640053485431580044533183
:1012C000384232300064697361626C656400627533
:1012D000636B6574206D6F6465004E4F20636F6EA5
:1012E00074616374004E4320636F6E7461637400B5
:1012F000771264125812202054454D502041444A20
:101300005553544D454E545320200074656D702044
:10131000706172616D657465727300496E637265A8
:101320006173652F646563722E20616C6C002020F0
:1013300041444A5553542054454D5020323448209E
:10134000200020202020434F4E464947204D454E47
:1013500055202020202000A7129D1295128D128664
:10136000122053454C4543542053454E534F522071
:101370000020494E534944452054454D5020534583
:101380004E534F522000BD12B712AE124F55545358
:101390004944452054454D502053454E534F52002B
:1013A000E512DA12CE12C5122020205241494E20F9
:1013B00053454E534F5220202000202020414E45BF
:1013C0004D4F4D4554455220202000202020202004
:1013D0004C5558204D455445522020202000672F61
:1013E0006D33007C48443A00672F6D33007C4841E0
:1013F0003A0025007C48523A004300543234683A9F
:10140000004300543A00202020494E5349444520CF
:1014100054454D502F48554D2020000000210024F8
:101420000027002A002D00300033000101000004D5
:101430000107010A0100002200250028002B002ED0
:10144000003100340002010000050108010B010019
:101450000020002300260029002C002F003200006D
:10146000010000030106010901050505050705083E
:10147000080808020202020A0A0808040404040117
:101480000101010101010103030303030303030439
:101490000707070C0C0C0C0C0C0C0C0202020206C9
:1014A000060606060606060B0B0B0B0B0B0B0B01B9
:1014B0000210202008081020401020408002010265
:1014C000010804020101020408102040808040202D
:1014D0001008040201800402018040201008040268
:1014E00001080402010102040810204080010204E6
:1014F000081020408000000A0B02090C0D0E08079E
:1015000003040100000000000000000000000000D3
:1015100000000000000000000000000000000000CB
:101520000012111000000000000000000000000088
:1015300000000000000000000000003A004E475488
:101540003A20003A005052453A20003A00444159AE
:101550003A20003A004449463A20002F00284E47DE
:10156000542900285052452900284441592900286F
:10157000444946290020202020202020202020002F
:10158000284E4754290028505245290028444159E3
:1015900029002844494629007C00202020202020C2
:1015A000202020202000BCB7C1BE11241FBECFEFD9
:1015B000D1E2DEBFCDBF00E00CBF16E0A0E0B2E09C
:1015C000E2ECFEE801E00BBF02C007900D92A43EE2
:1015D000B107D9F72CE1A4EEB6E001C01D92A33FFC
:1015E000B207E1F71AE0C4EDDAE000E006C02197A7
:1015F0000109802FFE010E9493BFC33DD10780E007
:101600000807A9F70E9469A40C944FC70C94000026
:1016100080915D0790915E07CC976CF010925E0709
:1016200010925D0780915B0790915C070196909303
:101630005C0780935B0780915B0790915C074897FC
:1016400034F010925C0710925B0710929119809110
:101650006502909166024F977CF081E090E0909354
:101660006602809365028091630290916402019604
:10167000909364028093630280916302909164026C
:101680000D9744F081E090E09093640280936302B0
:1016900010929119089580E090E008950E949F545F
:1016A0000E94C25384E49EE00E94A92381E090E15D
:1016B0000E94A9238EEB91E10E94A92388ED9CE072
:1016C0000E941A2183E39DE00E941A218EE89DE08A
:1016D0000E941A2189EE9DE00C941A210F931F930A
:1016E0000E9412A2009153071091540720915507B0
:1016F00030915607DC01CB01801B910BA20BB30B81
:101700004097A105B105A8F180914F07909150072E
:10171000A0915107B09152070196A11DB11D809370
:101720004F0790935007A0935107B09352076091D1
:101730004F077091500780915107909152070E9476
:1017400000C62DEC3CEC4CEC5CE30E9461C660935F
:101750008C1970938D1980938E1990938F190E9414
:1017600012A2609353077093540780935507909388
:1017700056071F910F91089580916107811104C050
:1017800080919119882311F081E001C080E00C94D0
:10179000E397FC01808191810C941FC70F931F93E5
:1017A000CF93DF932AEDFB01DC0101900D922A9586
:1017B000E1F7FC01E652FF4FDB01A652BF4F0D914E
:1017C0001D912D913C910083118322833383DC0191
:1017D000A252BF4FFB01E252FF4F2AE001900D924F
:1017E0002A95E1F7DC01A851BF4FFB01E851FF4FFB
:1017F00026E001900D922A95E1F7DC01A251BF4F3E
:10180000FB01E251FF4F26E001900D922A95E1F78E
:10181000DC01AC50BF4FFB01EC50FF4F26E00190C4
:101820000D922A95E1F7FC01E650FF4FDB01A6502F
:10183000BF4F2D913C9131832083DC01A450BF4FD9
:10184000FB01E450FF4F2AE001900D922A95E1F749
:10185000EC01CA5FDE4F8B010A5F1E4F20E030E0D3
:1018600042E1DE01A20FB31FF801E20FF31F542F74
:1018700001900D925A95E1F72E5E3F4F2C363105BF
:1018800081F7FC01EE58FE4FDB01AE58BE4F2D91A3
:101890003C91119731832083329612960D911D91C0
:1018A0002D913C910083118322833383FB01E858FF
:1018B000FE4F0081118122813381FC01E858FE4FE7
:1018C0000083118322833383FB01E458FE4F208180
:1018D000FC01E458FE4F2083FB01E358FE4F0081DA
:1018E000118122813381FC01E358FE4F0083118373
:1018F00022833383FB01EF57FE4F2081FC01EF571A
:10190000FE4F2083FB01EE57FE4F2081FC01EE5776
:10191000FE4F2083DC01AD57BE4FFB01ED57FE4F5C
:1019200025E001900D922A95E1F7DC01A857BE4F02
:10193000FB01E857FE4F25E001900D922A95E1F753
:10194000FB01E357FE4F20813181FC01E357FE4F3D
:1019500031832083FB01E157FE4F008111812281F9
:101960003381FC01E157FE4F0083118322833383CF
:10197000FB01ED56FE4F0081118122813381FC0174
:10198000ED56FE4F0083118322833383FB01E9561A
:10199000FE4F0081118122813381FC01E956FE4F07
:1019A0000083118322833383FB01E556FE4F0081C0
:1019B000118122813381FC01E556FE4F00831183A2
:1019C00022833383FB01E156FE4F20813181FC01EC
:1019D000E156FE4F31832083FB01EF55FE4F2081FE
:1019E0003181FC01EF55FE4F31832083FB01ED5522
:1019F000FE4F20813181FC01ED55FE4F3183208364
:101A0000FB01EB55FE4F2081FC01EB55FE4F20837F
:101A1000FB01EA55FE4F2081FC01EA55FE4F208371
:101A2000FB01E955FE4F2081FC01E955FE4F208363
:101A3000FB01E855FE4F20813181FC01E855FE4F46
:101A400031832083FB01E655FE4F20813181FC016B
:101A5000E655FE4F31832083FB01E455FE4F208184
:101A60003181FC01E455FE4F31832083FB01E255B7
:101A7000FE4F20813181FC01E255FE4F31832083EE
:101A8000FB01E055FE4F2081FC01E055FE4F208315
:101A9000FB01EF54FE4F0081118122813381FC0153
:101AA000EF54FE4F0083118322833383FB01EB54F9
:101AB000FE4F0081118122813381FC01EB54FE4FE6
:101AC0000083118322833383FB01E754FE4F20817F
:101AD0003181FC01E754FE4F31832083FB01E55443
:101AE000FE4F20813181FC01E554FE4F318320837C
:101AF000DF91CF911F910F9108956F927F928F92F6
:101B00009F92AF92BF92CF92DF92EF92FF920F938C
:101B10001F93CF93DF93CDB7DEB7CF5BD1400FB626
:101B2000F894DEBF0FBECDBFE12C9DEBC92EDD24A6
:101B3000D39486EE98E10E94BC7AE81608F0CCC0F7
:101B40002091321940913319EC9C8001ED9C100DCD
:101B500011240C5B114F60E6C801C254DE4F28838C
:101B6000CE5BD140C154DE4F4883CF5BD1400E9451
:101B70000427C254DE4F2881CE5BD140C154DE4FD2
:101B80004881CF5BD140BC01C8010E94C72620918B
:101B900032194091331961E6C801C254DE4F2883DF
:101BA000CE5BD140C154DE4F4883CF5BD1400E9411
:101BB0000427C254DE4F2881CE5BD140C154DE4F92
:101BC0004881CF5BD140BC01C8010E94C72620914B
:101BD00032194091331962E6C801C254DE4F28839E
:101BE000CE5BD140C154DE4F4883CF5BD1400E94D1
:101BF0000427C254DE4F2881CE5BD140C154DE4F52
:101C00004881CF5BD140BC01C8010E94C72664E473
:101C10007EE0CE0101960E94CE0B809041199090FB
:101C20004219A0904319B0904419CE01895F9E4F8C
:101C30000E94EE7A3C0163E6CE0101960E94647E2A
:101C4000F0909019FF2029F190E0C257DE4F2881D3
:101C50003981CE58D14028173907D0F0B30180E040
:101C600090E00E9400C69B01AC01C501B4010E9436
:101C7000C4BF9B01AC01FF24F3946091C90B709128
:101C8000CA0B8091CB0B9091CC0B0E9463C187FD56
:101C9000F12C4F2D63E6C8010E942326CE01019648
:101CA0000E947125209188193091891940918A19D3
:101CB00050918B196FE5C8010E9480252091470B38
:101CC0003091480B4091490B50914A0B64E6C80192
:101CD0000E948025E3942DCF912C8DE0C82EDD2429
:101CE000D3948AEE98E10E94BC7A981608F0FFC05F
:101CF000A92CB12CAC9C8001AD9C100DBC9C100D8E
:101D00001124C80187599B4E0E94BC7A0E54194F6A
:101D1000823009F074C084EC98E10E94BC7A882E6D
:101D20002091321940913319C8018753934F7C0198
:101D300060E6C254DE4F2883CE5BD140C154DE4FF3
:101D40004883CF5BD1400E940427BC01082DC254B8
:101D5000DE4F2881CE5BD140C154DE4F4881CF5B3E
:101D6000D140C7010E94812684EC98E10E94BC7A90
:101D7000082F209132194091331961E6C701C254EE
:101D8000DE4F2883CE5BD140C154DE4F4883CF5B0A
:101D9000D1400E940427BC01C254DE4F2881CE5B93
:101DA000D140C154DE4F4881CF5BD140C7010E9472
:101DB000812684EC98E10E94BC7A082F2091321988
:101DC0004091331962E6C701C254DE4F2883CE5BCF
:101DD000D140C154DE4F4883CF5BD1400E940427DD
:101DE000BC01C254DE4F2881CE5BD140C154DE4FCE
:101DF0004881CF5BD140C7010E94812662C02091FB
:101E00003219409133190753134F60E6C801C25489
:101E1000DE4F2883CE5BD140C154DE4F4883CF5B79
:101E2000D1400E940427C254DE4F2881CE5BD140AE
:101E3000C154DE4F4881CF5BD140BC01C8010E9434
:101E4000C726209132194091331961E6C801C25466
:101E5000DE4F2883CE5BD140C154DE4F4883CF5B39
:101E6000D1400E940427C254DE4F2881CE5BD1406E
:101E7000C154DE4F4881CF5BD140BC01C8010E94F4
:101E8000C726209132194091331962E6C801C25425
:101E9000DE4F2883CE5BD140C154DE4F4883CF5BF9
:101EA000D1400E940427C254DE4F2881CE5BD1402E
:101EB000C154DE4F4881CF5BD140BC01C8010E94B4
:101EC000C7262091C50A3091C60A4091C70A509191
:101ED000C80AAC9CC001AD9C900DBC9C900D112417
:101EE0006AE685589C4E0E9480259394FACE4091D4
:101EF000400750914107609142077091430784E485
:101F00009EE00E942E2540913C0750913D07609134
:101F10003E0770913F0781E090E10E942E25C15459
:101F2000DE4F0FB6F894DEBF0FBECDBFDF91CF916D
:101F30001F910F91FF90EF90DF90CF90BF90AF90E7
:101F40009F908F907F906F900895AC014B545F4F9E
:101F500049F09C0129523F4F2417350719F02151B0
:101F60003109FACF9C012D593F4F31F042175307E9
:101F700019F049525109FACF009731F02817390763
:101F800019F021523109FACF0895CF92DF92EF92E2
:101F9000FF92E8E3F7E0ACE0B7E072916291529112
:101FA0004291448355836683778347E0EC30F4079E
:101FB000A1F74091640750916507609166077091A1
:101FC000670740930C0750930D0760930E077093BB
:101FD0000F0720E030E060E070E0CB01CD90DD90B5
:101FE000ED90FD904FEFC416D104E104F10431F0FF
:101FF0006C0D7D1D8E1D9F1D2F5F3F4F47E0AC3345
:10200000B40761F7611571058105910571F0032E23
:10201000000C440B550B0E9452BF2093680730936D
:10202000690740936A0750936B07FF90EF90DF902A
:10203000CF900895CF92DF92EF92FF9288E30E94B3
:10204000B9A19C01220F331F220F331F3093630766
:102050002093620723EC30E0DC010E94A3BFE8E09C
:10206000F7E0A4EEB6E0F290E290D290C290C48283
:10207000D582E682F78226E0E43EF207A1F760937C
:10208000E4067093E5068093E6069093E70620E069
:1020900030E060E070E0CB01CD90DD90ED90FD9000
:1020A0004FEFC416D104E104F10431F06C0D7D1D35
:1020B0008E1D9F1D2F5F3F4F47E0A434B40761F78B
:1020C000611571058105910571F0032E000C440B1B
:1020D000550B0E9452BF20936407309365074093CD
:1020E000660750936707FF90EF90DF90CF900895B9
:1020F0008F929F92AF92BF92CF92DF92EF92FF9218
:102100000E94BC0B8EEE98E10E94BC7A8130F1F403
:102110008DE69CE00E94775C6B017C018090C50A93
:102120009090C60AA090C70AB090C80A20E030E09C
:10213000A9010E94FBC518163CF043E050E0C50120
:10214000B4010E94CE9A02C01092E51C8091E51C59
:1021500081110EC0B701A60185EC9AE0FF90EF90C7
:10216000DF90CF90BF90AF909F908F900C94832280
:10217000FF90EF90DF90CF90BF90AF909F908F90A7
:1021800008958F929F92AF92BF92CF92DF92EF927B
:10219000FF920E94BC0B80916107893609F05AC0FA
:1021A0008091600781110CC04DEC5CEC60E271E441
:1021B00089EC9BE00E94832281E08093600723C02A
:1021C00080915F072DEC3CEC4CE45DE381110BC08A
:1021D0006091C90B7091CA0B8091CB0B9091CC0B85
:1021E0000E94C4BF0AC06091C90B7091CA0B809154
:1021F000CB0B9091CC0B0E94C3BFAB01BC0189EC0F
:102200009BE00E948322C090C90BD090CA0BE09043
:10221000CB0BF090CC0B20E030E040EF51E4C70155
:10222000B6010E9463C187FD03C081E080935F0710
:1022300020E030E040E251E4C701B6010E94FBC556
:1022400018160CF473C010925F071092600710927A
:1022500061076CC08EEE98E10E94BC7A811117C0B4
:1022600083EA9CE00E94395B83EA9CE00E94F39839
:102270006B017C018090C90B9090CA0BA090CB0B96
:10228000B090CC0B20E030E04EEF52EC2EC08EEE42
:1022900098E10E94BC7A8130B9F58DE69CE00E94FD
:1022A000155C6091730C7091740C072E000C880BF8
:1022B000990B0E9402C62AE037ED43E25CE30E94DC
:1022C00061C620E030E040E252E40E94C3BF6B01EF
:1022D0007C018090C90B9090CA0BA090CB0BB09062
:1022E000CC0B20E030E040E252ECC701B6010E9486
:1022F000FBC518163CF041E050E0C501B4010E9456
:10230000CE9A02C01092E51C8091E51C81110EC08E
:10231000B701A60189EC9BE0FF90EF90DF90CF9092
:10232000BF90AF909F908F900C948322FF90EF907E
:10233000DF90CF90BF90AF909F908F9008950E94B4
:10234000BC0B80919119893C59F50E942A52209327
:102350004B0C30934C0C40934D0C50934E0C6093AF
:102360004F0C7093500C8093510C9093520C109220
:10237000A01980915D0790915E078093A11920912B
:102380005B072093A2195093A3196093A419705D61
:102390007093A519029690935E0780935D071DC008
:1023A0008A3CE9F41092A01980915D078093A119ED
:1023B00080915B078093A2198091650290916602DB
:1023C0008093A319209163022093A4191092A51958
:1023D000019690936602809365020C94080B0E940C
:1023E0002A5220934B0C30934C0C40934D0C50933D
:1023F0004E0C60934F0C7093500C8093510C909343
:10240000520C705D7093A5196093A4195093A31991
:102410002093A2193093A1194093A019089589E33C
:102420000E94B9A1BC01990F880B990B0E9402C6AA
:102430002EE036E348ED5DE30E9461C660938819A3
:102440007093891980938A1990938B1908950F932B
:102450001F93CF93DF931F92CDB7DEB78C016983B3
:102460000E94C90B6981681729F0F8018081918168
:102470000E9427C7C8010F90DF91CF911F910F9144
:1024800008954F925F926F927F928F92AF92BF9218
:10249000CF92DF92EF92FF920F931F93CF93DF9330
:1024A0001F921F92CDB7DEB762E076E08CE697E030
:1024B0000E942B7980E090E00E941FC70E943C554B
:1024C00080E090E00E941FC78F3699F0612C712C3C
:1024D0007A82698260E0CE0101960E9427128FEF16
:1024E000681A780A611490E1790691F781E0809387
:1024F00092191A8219826FE6CE0101960E94271264
:1025000067EF75E08CE697E00E942B7980E090E021
:102510000E941FC70E943C5580919219813009F09A
:102520009FC264E082EE98E10E94D67A63E086EE74
:1025300098E10E94D67A65E08AEE98E10E94D67A08
:102540006BEF7FEF88EC98E10E94707B48EB5EE1D7
:1025500068E372E488ED98E10E94DD7B48EB5EE180
:1025600063E972EC8EEC98E10E94DD7B60E080EC28
:1025700098E10E94A47A60E08CEB98E10E94A47A32
:1025800060E08EEB98E10E94A47A60E082EC98E132
:102590000E94A47A64E684EC98E10E94D67A60E016
:1025A0008EEE98E10E94D67A62E082EF98E10E9476
:1025B000D67A60E086EF98E10E94D67A60E08EEFEE
:1025C00098E10E94D67A60E08AEF98E10E94D67A7C
:1025D00060E088E199E10E94A47A60E084E299E1F8
:1025E0000E94A47A40E050E060E271EC8AE199E157
:1025F0000E94DD7B40E050E060E272E486E299E117
:102600000E94DD7B0E949F540E94C25384E49EE09E
:102610000E94E45540E050E0BA0180E59FE00E944E
:10262000DD7B60E070E08AE49FE00E94197B40E07F
:1026300050E0BA0182E69FE00E94DD7B69E170E034
:102640008CE59FE00E94197B40E050E060E87FE36A
:1026500084E79FE00E94DD7B62E370E08EE69FE00E
:102660000E94197B40E050E060E070E486E89FE063
:102670000E94DD7B6BE470E080E89FE00E94197BA4
:1026800040E050E060E470E488E99FE00E94DD7B78
:1026900064E670E082E99FE00E94197B81E090E1AE
:1026A0000E94E45540E050E0BA018DE091E10E94C3
:1026B000DD7B60E070E087E091E10E94197B40E003
:1026C00050E0BA018FE191E10E94DD7B69E170E0A9
:1026D00089E191E10E94197B40E050E060E87FE3EE
:1026E00081E391E10E94DD7B62E370E08BE291E1A6
:1026F0000E94197B40E050E060E070E483E491E1E7
:102700000E94DD7B6BE470E08DE391E10E94197B18
:1027100040E050E060E470E485E591E10E94DD7BFB
:1027200064E670E08FE491E10E94197B8EEB91E109
:102730000E94E45540E050E0BA018AEC92E10E9428
:10274000DD7B60E070E084EC92E10E94197B40E068
:1027500050E0BA018CED92E10E94DD7B69E170E00E
:1027600086ED92E10E94197B40E050E060E87FE353
:102770008EEE92E10E94DD7B62E370E088EE92E1F2
:102780000E94197B40E050E060E070E480E093E15B
:102790000E94DD7B6BE470E08AEF92E10E94197B7E
:1027A00040E050E060E470E482E193E10E94DD7B70
:1027B00064E670E08CE093E10E94197B60E08BE7B7
:1027C00093E10E94C15561E088E894E10E94C155FF
:1027D00061E085E995E10E94C15561E082EA96E1F8
:1027E0000E94C15561E08FEA97E10E94C15571E4F2
:1027F000772E7F92E0E96E2E6F921F921F92A12C8E
:10280000B12CF0E8CF2EF1E4DF2EE12CF12C00EB1F
:1028100011E420E030E040EA51E469E070E088ED46
:102820009CE00E9453557F9280EA8F931F921F92E3
:10283000A12CB12CB0E9CB2EB1E4DB2EE12CF12C94
:1028400008EC11E420E030E040EB51E469E070E096
:1028500083E39DE00E9453557F926F921F921F92D7
:10286000A12CB12C90E8C92E91E4D92EE12CF12CA9
:1028700000EA11E420E030E040E951E463E170E077
:102880008EE89DE00E9453557F926F921F921F9297
:1028900020E030E040E951E463E170E089EE9DE042
:1028A0000E9453550FB6F894DEBF0FBECDBF412C2A
:1028B000512CC2018C5B914F3C01A2E3AA2EBEE1D8
:1028C000CB2E13E0E12E00E023E043E060E60E941F
:1028D000C68060E6C3010E94D4810FE1C02E84E06F
:1028E000E82E01E024E044E061E6C3010E94C680D6
:1028F00061E6C3010E94D48190E2C92E25E0E22E58
:1029000002E025E045E062E6C3010E94C68062E67F
:10291000C3010E94D481812CA12CB12C30EAC32E9A
:1029200030E4D32EE12CF12C00EA12E421E041E066
:102930006FE5C3010E949E7F6FE5C3010E94D481B1
:10294000A12CB12C50E8C52E5FE3D52EE12CF12C43
:1029500000EA10E422E041E064E6C3010E949E7FA9
:1029600064E6C3010E94D48124E142E063E6C3012E
:102970000E94D37E63E6C3010E94D48140E050E010
:10298000BA01C201805C904F0E94DD7B93E4491A3A
:102990009EEF590A87E3481685E0580609F089CF6B
:1029A000412C512CC20185589C4E3C01AA24A39471
:1029B0002EE1C22E33E0E32E00E023E042E060E6A9
:1029C0000E94C68060E6C3010E94D4814FE1C42EFC
:1029D00054E0E52E01E024E043E061E6C3010E94FB
:1029E000C68061E6C3010E94D48160E2C62E75E014
:1029F000E72E02E025E044E062E6C3010E94C680C3
:102A000062E6C3010E94D48188248394A12CB12C56
:102A1000E0EACE2EE0E4DE2EE12CF12C00EA12E416
:102A200021E043E06AE6C3010E949E7F6AE6C3019B
:102A30000E94D48193EF491A9EEF590A81E4481607
:102A400085E0580609F0AECF60EE75E08CE697E0C1
:102A50000E942B7980E090E00E941FC70E943C55A5
:102A60000E944E0B40E061E087EC9FE00E9412560E
:102A700041E061E08CEC9FE00E94125642E061E090
:102A800084E891E10E94125643E061E089E891E117
:102A90000E94125645E061E081E493E10E941256E3
:102AA00046E061E086E493E10E94125644E061E072
:102AB0008EE794E10E94125645E061E08BE895E1D3
:102AC0000E94125646E061E088E996E10E941256A3
:102AD00040E061E085EA97E10E94125642E061E041
:102AE00082EB98E10E9412566CEE75E08CE697E05E
:102AF0000E942B7980E090E00E941FC70E943C5505
:102B0000109292190F900F90DF91CF911F910F911A
:102B1000FF90EF90DF90CF90BF90AF908F907F901D
:102B20006F905F904F9008950F931F93CF93DF9313
:102B3000EC010E9412A2088119812A813B81601B4D
:102B4000710B820B930BDF91CF911F910F91089521
:102B5000CF92DF92EF92FF928AEF98E10E94BC7AC7
:102B6000813049F483E00E9424A1892B79F481E02B
:102B7000809390195AC08AEF98E10E94BC7A811123
:102B800008C083E00E9424A1019789F31092901954
:102B90004CC08AEF98E10E94BC7A823009F045C0AF
:102BA00083E799E00E949415613C744D8140910542
:102BB000E0F1C0908C19D0908D19E0908E19F090B2
:102BC0008F192AE037ED43E25DE36091570770917A
:102BD00058078091590790915A070E94C4BF9B01E2
:102BE000AC01C701B6010E9463C1181624F481E04C
:102BF0008093901902C01092901980918C19909135
:102C00008D19A0918E19B0918F19809357079093C9
:102C10005807A0935907B0935A0783E799E0FF90AC
:102C2000EF90DF90CF900C942C98FF90EF90DF9076
:102C3000CF900895CF93DF93EC010E9412A2688396
:102C400079838A839B83DF91CF9108950F931F939C
:102C50002AEDFB01DC0101900D922A95E1F7DC01E0
:102C6000A652BF4FFB01E652FF4F2AE001900D92A2
:102C70002A95E1F7DC01AC51BF4FFB01EC51FF4F4E
:102C80002AE001900D922A95E1F7FC01E251FF4FF5
:102C9000DB01A251BF4F0D911D912D913C911397D6
:102CA0000083118322833383349614962D913C91B3
:102CB000119731832083329612962D913C91119772
:102CC00031832083329612960D911D912D913C9166
:102CD0000083118322833383FB01E650FF4F008181
:102CE000118122813381FC01E650FF4F0083118363
:102CF00022833383FB01E250FF4F2081FC01E2502D
:102D0000FF4F2083FB01E150FF4F008111812281A1
:102D10003381FC01E150FF4F008311832283338311
:102D2000DC01AD5FBE4FFB01ED5FFE4F25E0019082
:102D30000D922A95E1F7FB01E85FFE4F2081FC012F
:102D4000E85FFE4F2083FB01E75FFE4F208131816A
:102D5000FC01E75FFE4F31832083FB01E55FFE4FFF
:102D600020813181FC01E55FFE4F318320831F917B
:102D70000F910895EF92FF920F93CF93DF93CDB70A
:102D8000DEB7CF5CD1400FB6F894DEBF0FBECDBF2B
:102D900084E997E10E948A7A81113CC064E47EE074
:102DA000CE0101960E94CE0B6DE775E0CE018653F1
:102DB0009E4F0E94A97765E875E0CE018C539E4F27
:102DC0000E94A9776DE875E0CE0182549E4F0E9463
:102DD000A977CE0101967C0102E020E0AE014653C6
:102DE0005E4FBE016C537E4F83549E4F0E942B95C5
:102DF000CE0182549E4F0E944C77CE018C539E4F41
:102E00000E944C77CE0186539E4F0E944C77C7019B
:102E10000E94712581EA98E10E948A7A81113CC062
:102E200061E070E1CE0101960E94CE0B6DE775E086
:102E3000CE0186539E4F0E94A97765E875E0CE01CA
:102E40008C539E4F0E94A97762E975E0CE018254AF
:102E50009E4F0E94A977CE0101967C0102E02AE0F4
:102E6000AE0146535E4FBE016C537E4F83549E4F5E
:102E70000E942B95CE0182549E4F0E944C77CE012A
:102E80008C539E4F0E944C77CE0186539E4F0E94DA
:102E90004C77C7010E9471258AE795E10E948A7AE2
:102EA000811107C087E896E10E948A7A882309F495
:102EB00075C18DE694E10E948A7A882309F444C0A2
:102EC00089E694E10E94BC7A811109C06BE773E145
:102ED000CE0101960E94261667E975E01DC089E6BD
:102EE00094E10E94BC7A813049F46BE773E1CE0132
:102EF00001960E9426166BE975E00EC089E694E102
:102F00000E94BC7A823001F56BE773E1CE01019635
:102F10000E9426166FE975E0CE0182549E4F0E94F2
:102F2000A9779E012F5F3F4F43E060E0CE018254BE
:102F30009E4F0E943896CE0182549E4F0E944C773D
:102F4000CE0101960E94A50F88EB92E10E948A7A39
:102F5000811144C086E795E10E94BC7A811109C0C5
:102F600068E874E1CE0101960E94261663EA75E0D6
:102F70001DC086E795E10E94BC7A813049F468E87B
:102F800074E1CE0101960E94261667EA75E00EC034
:102F900086E795E10E94BC7A823001F568E874E129
:102FA000CE0101960E9426166BEA75E0CE0182548E
:102FB0009E4F0E94A9779E012F5F3F4F43E067E03D
:102FC000CE0182549E4F0E943896CE0182549E4F6D
:102FD0000E944C77CE0101960E94A50F88EB92E1EA
:102FE0000E948A7A811144C083E896E10E94BC7AEB
:102FF000811109C065E975E1CE0101960E9426168E
:103000006FEA75E01DC083E896E10E94BC7A8130CA
:1030100049F465E975E1CE0101960E94261663EB3D
:1030200075E00EC083E896E10E94BC7A823001F51B
:1030300065E975E1CE0101960E94261667EB75E001
:10304000CE0182549E4F0E94A9779E012F5F3F4F71
:1030500043E06EE0CE0182549E4F0E943896CE012E
:1030600082549E4F0E944C77CE0101960E94A50F7C
:103070008EE39FE00E948A7A811144C080E997E143
:103080000E94BC7A811109C062EA76E1CE01019604
:103090000E9426166BEB75E01DC080E997E10E9447
:1030A000BC7A813049F462EA76E1CE0101960E9451
:1030B00026166FEB75E00EC080E997E10E94BC7A9E
:1030C000823001F562EA76E1CE0101960E94261671
:1030D00063EC75E0CE0182549E4F0E94A9779E0159
:1030E0002F5F3F4F42E060E0CE0182549E4F0E942E
:1030F0003896CE0182549E4F0E944C77CE010196A5
:103100000E94A50F8BEF90E10E948A7A811183C003
:103110008DE998E10E94BC7A811109C06FEA77E1DC
:10312000CE0101960E94261667EC75E01EC08DE95F
:1031300098E10E94BC7A813049F46FEA77E1CE01D0
:1031400001960E9426166BEC75E00FC08DE998E1A0
:103150000E94BC7A823009F05EC06FEA77E1CE014E
:1031600001960E9426166FEC75E0CE0182549E4FA8
:103170000E94A9779E012F5F3F4F42E06EE0CE0193
:1031800082549E4F0E943896CE0182549E4F0E94D8
:103190004C77CE0101960E94A50F3DC06EEB71E108
:1031A000CE0101960E94CE0B6DE775E0CE018653ED
:1031B0009E4F0E94A97765E875E0CE018C539E4F23
:1031C0000E94A97763ED75E0CE0182549E4F0E9464
:1031D000A977CE0101967C0103E02AE0AE014653B7
:1031E0005E4FBE016C537E4F83549E4F0E942B95C1
:1031F000CE0182549E4F0E944C77CE018C539E4F3D
:103200000E944C77CE0186539E4F0E944C77C70197
:103210000E9471254ECEC153DE4F0FB6F894DEBF2B
:103220000FBECDBFDF91CF910F91FF90EF9008952A
:103230000E947B948823F9F00E94189581111BC08D
:1032400060E08AE00E94A99767E08BE399E00E9422
:103250006770609141197091421980914319909162
:1032600044190E94A7C08BE399E00E94639988EDFE
:1032700095E00E94A4970E941895882309F448C0FD
:103280000E947B9460E0811111C08AE00E94A9979E
:1032900067E08BE399E00E94677060913D1970913F
:1032A0003E1980913F199091401928C08AE00E94F0
:1032B000A99780EC98E10E948A7A811105C067E0A5
:1032C0008BE399E00E94677060913D1970913E19FF
:1032D00080913F19909140190E94A7C08BE399E01B
:1032E0000E9463998AED95E00E94A497609141192C
:1032F0007091421980914319909144190E94A7C07E
:103300008BE399E00E94639988ED95E00C94A49773
:1033100008952F923F924F925F926F927F928F9279
:103320009F92AF92BF92CF92DF92EF92FF920F9354
:103330001F93CF93DF9300D000D0CDB7DEB79E832D
:103340008D832D8144E665EC76E082ED96E00E9467
:10335000F55F0E941895811105C00E94C9948111E2
:1033600030C104C00E947B948823B9F38BE54D8162
:103370005E81849F8001859F100D1124C8018A5FA2
:10338000924F0E949A7B4B015C01C8018450934F7D
:103390000E949A7B2B013C01C8018E50934F0E94E2
:1033A0009A7B69837A838B839C83C8018753934F6D
:1033B0001C01FC01C5A0D6A0E7A0F0A4C80188515B
:1033C000934F0E949A7B9B01AC01F10161A172A114
:1033D00083A194A1870176010E945F6261E080E091
:1033E0000E94A99761E871E18BE399E00E942B7933
:1033F00062E083E00E94A9976EE771E18BE399E0B8
:103400000E942B79409193195091941960919519CC
:10341000709196198BE399E00E9499996AE771E19E
:103420008BE399E00E942B7962E08DE00E94A997DE
:1034300068E771E18BE399E00E942B7949815A8119
:103440006B817C818BE399E00E94999963E771E13C
:103450008BE399E00E942B7982EC98E10E948A7AB2
:10346000882309F440C062E080E00E94A9976FE6DB
:1034700071E18BE399E00E942B7963E080E00E9488
:10348000A9976BE671E18BE399E00E942B7963E0E9
:1034900083E00E94A99768E671E18BE399E00E94BE
:1034A0002B79B301A2018BE399E00E94999964E61C
:1034B00071E18BE399E00E942B7963E08CE00E943C
:1034C000A99761E671E18BE399E00E942B79B50140
:1034D000A4018BE399E00E9499996CE571E18BE37B
:1034E00099E00E942B790E94D6A39B01AC016091C8
:1034F0009319709194198091951990919619E2E021
:10350000EE2E05E00E94C75E0E949D880E941297E1
:10351000882309F4C3C04091931950919419609184
:103520009519709196198BE52D813E81829F8001BE
:10353000839F100D1124C8018851934F0E94DD7B99
:103540000E94CF44882359F024E64D815E81249F58
:10355000C001259F900D11248454944F85C082ECA6
:1035600098E10E948A7A882301F120E030E040E46B
:1035700050E46091931970919419809195199091EC
:1035800096190E94C4BFAB01BC01C8018E50934F75
:103590000E94DD7B24E6ED81FE812E9FC0012F9FDE
:1035A000900D11248354944F5FC080EC98E10E94E9
:1035B0008A7A882391F12D813E8123303105ACF147
:1035C0002CC08BE52D813E81829F8001839F100D51
:1035D0001124C8018450934F0E949A7B4B015C01D7
:1035E000A8014753534F3A01FA01C5A0D6A0E7A05E
:1035F000F0A4C8018851934F0E949A7B8B019C01D3
:10360000F30141A152A163A174A181E08F938DEBDD
:1036100096E00E94CA630F9079CF0E9401978111B2
:103620000E94E59686E993E11FC020E030E040E487
:1036300050E460919319709194198091951990912B
:1036400096190E94C4BFAB01BC01C8018E50934FB4
:103650000E94DD7B8D819E810E945444F4E68F9F01
:10366000C00111248554944F26960FB6F894DEBFFE
:103670000FBECDBFDF91CF911F910F91FF90EF90C3
:10368000DF90CF90BF90AF909F908F907F906F9082
:103690005F904F903F902F900C944A9726960FB6CC
:1036A000F894DEBF0FBECDBFDF91CF911F910F9178
:1036B000FF90EF90DF90CF90BF90AF909F908F9052
:1036C0007F906F905F904F903F902F9008958DE581
:1036D00096E00E943D628EEB98E10E948A7A8823F0
:1036E00031F08CEB98E10E948A7A811113C08EEB45
:1036F00098E10E948A7A811114C08CEB98E10E94B3
:103700008A7A882371F080917F0244E050E06DE472
:1037100076E020C080917F0244E050E065E576E0ED
:1037200019C08EEB98E10E948A7A882369F08CEBAD
:1037300098E10E948A7A811107C080917F0244E05B
:1037400050E065E476E006C080917F0244E050E0FE
:103750006DE376E090E00E942E5E0E94129788232F
:10376000F9F080919719813059F028F0823069F092
:10377000833081F0089510927F028FE993E10EC0AB
:1037800080937F028EE993E109C080937F0285EEEA
:103790009CE004C080937F028DE19CE00C944A97EA
:1037A000089589EA96E00E943D628EEB98E10E94BE
:1037B0008A7A42E050E066EA7AE090E00E942E5E6B
:1037C0000E941297882399F180919719882319F004
:1037D000813021F1089560E08EEB98E10E94A47A97
:1037E0008DEE9DE00E94437BBC0182E99DE00E943A
:1037F000707B83EF9DE00E94437BBC0188E99DE0E4
:103800000E94707B8EE89DE00E943E200E940197FE
:1038100081110E94E59686E993E107C061E08EEB95
:1038200098E10E94A47A81E89CE00C944A9708955C
:1038300086E996E00E943D628CEB98E10E948A7ACC
:1038400042E050E066EA7AE090E00E942E5E0E943C
:103850001297882399F180919719882319F0813064
:1038600021F1089560E08CEB98E10E94A47A87E34F
:103870009DE00E94437BBC018CED9CE00E94707B2C
:103880008DE39DE00E94437BBC0182EE9CE00E94A0
:10389000707B88ED9CE00E943E200E940197811180
:1038A0000E94E59686E993E107C061E08CEB98E120
:1038B0000E94A47A89EB9BE00C944A970895AF92FA
:1038C000BF92CF92DF92EF92FF920F931F93CF930D
:1038D000DF9300D000D0CDB7DEB77C01BC01CE01B4
:1038E00001960E94AF966BE876E0CE0101960E94A9
:1038F0004B60CE0101960E944C770E94E15F8BE500
:103900008E9D80018F9D100D1124C801805F924F04
:103910006C010753134FF801E55BFF4FA080B180A6
:103920000E94EE7AF801E75BFF4FA501BC018081A0
:1039300091810E94145F0E941297882389F0609100
:103940007C1970917D19C6010E94197B24E62E9D79
:10395000C0012F9D900D11248D53944F0E944A97C2
:1039600026960FB6F894DEBF0FBECDBFDF91CF9184
:103970001F910F91FF90EF90DF90CF90BF90AF908D
:103980000895AF92BF92CF92DF92EF92FF920F9382
:103990001F93CF93DF9300D000D0CDB7DEB75C018B
:1039A000BC01CE0101960E94AF966BE776E0CE0196
:1039B00001960E944B60CE0101960E944C778BE5E8
:1039C0008A9D80018B9D100D11240852134FC80150
:1039D0000E94BC7A21E030E0813011F420E030E038
:1039E00042E050E066EA7AE0C9010E942E5E0E9441
:1039F0001297882309F4B5C080919719882319F08C
:103A0000813019F00CC061E007C082E0A816B10453
:103A100014F460E001C062E0C8010E94D67AC801D7
:103A20000E94BC7A81111BC02BE52A9DC0012B9DF1
:103A3000900D11248753934FFC01E35BFF4FE0800F
:103A4000F1802091B0193091B119E21AF30A32963F
:103A5000C080D1808091AE199091AF191FC0C8016C
:103A60000E94BC7A2BE58230E1F42A9DC0012B9D97
:103A7000900D11248753934FFC01E35BFF4FE080CF
:103A8000F1802091AA193091AB19E21AF30A32960B
:103A9000C080D1808091A8199091A919C81AD90A1B
:103AA0000FC02A9DC0012B9D900D11248753934F69
:103AB000FC01E35BFF4FE080F1803296C080D18053
:103AC000A601B701C8010E949C208BE58A9DF001E8
:103AD0008B9DF00D1124E35DF24F80819181019760
:103AE00031F48CEB98E10E948A7A8823E1F08BE52F
:103AF0008A9DF0018B9DF00D1124E35DF24F8081D2
:103B00009181039731F48EEB98E10E948A7A8823A1
:103B1000C9F00E94019781110E94E59686E993E120
:103B20000E944A971EC0C8010E94BC7A682F88ED87
:103B30009CE00E94D67AA601B70188ED9CE00E9425
:103B40009C20D5CFC8010E94BC7A682F8EE89DE0EA
:103B50000E94D67AA601B7018EE89DE00E949C20C3
:103B6000D8CF26960FB6F894DEBF0FBECDBFDF913B
:103B7000CF911F910F91FF90EF90DF90CF90BF906A
:103B8000AF9008950F931F93CF93DF9300D000D091
:103B9000CDB7DEB78C01BC01CE0101960E94AF9675
:103BA0006DE676E0CE0101960E944B60CE01019653
:103BB0000E944C770E94E15F2BE5209FC001219F6E
:103BC000900D11248753934FFC01E15BFF4F6081FF
:103BD00071813297808191810E9471890E94129730
:103BE000882391F10130110519F48CEB98E105C09F
:103BF0000330110531F48EEB98E10E948A7A882314
:103C0000A9F02BE5209FC001219F900D112488521F
:103C1000934F0E94DB4424E6209FC001219F900D1A
:103C200011248154944F0E944A970EC0980121504C
:103C300031094BE5429FC001439F900D11248852EA
:103C4000934F0E94DB44DDCF26960FB6F894DEBF7B
:103C50000FBECDBFDF91CF911F910F9108956F924D
:103C60007F928F929F92AF92BF92CF92DF92EF920C
:103C7000FF920F931F93CF93DF93EC018C010357B7
:103C80001E4FF801E080F1806C01FAEDCF0ED11CDF
:103C9000C6010E94BC7A9E0142E1849F200D311D25
:103CA0001124C9018A5F9E4F0E94EE7AE816F90638
:103CB00040F0C6010E94BC7AFE01E855FE4F90E03C
:103CC000C7C1F801A080B1807E01FAEFEF1AFEEFC4
:103CD000FF0AC7010E94EE7AA816B90631F4FE0168
:103CE000E855FE4F1182108231C0F801A080B180EA
:103CF000C7010E94EE7A8A159B0508F085C1F8017C
:103D0000E080F180CE01885E9E4F0E94EE7A8E1593
:103D10009F0508F098C178C1F80160807180AF2CD0
:103D2000B12CEA9CC001EB9C900D11248A5F9E4F40
:103D30008C0F9D1F0E94EE7A6816790608F06EC1FE
:103D4000F394C6010E94BC7AF81630F38E01085530
:103D50001E4FF801E080F180C6010E94BC7A90E01D
:103D60009E0126553E4F5901E816F90609F49BC0FD
:103D7000F8012081318142E1F42EF29EC001F39ED0
:103D8000900D11248A5F9E4F8C0F9D1F0E94EE7A2A
:103D90004C01F801208131812F5F3F4FF29EC0011D
:103DA000F39E900D11248A5F9E4F8C0F9D1F0E94E1
:103DB000EE7AF801208131818816990619F02F5F7B
:103DC0003F4F24C0F29EC001F39E900D11248A5FE4
:103DD0009E4F8C0F9D1F0E94EE7A4C01F8012081AE
:103DE00031812E5F3F4FF29EC001F39E900D112452
:103DF0008A5F9E4F8C0F9D1F0E94EE7AF8012081F2
:103E000031818816990631F02E5F3F4FF5013183DD
:103E1000208350C0F29EC001F39E900D11248A5F52
:103E20009E4F8C0F9D1F0E94EE7A4C01F80120815D
:103E300031812D5F3F4FF29EC001F39E900D112402
:103E40008A5F9E4F8C0F9D1F0E94EE7AF8012081A1
:103E500031818816990619F02D5F3F4FD7CFF29E1A
:103E6000C001F39E900D11248A5F9E4F8C0F9D1F01
:103E70000E94EE7A4C01F801808191810496F89EAF
:103E80009001F99E300D1124C9018A5F9E4F8C0F5D
:103E90009D1F0E94EE7A8816990629F0F80180810C
:103EA0009181049604C0C6010E94BC7A90E0F5019D
:103EB00091838083F80120813181CE0184559E4F0A
:103EC0006C012115310509F49BC092E1F92EF29E97
:103ED000C001F39E900D11248A5F9E4F8C0F9D1F91
:103EE0000E94EE7A5C01F801808191810197F89E31
:103EF0009001F99E300D1124C9018A5F9E4F8C0FED
:103F00009D1F0E94EE7AF80120813181A816B90622
:103F100019F02150310949C0F29EC001F39E900D65
:103F200011248A5F9E4F8C0F9D1F0E94EE7A5C01C8
:103F3000F801808191810297F89E9001F99E300DE1
:103F40001124C9018A5F9E4F8C0F9D1F0E94EE7A3B
:103F5000F80120813181A816B90619F022503109E3
:103F600024C0F29EC001F39E900D11248A5F9E4FE3
:103F70008C0F9D1F0E94EE7A5C01F8018081918177
:103F80000397F89E9001F99E300D1124C9018A5FB4
:103F90009E4F8C0F9D1F0E94EE7AF8012081318187
:103FA000A816B90631F023503109F6013183208378
:103FB00056C0F29EC001F39E900D11248A5F9E4F61
:103FC0008C0F9D1F0E94EE7A5C01F8018081918127
:103FD0000497F89E9001F99E300D1124C9018A5F63
:103FE0009E4F8C0F9D1F0E94EE7AA816B90641F0D5
:103FF000F801808191810497F601918380832FC01D
:10400000F601118210822BC0FF24F39482E1E82E86
:104010004E01F8E58F1AFEEF9F0A93CEF8016080FB
:10402000718095012F5F3F4FE29EC001E39E900D8E
:1040300011248A5F9E4F8C0F9D1F0E94EE7A681696
:10404000790648F07DCE81E090E0FE01E855FE4F14
:10405000918380837BCEF401B182A08271CEDF9107
:10406000CF911F910F91FF90EF90DF90CF90BF9075
:10407000AF909F908F907F906F900895EF92FF92F6
:104080000F931F93CF93DF93EC010E94BC7A8111B1
:104090000CC08091AE199091AF198E010E5B1F4F2D
:1040A0002091B0193091B11922C0CE010E94BC7A82
:1040B000813069F4CE0104960E94437B9FAF8EAF9E
:1040C000CE010A960E94437BC05CDF4F2CC0CE011C
:1040D0000E94BC7A823049F58091A8199091A91963
:1040E0008E010E5B1F4F2091AA193091AB19F80178
:1040F0003183208393838283CE010A960E94437B7F
:104100007C01CE0104960E94437BBC01A701C8013B
:104110000E944E7AF801808191819FAF8EAFC05C82
:10412000DF4F8281938199838883DF91CF911F91A3
:104130000F91FF90EF900895CF92DF92EF92FF9250
:104140000F931F93CF93DF93EC017B016A010E94D1
:10415000BC7A882371F0CE010E94BC7A823049F08B
:104160001F821E8287E190E0998788871D861C86C2
:104170000CC089EE9FEF9F838E8387E190E0998743
:10418000888785EC9FEF9D878C878BE390E09F87E6
:104190008E87CE010E94BC7A811109C08091AE1930
:1041A0009091AF192091B0193091B1191AC0CE0178
:1041B0000E94BC7A813041F4FFAEEEAEFE01E05CBD
:1041C000FF4FD182C08224C0CE010E94BC7A8230CF
:1041D000F9F48091A8199091A9192091AA19309108
:1041E000AB198E010E5B1F4FF8013183208393833F
:1041F0008283A601B701C8010E944E7AF80180812E
:1042000091819FAF8EAF828193813297918380831A
:10421000B701CE0104960E94707BB601CE010A96CA
:10422000DF91CF911F910F91FF90EF90DF90CF9092
:104230000C94707BDF92EF92FF920F931F93CF93BA
:10424000DF93CDB7DEB768970FB6F894DEBF0FBE29
:10425000CDBF8C01FC01808191819A838983CE013D
:1042600001960E94C90BD82EBE01695E7F4FF801EE
:10427000848195810E94507CBE016B5E7F4FF80166
:10428000828593850E94507CBE01635F7F4FF80159
:10429000808991890E941C7CBE01675F7F4FF80175
:1042A000828D938D0E941C7CBE016B5F7F4FF80155
:1042B00084A195A10E941C7CBE016F5F7F4FF80115
:1042C00086A597A50E941C7CF801E0ACF1ACFA8AA7
:1042D000E98ACE0141960E94C90B8B8BFFEFEF1A42
:1042E000FF0AFA8AE98ACE0141960E94C90B8C8B9B
:1042F0006D2DC8010E94D67A4D895E896F89788DAF
:10430000C8010E949C2049855A856B857C85C8011F
:104310004A960E94DD7B49815A816B817C81C8016C
:104320008E960E94DD7B4D855E856F857889C801FC
:1043300040960E94DD7B4D815E816F817885C8014A
:1043400084960E94DD7B6B897C89C801C8960E9497
:10435000197B68960FB6F894DEBF0FBECDBFDF9114
:10436000CF911F910F91FF90EF90DF900895EF9202
:10437000FF920F931F93CF93DF93EC017C0189E1B0
:10438000E80EF11CC7010E941A168E01035E1F4F32
:10439000C8010E941A16188219821A821B821C8276
:1043A0001D821E821F82188619861A861B861C860D
:1043B0001D861E861F86188A198A1A8A1B8AC701BB
:1043C0000E942C98C8010E942C98188EDF91CF91E2
:1043D0001F910F91FF90EF9008954F925F926F920F
:1043E0007F928F929F92AF92BF92CF92DF92EF9285
:1043F000FF920F931F934A015B016801790129E243
:104400003CE54DE851E4C701B6010E9461C62B01AD
:104410003C0120E030E843E753E4C701B6010E94C5
:10442000C4BF9B01AC01C301B2010E9435C09B0116
:10443000AC016DE478EF8DE290E40E9468C121E860
:1044400035E943EC50E40E9461C6A50194010E9445
:1044500061C62EEA36EB4AE050E40E9461C64B0189
:104460005C0123E333E948E853E4C701B6010E9445
:10447000C4BF9B01AC01C501B4010E9435C01F91AE
:104480000F91FF90EF90DF90CF90BF90AF909F90F3
:104490008F907F906F905F904F9008958F929F9232
:1044A000AF92BF92CF92DF92EF92FF920F931F9342
:1044B000CF93DF93EC016A017B018A019B0140E00D
:1044C00050E068EC72E40E94ED214B015C014881F0
:1044D00059816A817B8197018601CE010E94ED217D
:1044E0009B01AC01C501B4010E94C3BFDF91CF9114
:1044F0001F910F91FF90EF90DF90CF90BF90AF9002
:104500009F908F9008952F923F924F925F926F925B
:104510007F928F929F92AF92BF92CF92DF92EF9253
:10452000FF920F931F93CF93DF93EC01488359833E
:104530006A837B831C012EE7220E311CC1010E947D
:104540009415603C77428940910508F488C0FE01CB
:10455000E858FF4F7E0124E6E20EF11CB291A291D1
:104560009291829184839583A683B783EE15FF058C
:10457000A9F788819981AA81BB81F7018083918302
:10458000A283B3836E01FCE7CF0ED11CF6018081BC
:104590009181019691838083069709F04BC000E0DA
:1045A00010E0812C912C5401F701419051906190C1
:1045B00071907F0120E030E04FE753E4C301B20186
:1045C0000E94FBC5882351F0A3019201C501B401EB
:1045D0000E94C4BF4B015C010F5F1F4FEC14FD0430
:1045E00019F70115110569F0B801110F880B990B26
:1045F0000E9402C69B01AC01C501B4010E9435C0F6
:1046000003C060E070E0CB01FE01E45AFF4F00817F
:104610001181228133810483158326833783349764
:10462000EC17FD07A1F76483758386839783F601F2
:1046300011821082C101DF91CF911F910F91FF90E4
:10464000EF90DF90CF90BF90AF909F908F907F9032
:104650006F905F904F903F902F900C942C98DF912B
:10466000CF911F910F91FF90EF90DF90CF90BF906F
:10467000AF909F908F907F906F905F904F903F9002
:104680002F900895CF92DF92EF92FF920F931F9396
:10469000CF93DF93EC018C0102581F4FC8010E9499
:1046A0001A16FE013496CE018C599F4FC12CD12C85
:1046B0002FE7E22E23E4F22E40E050E06FE773E4B0
:1046C000C192D192E192F192E817F907A9F74083DC
:1046D000518362837383FE01E859FF4F4083518306
:1046E00062837383349640835183628373833496E9
:1046F0004083518362837383349640835183628302
:10470000738334964083518362837383C8010E940C
:104710002C98C458DF4F19821882DF91CF911F91D6
:104720000F91FF90EF90DF90CF900895CF93DF939C
:10473000EC018D579E4F0E942B83811106C0CE0144
:1047400088579E4F0E942B83811181E0DF91CF918A
:1047500008950F931F93CF93DF93C0E0D0E08C01B7
:1047600006521F4FC8010E94BC7A282F30E02F5FED
:104770003F4FC217D30710F42196F4CFDF91CF91AA
:104780001F910F9108950F931F93CF93DF93EC0127
:10479000FB0184819581892BD1F00081118169EF22
:1047A00074E0C8010E9495C5892B31F48FEFFE019A
:1047B000EA55FE4F80830BC061EF74E0C8010E9490
:1047C00095C5892B21F4FE01E955FE4F1082FE01AB
:1047D000E556FE4F1082118212821382CE018F5451
:1047E0009E4FDF91CF911F910F910C942C98EF92D7
:1047F000FF920F931F93CF93DF938C0103571E4FAC
:10480000D8012D913C912F3F310599F1EC017C01AC
:10481000BDE7EB1ABEEFFB0AC7010E942B8388237A
:1048200019F0C7010E946C837E01E8E7EE1AEEEFF3
:10483000FE0AC7010E942B83882319F0C7010E943A
:104840006C83FE01EF55FE4F20813181D8018D919F
:104850009C911197820F931F8D939C9311821082CC
:10486000CE01DF91CF911F910F91FF90EF900C94AB
:104870002F1EDF91CF911F910F91FF90EF90089520
:104880004F925F926F927F928F929F92AF92BF9260
:10489000CF92DF92EF92FF920F931F93CF93DF930C
:1048A000EC010E942F1ECE0188519F4F0E94EE7A8C
:1048B000BC0180E090E00E9400C620E030E04AE7C2
:1048C00054E40E9461C66B017C018E010E571E4F9D
:1048D000D8018C91682F70E080E090E00E9400C6C3
:1048E0009B01AC01C701B6010E9435C04B015C01C0
:1048F000CE0182519F4F0E94EE7ABC0180E090E091
:104900000E9400C620E030E04AE754E40E9461C6FD
:104910006B017C01F801608170E080E090E00E9412
:1049200000C69B01AC01C701B6010E9435C02B0136
:104930003C017E01F1E7EF1AFEEFFF0AC501B40169
:104940000E94AEC0D7016D937D938D939C93139776
:104950000F5E1F4FC301B2010E94AEC0F801608319
:10496000718382839383CE018C509F4F0E94EE7A95
:10497000FE01E956FE4F28EE33E0AC01429FC00134
:10498000439F900D529F900D1124A0E0B0E08083D2
:104990009183A283B383DE01AF57BE4F8C918823EE
:1049A00081F0D7011D921D921D921C921397D80180
:1049B0001D921D921D921C921397108211821282D9
:1049C0001382FE01EF55FE4FA081B1811A161B061E
:1049D000A4F48E0105561E4FF701208131814281DA
:1049E00053810E94AABFD8016D937D938D939C93B0
:1049F0001397CE018D579E4F1AC01097D1F07E01AC
:104A0000E5E6EE1AEEEFFE0AB195A195B109F801BF
:104A100020813181428153810E94AABFD7016D93C9
:104A20007D938D939C931397CE0188579E4F0E9440
:104A30004683CE018F549E4FDF91CF911F910F91EE
:104A4000FF90EF90DF90CF90BF90AF909F908F90AE
:104A50007F906F905F904F900C942C98CF92DF9244
:104A6000EF92FF920F931F93CF93DF93EC016A01B4
:104A70007B018C0104501F4FC8010E949A7B9B014F
:104A8000AC01C701B6010E9463C187FD21C0C80106
:104A90000E949A7B20E030E0A9010E94FBC5882398
:104AA000B9F060E0CE0186509F4F0E94A47ACE01FB
:104AB0000E94F723FE01E357FE4F8FEF90E09183B2
:104AC00080837B9691838083C055DE4F81E088830D
:104AD000DF91CF911F910F91FF90EF90DF90CF90DA
:104AE00008959C012E583E4FAC014A5F5E4F31F055
:104AF0002417350719F022513109FACF0C94A50F6C
:104B00002F923F924F925F926F927F928F929F92DD
:104B1000AF92BF92CF92DF92EF92FF920F931F93CB
:104B2000CF93DF93762E49015A01EC01CF58DF4F26
:104B30008C010D531F4F66246394CE010E970E9483
:104B4000BC7A871168C0CE0106970E948A7A8823B2
:104B500009F460C07E018FEFE81AF80AC7010E94CD
:104B6000BC7A582E81E0581229C06E0185E0C80E2B
:104B7000D11CC6010E949A7B9B01AC01C501B40106
:104B80000E9463C1181614F4588218C0C6010E940E
:104B90009A7B1B012C01CE010F960E949A7B9B01F0
:104BA000AC01C201B1010E94C3BF9B01AC01C501B0
:104BB000B4010E94FBC518160CF01882C7010E94B0
:104BC000BC7A823041F57E0185E0E80EF11CC70118
:104BD0000E949A7B9B01AC01C501B4010E94FBC5F8
:104BE00087FF02C0688217C0C7010E949A7B6B01D1
:104BF0007C01CE010F960E949A7B9B01AC01C701FC
:104C0000B6010E94C4BF9B01AC01C501B4010E9462
:104C100063C187FF1882A996C017D10709F08DCF0D
:104C2000DF91CF911F910F91FF90EF90DF90CF9088
:104C3000BF90AF909F908F907F906F905F904F90BC
:104C40003F902F900895DF92EF92FF920F931F9362
:104C5000CF93DF93F62EE42EEC01CD53DF4F8C0182
:104C60000B511F4FDD24D394CE010E970E94BC7AC6
:104C70008F110BC0CE0106970E948A7A882321F0FB
:104C8000EE2011F0D88201C018826196C017D107BA
:104C900059F7DF91CF911F910F91FF90EF90DF9027
:104CA0000895CF93DF93EC0141155105610571051E
:104CB00081F081E0FE01E458FE4F8083319640830D
:104CC000518362837383CE0188589E4F0E942C9833
:104CD0000BC061E08E589E4F0E94A47A60E0CE0126
:104CE0008C589E4F0E94D67A20E040E062E3CE01CD
:104CF0000E94D37E41E062E3CE01DF91CF910C941C
:104D00002326CF92DF92EF920F931F93CF93DF93DF
:104D100000D0CDB7DEB76B01102FCB0108962B83E7
:104D20004A830E948A7A882309F1C6014B960E9421
:104D3000BC7AE82EC60147960E94BC7A082FC601AD
:104D400043960E94BC7A682FC6010F9669830E9421
:104D5000BC7A2B814A8169810E94217A882331F0B3
:104D6000C6010A960E94BC7A181718F4F601168636
:104D700003C081E0F60186870F900F900F90DF91BE
:104D8000CF911F910F91EF90DF90CF900895CF9228
:104D9000DF92EF920F93CF93DF9300D0CDB7DEB7C2
:104DA0006B01CB0108962B834A830E948A7A882361
:104DB000F9F0C6014B960E94BC7AE82EC6014796D0
:104DC0000E94BC7A082FC60143960E94BC7A682FC5
:104DD000C6010F9669830E94BC7A2B814A81698142
:104DE0000E94217A882321F081E0F601868702C0A3
:104DF000F60116860F900F900F90DF91CF910F91D3
:104E0000EF90DF90CF900895CF92DF92EF92FF92D4
:104E10000F931F93CF93DF931F92CDB7DEB77C0123
:104E2000C12CD12C87010C0D1D1DC80169830E9466
:104E3000BC7A6981861749F081E2C80ED11C83E6ED
:104E4000C816D10479F7C70101C0C8010F90DF91DE
:104E5000CF911F910F91FF90EF90DF90CF90089529
:104E60004F925F926F927F92AF92BF92CF92DF92FA
:104E7000EF92FF920F931F93CF93DF93CDB7DEB7DF
:104E80002C970FB6F894DEBF0FBECDBF6C016CED52
:104E900075E0CE0101960E94A977A601BE016F5F61
:104EA0007F4FCE0107960E94345D60E278E0CE012C
:104EB00007960E944B60CE0107960E944C77CE0168
:104EC00001960E944C770E94E15F8DEB91E0C89EB5
:104ED0008001C99E100DD89E100D1124C8018E5D51
:104EE000904F5C010753134FF801E15AFD4F40808A
:104EF0005180628073800E949A7B9B01AC01F80113
:104F0000E55AFD4F60817181828193818301720135
:104F10000E94E0640E9412978823D1F04091931977
:104F2000509194196091951970919619C5010E943C
:104F3000DD7B0E94019781110E94E59624E62C9D5D
:104F4000C0012D9D900D112488519C4F0E944A97BD
:104F50002C960FB6F894DEBF0FBECDBFDF91CF9178
:104F60001F910F91FF90EF90DF90CF90BF90AF9087
:104F70007F906F905F904F9008950F931F93CF9302
:104F8000DF93CDB7DEB72C970FB6F894DEBF0FBE18
:104F9000CDBF8C016CED75E0CE0101960E94A97722
:104FA000A801BE016F5F7F4FCE0107960E94345D5E
:104FB00084E6809F9001819F300D112424513C4F45
:104FC0008DEB91E0089FA001099F500D189F500D97
:104FD0001124485C504F6DE078E0CE0107960E94A6
:104FE000F461CE0107960E944C77CE0101960E9493
:104FF0004C772C960FB6F894DEBF0FBECDBFDF9175
:10500000CF911F910F9108952F923F924F925F92EF
:105010006F927F928F929F92AF92BF92CF92DF92C8
:10502000EF92FF920F931F93CF93DF93CDB7DEB72D
:1050300066970FB6F894DEBF0FBECDBF4C016CED86
:1050400075E0CE0101960E94A977A401BE016F5FB1
:105050007F4FCE0107960E94345D6AEF77E0CE0164
:1050600007960E944B60CE0107960E944C77CE01B6
:1050700001960E944C778DEB91E0889E1001899EED
:10508000300C989E300C11249101225E304F290182
:10509000C9010E94BC7A823008F4CEC024E6289D63
:1050A000C001299D900D11249C0125513C4F3C8B42
:1050B0002B8B92E0892E912C3E8A2D8AC1018E592C
:1050C000904F9A8B898BC2010E94BC7A90E0881520
:1050D00099050CF4F9C0C2010E94BC7A90E08815D1
:1050E000990509F0A5C01091411900914219F0905D
:1050F0004319E090441922E1289DC001299D900D9B
:1051000011242D893E89820F931F9C01205B304F13
:105110003901FC01EA5AF04FA080B180C280D380EF
:10512000C9010E949A7B6D877E878F87988B8989BA
:105130009A890E949A7B9B01AC01EF92FF920F9398
:105140001F93ED84FE840F8518896EED77E08CEE59
:1051500097E00E9422630E9412970F900F900F9089
:105160000F90882309F464C0C3010E949A7B6B01ED
:105170007C0189899A890E949A7B9B01AC01C701B5
:10518000B6010E94C3BF6B017C01B401615071097B
:10519000072E000C880B990B0E9402C69B01AC01E4
:1051A000C701B6010E9435C06D877E878F87988BB7
:1051B00000E010E082E0E82EF12C6401C2010E94C0
:1051C000BC7A580192E1A90EB11C90E08E159F05A2
:1051D0005CF1B6016E197F09072E000C880B990B44
:1051E0000E9402C69B01AC016D857E858F859889E2
:1051F0000E9461C69B01AC01609193197091941952
:1052000080919519909196190E94C3BFAB01BC0182
:10521000C801820D931D8C58904F0E94DD7B3FEF9B
:10522000E31AF30A8501CACF8B899C890E944A97A9
:105230002FEF821A920A47CFF090411950904219ED
:1052400040904319E0904419C1018E59904F3C01A0
:1052500081010753134FF801E156FD4FA080B18043
:10526000C280D3800E949A7BF801E556FD4F2081D1
:10527000318142815381EF924F925F92FF927B0185
:105280008C0169EC77E087ED97E00E9422630E9431
:1052900012970F900F900F900F908823A9F04091D4
:1052A0009319509194196091951970919619C301B1
:1052B0000E94DD7B24E6289DC001299D900D1124CC
:1052C00085519C4F0E944A9766960FB6F894DEBFB0
:1052D0000FBECDBFDF91CF911F910F91FF90EF9047
:1052E000DF90CF90BF90AF909F908F907F906F9006
:1052F0005F904F903F902F9008952F923F924F9242
:105300005F926F927F928F929F92AF92BF92CF9255
:10531000DF92EF92FF920F931F93CF93DF93CDB75E
:10532000DEB72C970FB6F894DEBF0FBECDBF7C0161
:105330002DEB31E0E29EC001E39E900DF29E900DB8
:105340001124825E904F0E94BC7A823058F084E62D
:105350008E9D40018F9D900C112484E0881A8CEF63
:10536000980A0AC084E68E9D40018F9D900C1124FE
:1053700095E1891A9CEF990A6CED75E0CE010196D2
:105380000E94A977A701BE016F5F7F4FCE010796EC
:105390000E94345D66EB77E0CE0107960E944B6079
:1053A000CE0107960E944C77CE0101960E944C7761
:1053B000509041194090421930904319209044195F
:1053C0008DEB91E0E89E8001E99E100DF89E100D96
:1053D0001124C8018E59904F3C010753134FF80117
:1053E000E156FD4FA080B180C280D3800E949A7B9D
:1053F000F801E556FD4F20813181428153812F9282
:105400003F924F925F927B018C016AE977E088EAD4
:1054100097E00E9422630E9412970F900F900F90C6
:105420000F90882371F040919319509194196091D5
:10543000951970919619C3010E94DD7BC4010E94E9
:105440004A972C960FB6F894DEBF0FBECDBFDF9102
:10545000CF911F910F91FF90EF90DF90CF90BF9071
:10546000AF909F908F907F906F905F904F903F9004
:105470002F9008952F923F924F925F926F927F925A
:105480008F929F92AF92BF92CF92DF92EF92FF9254
:105490000F931F93CF93DF93CDB7DEB72E970FB641
:1054A000F894DEBF0FBECDBF6C016CED75E0CE0190
:1054B00001960E94A977A601BE016F5F7F4FCE01C2
:1054C00007960E94345D67E877E0CE0107960E9458
:1054D0004B60CE0107960E944C77CE0101960E9448
:1054E0004C770E94E15F8DEB91E0C89E7001C99EF0
:1054F000F00CD89EF00C11249701225E304F590118
:10550000C9010E94BC7A87010D561D4F823008F4F4
:1055100073C0C5010E94BC7A282E312C970142E14C
:10552000849F200D311D1124C901265B304F490194
:10553000FC01E25BF04F40805180C9010E94EE7A8D
:105540003C010753134FC8010E94EE7AA201B30138
:105550000E94145F0E941297882309F476C0C40148
:105560000E94EE7A4C01C8010E94EE7A9401281B39
:10557000390BC90131E0231A3108B1010E942ABF59
:105580004B01629D2001639D500C729D500C1124B3
:1055900020E030E0612C712C02E010E0C5012D8785
:1055A0003E870E94BC7A681879082D853E851901CE
:1055B00042E1240E311C90E080179107A4F0609125
:1055C0007C1970917D19C301840D951D681B790BA1
:1055D000C9018E0D9F1D8259904F0E94197B0F5F4C
:1055E0001F4F9101DBCF24E62C9DC0012D9D900D16
:1055F00011248E509C4F27C00753134FF701E05AD8
:10560000F04F80809180C8010E94EE7A5C01C70152
:10561000865B904F0E94EE7AA401B5010E94145F50
:105620000E941297882389F060917C1970917D19EE
:10563000C8010E94197B24E62C9DC0012D9D900D70
:10564000112484509C4F0E944A972E960FB6F894CE
:10565000DEBF0FBECDBFDF91CF911F910F91FF90A5
:10566000EF90DF90CF90BF90AF909F908F907F9002
:105670006F905F904F903F902F900895AF92BF92A0
:10568000CF92DF92EF92FF920F931F93CF93DF930E
:10569000CDB7DEB72C970FB6F894DEBF0FBECDBFE7
:1056A0007C016CED75E0CE0101960E94A977A701FF
:1056B000BE016F5F7F4FCE0107960E94345D64E7A5
:1056C00077E0CE0107960E944B60CE0107960E94BC
:1056D0004C77CE0101960E944C770E94E15F8DEBE2
:1056E00091E0E89E8001E99E100DF89E100D1124B6
:1056F000C801845A904F6C010753134FF801E956C3
:10570000FD4FA080B1800E94EE7AF801EB56FD4F6C
:10571000A501BC01808191810E94145F0E941297B3
:10572000882389F060917C1970917D19C6010E94CF
:10573000197B24E62E9DC0012F9D900D11248350CE
:105740009C4F0E944A972C960FB6F894DEBF0FBE6E
:10575000CDBFDF91CF911F910F91FF90EF90DF9020
:10576000CF90BF90AF900895CF92DF92EF92FF92CB
:105770000F931F93CF93DF93CDB7DEB72D970FB65F
:10578000F894DEBF0FBECDBF7C016CED75E0CE019D
:1057900001960E94A977A701BE016F5F7F4FCE01DE
:1057A00007960E94345D61E677E0CE0107960E947D
:1057B0004B60CE0107960E944C77CE0101960E9465
:1057C0004C770E94E15F8DEB91E0E89E8001E99EBD
:1057D000100DF89E100D1124C801825E904F6C01CF
:1057E0000753134FF801E85AFD4F408141504D8750
:1057F0000E94BC7AF801E95AFD4F90814D85682FCF
:1058000081E0890F0E94625F0E9412978823E1F075
:1058100060917C19C6010E94D67AC6010E94BC7AAA
:1058200024E6823040F02E9DC0012F9D900D112462
:105830008D509C4F07C02E9DC0012F9D900D1124AF
:1058400083509C4F0E944A972D960FB6F894DEBF66
:105850000FBECDBFDF91CF911F910F91FF90EF90C1
:10586000DF90CF9008950F931F93CF93DF93CDB721
:10587000DEB72C970FB6F894DEBF0FBECDBF8C01FC
:1058800060E083E10E94A99766E08BE399E00E94C3
:1058900067700E94019781110E94E5966CED75E09A
:1058A000CE0101960E94A977A801BE016F5F7F4FCC
:1058B000CE0107960E94345D8DEB91E0089FA00118
:1058C000099F500D189F500D11244E5C504F28E831
:1058D00033E16FE477E0CE0107960E94F461CE01D8
:1058E00007960E944C77CE0101960E944C772C9629
:1058F0000FB6F894DEBF0FBECDBFDF91CF911F91E1
:105900000F9108950F931F93CF93DF93CDB7DEB719
:105910002C970FB6F894DEBF0FBECDBF8C0160E0B0
:1059200083E10E94A99765E08BE399E00E9467708C
:105930006CED75E0CE0101960E94A977A801BE0129
:105940006F5F7F4FCE0107960E94345D84E6809F93
:105950009001819F300D112426513C4F8DEB91E039
:10596000089FA001099F500D189F500D1124445D00
:10597000504F6DE377E0CE0107960E94F461CE01AF
:1059800007960E944C77CE0101960E944C772C9688
:105990000FB6F894DEBF0FBECDBFDF91CF911F9140
:1059A0000F910895AF92BF92CF92DF92EF92FF9244
:1059B0000F931F93CF93DF93CDB7DEB762970FB6E8
:1059C000F894DEBF0FBECDBF8C015B0162EF75E0C6
:1059D000CE0107960E94A97762EF75E0CE0101968D
:1059E0000E94A97765018FEFC81AD80A8DE091E06F
:1059F000A89E7001A99EF00CB89EF00C1124C7015E
:105A000083599B4E0E948A7A811103C06AEF75E028
:105A10001AC0C70187599B4E7C010E94BC7A811134
:105A200003C065EB76E00FC0C7010E94BC7A8130ED
:105A300019F46EED75E007C0C7010E94BC7A823090
:105A4000F9F460EE75E0CE0101960E941E77BE016A
:105A50006F5F7F4FCE010D960E94A077B601CE01F9
:105A60000D960E94B476BC01CE0107960E94357750
:105A7000CE010D960E944C77BE01695F7F4F09C031
:105A800062EE75E0CE0101960E941E77BE016F5F47
:105A90007F4FC8010E949777CE0101960E944C77F4
:105AA000CE0107960E944C77C80162960FB6F89413
:105AB000DEBF0FBECDBFDF91CF911F910F91FF9041
:105AC000EF90DF90CF90BF90AF9008957F928F922C
:105AD0009F92AF92BF92CF92DF92EF92FF920F937D
